:020000040800F2
:10000000D8AD0120497D0008ED060008EF06000884
:10001000F1060008F3060008F506000800000000DD
:100020000000000000000000000000005B7D0008F0
:10003000F7060008000000002DA10108B1A9000882
:10004000637D0008637D0008637D0008637D000810
:10005000637D0008637D0008637D0008637D000800
:10006000637D0008637D0008637D0008637D0008F0
:10007000637D0008637D0008637D0008637D0008E0
:10008000637D0008637D0008637D0008637D0008D0
:10009000637D0008637D0008637D0008637D0008C0
:1000A000637D0008637D0008637D0008637D0008B0
:1000B000637D0008150A0008637D0008637D000861
:1000C000637D0008637D0008637D0008637D000890
:1000D000637D000843AB0008637D0008637D000872
:1000E000637D0008637D0008637D0008637D000870
:1000F000637D0008637D0008637D0008637D000860
:10010000637D00082B770008637D0008637D00088D
:10011000637D0008637D0008637D0008637D00083F
:10012000637D0008637D0008637D0008637D00082F
:10013000637D000813520008637D0008637D00089A
:10014000637D0008637D0008637D0008637D00080F
:10015000637D0008637D0008637D0008637D0008FF
:10016000637D0008637D0008637D0008637D0008EF
:10017000637D0008637D0008637D0008637D0008DF
:10018000637D0008637D000800F002F800F080F84D
:100190000AA090E8000C82448344AAF10107DA45E2
:1001A00001D100F075F8AFF2090EBAE80F0013F0B4
:1001B000010F18BFFB1A43F00103184774D1020066
:1001C00094D102000A444FF0000C10F8013B13F0E8
:1001D000070408BF10F8014B1D1108BF10F8015BA0
:1001E000641E05D010F8016B641E01F8016BF9D193
:1001F00013F0080F1EBF10F8014BAD1C0C1B09D1EA
:100200006D1E58BF01F801CBFAD505E014F8016B5B
:1002100001F8016B6D1EF9D59142D6D370470000ED
:100220000023002400250026103A28BF78C1FBD8FF
:10023000520728BF30C148BF0B607047662924F0C1
:100240000382672924F00082692920F00F8764293E
:1002500020F00C87782920F04587732921F0358517
:10026000002070471FB524F0E2F921F044F821F096
:1002700015FA04000020002123F0D8FB401C606028
:100280000020002123F0E8FBE0601FBD10B510BD89
:1002900022F080FB1146FFF7E5FF00F0FBF822F0AB
:1002A000E1FD03B4FFF7F2FF03BC0AF0EBFB000033
:1002B00030BF72B6704762B6704780F308887047E7
:1002C0000B49D1F800C04A685CF8043B1068184438
:1002D00042F8040B8C4528BFA1F1DC0C8A4228BFF0
:1002E000A1F1DC02C1F800C04A6020F00040704774
:1002F0006C9B0120F0B5AE4C8BB01026677B217B48
:10030000A27AE37ACDE9001702AD022831D0A9A183
:10031000284620F045FECDE900651023D222822137
:100320001E2004F07EFE617D207DCDE90001E37C8E
:10033000A27CA6A102A820F033FECDE9006510231F
:10034000D22296211E2004F06CFE617C207CCDE937
:100350000001E37BA27BA3A102A820F021FECDE94E
:1003600000651023D222AA211E2004F05AFE0BB0F1
:10037000F0BDA2A1284620F013FECDE900651023B0
:10038000D22282211E2004F04CFE617D207DCDE929
:100390000001E37CA27C9FA102A820F001FECDE930
:1003A00000651023D22296211E2004F03AFE617CC3
:1003B000207CCDE90001E37BA27B9CA1CCE74FF43C
:1003C000FA74002223461146104619F098FAF8E70D
:1003D00010B51CF016FB01469AA020F0D5FDBDE833
:1003E00010401AF005B8724C4FF4FA75A07D28B190
:1003F000A07DFFF77FFFFF2019F0ABF900222B460D
:100400001146104619F07BFAF0E7944C4FF4FA7558
:10041000D4F8A40248B10020C4F8A40200222B465C
:100420001146104619F06BFAF2E70120F4E710B517
:1004300017F05AFD19F052FE04460AF0F9FC0021AB
:100440004FF4FA730222084619F059FA0923844A34
:100450000021AFF2490018F05EFF0823814A002115
:10046000AFF27D0018F057FF0B237F4A0021AFF257
:100470009F0018F050FF0C237C4A0021AFF2C1000E
:1004800018F049FFFF2019F064F92046BDE810403C
:1004900019F028BE7CB5A8200AF098FA4FF4A060A5
:1004A00007F072FC4FF4E1300AF0F5FA00F04CFA74
:1004B00000F0E0F901F001F805F05EF905F093FCB9
:1004C00004F052FF002019F07CFE012019F079FEA3
:1004D000022019F076FE1DF0F3FE654C012265A1A5
:1004E00020681FF061F8012263A160681FF05CF8CA
:1004F00007F0C7FB61494FF478401024088060A0E2
:10050000CDE900401E211423C822084604F089FDCD
:1005100060A0CDE900401423C82232211E2004F03F
:1005200080FD60A0CDE900401423C82246211E2092
:1005300004F077FD5FA0CDE900401423C8225A21C2
:100540001E2004F06EFD17F0E2FB4FF4FA754FF633
:10055000FF7615E05AA0CDE900401423C8226E2191
:100560001E2004F05EFD28460AF06AFA9623E62271
:100570006E211E20009604F038FB28460AF060FA2F
:100580000AF07EFB0028E5D152A0CDE900401423FB
:10059000C8226E211E2004F044FD0A23524A002185
:1005A000AFF2751018F0B7FE17F08BFC00207CBD81
:1005B000202E00205374617469632049503A2564E9
:1005C0002E25642E25642E2564000000537461746A
:1005D00069632047573A25642E25642E25642E250D
:1005E000640000004E4554204D41534B203A256491
:1005F0002E25642E25642E256400000044484350B7
:10060000204950203A25642E25642E25642E256429
:100610000000000044484350204757203A25642EEC
:1006200025642E25642E2564000000004E455420CC
:100630004D41534B3A25642E25642E25642E2564A6
:10064000000000000D0A634A534F4E205665727336
:10065000696F6E3A2025730D0A0000000080424247
:10066000540600205405002054180020541A00207D
:1006700004020020303A0000313A00001600002049
:100680004578706C6F7265722053544D3332463426
:10069000000000004C5749502B55434F53205465E0
:1006A0007374000041544F4D40414C49454E5445F0
:1006B0004B000000323031342F392F310000000060
:1006C0004C77697020496E6974206661696C656455
:1006D000210000004C77697020496E6974205375C1
:1006E0006363657373210000540800207047FEE7C0
:1006F000FEE7FEE7FEE770470CB500205449019085
:1007000000900A6842F480320A604FF4A0430A68FD
:1007100002F400320092019A521C0192009A12B91E
:10072000019A9A42F3D10A68920334D501200090CD
:1007300047484030026842F08052026045480268F3
:1007400042F4404202604248083002680260026897
:1007500042F400420260026842F4A0520260031FA9
:100760003D4A1A600A6842F080720A600A68920183
:10077000FCD53A4A40F205711160016821F003018D
:100780000160016841F0020101600168C1F381016B
:100790000229FAD10CBD00900CBD314810B501689A
:1007A00041F4700101602A48016841F001010160D3
:1007B000274A00210832116002682A4B1A40026061
:1007C000031D294A1A60026822F480220260204830
:1007D0000C300160FFF790FF21494FF00060803935
:1007E000086010BD70B51A4C083420681F4A10F01C
:1007F0000C011F4804D05510042903D0082903D048
:1008000002601BE0056019E01149091D0B68C3F384
:1008100080560B6803F03F0316B1B5FBF3F201E01D
:10082000B2FBF3F20B680968C3F388135A43C1F3B0
:100830000141491C4900B2FBF1F1016021680C4AF9
:10084000C1F30311121D515C0268CA40026070BD01
:10085000003802400070004008544007003C02404D
:1008600088ED00E0FFFFF6FE103000240024F400C5
:10087000000000201CB50121112007F062FD1C20A2
:10088000009000208DF8040001248DF8074069468F
:10089000284807F03DFB02208DF8070000946946C8
:1008A000254807F035FB1CBD70B5244D244E254C62
:1008B000012108B1297001E0287860B1D4F8100254
:1008C00070B1D4F80C0258B1D4F8080240B1D6F88F
:1008D0000002012804D0D4F8100201281BD026E021
:1008E0000A200AF0ADF800202870D4F8100250B1A8
:1008F000D4F80C0248B1D4F8080240B1D6F800028E
:10090000012806D013E0012070BD022070BD032035
:1009100070BD042070BDD4F80C02012807D1D4F8B2
:100920000802012803D1D6F8000200B9297000207E
:1009300070BD0000001002400000024014000020C2
:1009400000004042000042427CB50121202007F017
:10095000F8FC01208DF8040000208DF806008DF8C9
:1009600007000320134D4FF4C0648DF80500009478
:100970006946284607F0CCFA2146284607F042FB94
:100980007CBD10B500230C4A012438B1012804D1E4
:1009900069B1012901D1C2F8A83210BD21B10129E4
:1009A000FBD1C2F8A43210BDC2F8A44210BDC2F8F7
:1009B000A84210BD00140240008042427FB50D469F
:1009C00004460121022007F0DAFC00200194ADF872
:1009D0000050164CADF80200ADF8080069462046FC
:1009E00007F052FE01221146204608F0D6F90121F7
:1009F000204607F0C1FE1D208DF80C0001208DF867
:100A00000D0003218DF80E108DF80F0003A807F0DC
:100A1000C0F97FBD10B5054C0121204608F0D1F981
:100A20002046BDE81040012108F0D7B9000400407D
:100A300001B5BDF80000ADF80000BDF800004FF0B2
:100A4000D841A1F87E0008BD01B5BDF80000ADF8A1
:100A50000000BDF800004FF0D841A1F8800008BDAB
:100A600008B54FF0D840B0F88000ADF80000BDF8F0
:100A7000000008BD03B5BDF800104FF0D84020F8C5
:100A80007E1FBDF8041041800CBD01B5BDF800000B
:100A9000FFF7CEFF052009F0B4FFBDE80840DFE70F
:100AA000FE484FF0D8410089A1F87E0070474FF012
:100AB000D841A1F880007047C0F34511C20AC002B6
:100AC00000EB4110104480B27047401EC0B2FCD20F
:100AD0007047F0B5F14E02463346B0880C464FEAF7
:100AE000112C150A5B89A0F5134141391AD0A0F5E4
:100AF000A641103916D0B646B1793688A0F5D04750
:100B0000B61A761E043F18D07746A0F5C85EBEF12F
:100B1000630E27D0A0F5A04EBEF5A26E5CD00129D1
:100B200075D075E01846FFF783FF2846FFF78CFF66
:100B3000D0B2FFF789FFB0890DE07546012900D1D9
:100B4000B2B21846FFF774FF100AFFF77DFFD0B26C
:100B5000FFF77AFFA889FFF76BFF6046FFF774FF86
:100B6000E0B227E049B31846FFF762FF2846FFF7D7
:100B70006BFFD0B2FFF768FF3888401EC0F30F202C
:100B8000FFF762FF3878401E5FFA80F0FFF75CFFE6
:100B9000B889FFF74DFF6046FFF756FFE0B2FFF759
:100BA00053FF7888401EC0F30F20FFF74DFFB87841
:100BB000401EC0B2BDE8F04046E7B2B21846FFF7AB
:100BC00037FF0020FFF740FF0020FFF73DFF100A2E
:100BD000FFF73AFFD0B2D9E71846FFF729FF2846BA
:100BE000FFF732FF7889401C80B2FFF721FFD0B2B7
:100BF000FFF72AFFB889FFF71BFF6046FFF724FFC6
:100C0000B889401C80B2FFF713FFA9E7FFE7B2B233
:100C100011461846FFF72EFFB8892146BDE8F0407F
:100C200028E7FEB50022ADF80020ADF80420ADF8AD
:100C300008209A4C2288824202D962888A4201D8CE
:100C40000020FEBDFFF745FFA08849F2413241F682
:100C5000631745F2103545F21056904207D0A0F5C3
:100C6000D041043903D0A84201D0B84201D12E208E
:100C700005E0B04202D14FF4385000E02220FFF7E7
:100C8000D7FEA088A0F51341203903D10120401ED2
:100C9000C0B2FCD2FFF7E4FEADF80000A088B84275
:100CA0004CD00120401EC0B2FCD2FFF7D9FEADF8F7
:100CB0000000A088904203D0A84201D0B04214D1D5
:100CC0000120401EC0B2FCD2FFF7CAFEADF80800FA
:100CD000BDF80000C0B2ADF80400BDF804004FF646
:100CE000FF7101EA0020ADF80400A088A0F51341CF
:100CF000253923D0A0F58A4135391FD0A0F58A4186
:100D000031391BD0A0F53541053917D0A0F5454143
:100D1000053913D0904203D0A84201D0B04210D17F
:100D2000BDF80000BDF804106FF30A00890A40EA1C
:100D30004110BDF8081040EAD120FEBDBDF800000A
:100D4000FEBDBDF80000BDE8FE40B5E65348808812
:100D5000A0F51341413913D0A0F5D04104390FD08B
:100D6000A0F5A64110390BD0A0F5C851633907D0C2
:100D7000A0F5AA41103905D040F27311072079E699
:100D8000292001E04FF4245052E644488088A0F521
:100D90001341413912D0A0F5D04104390ED0A0F54D
:100DA000A64110390AD0A0F5C851633906D0A0F584
:100DB000AA41103904D0002107205BE6282001E079
:100DC0004FF4205034E6F0B5344D00242946AB7979
:100DD000898846F6040241F66317012B01D02BB136
:100DE0001DE091421BD0B94202D118E0B94216D1A0
:100DF000082814D2DFE800F00406080A0C0E1012CE
:100E000006200CE007200AE0042008E0052006E0A8
:100E1000012004E0002002E0032000E00220A1F510
:100E2000134C45F2103345F21056BCF1410C07D07B
:100E3000914205D0994203D0B14201D0B9427CD150
:100E4000082812D2DFE800F0110406080A0C0E1080
:100E500080240AE0402408E0C02406E0202404E0C6
:100E6000602402E0A02400E0E024B14202D14FF46B
:100E7000585000E03620994205D0B14203D0B94223
:100E800001D044F00804914201D144F0020421460B
:100E9000FFF7F0FDA988B9420DD001E0581A0020F3
:100EA000A00628886A8802D5904202D303E09042C7
:100EB00001D92A8068806889B14242D1FFF7B8FD24
:100EC0000020FFF7C1FD6889401C80B2FFF7B0FD2C
:100ED0000020FFF7B9FD6889801C80B2FFF7A8FDEC
:100EE0002888401EC0F30F20FFF7AEFD6889C01CA4
:100EF00080B2FFF79DFD2878401EC0B2FFF7A4FD29
:100F0000A889FFF795FD0020FFF79EFDA889401CEA
:100F100080B2FFF78DFD0020FFF796FDA889801CA9
:100F200080B2FFF785FD6888401EC0F30F20FFF7F1
:100F30008BFDA889C01C80B200E02AE0FFF778FD95
:100F400021E0FFF775FD0020FFF77EFD0020FFF791
:100F50007BFD2888401EC0F30F20FFF775FD287821
:100F6000401EC0B2FFF770FDA889FFF761FD0020A9
:100F7000FFF76AFD0020FFF767FD6888401EC0F399
:100F80000F20FFF761FDA878BDE8F040401EC0B219
:100F90005AE5082812D2DFE800F0040608110A0C0E
:100FA0000E1030240AE0102408E0202406E0382443
:100FB00004E0282402E0182400E0082444F48051CE
:100FC000BDE8F040032055E500B5FFF782FDFFF7CF
:100FD00067FDFE484FF0D8410088A1F8800000BDB1
:100FE0002DE9F041FA4C90460246A08823460D4672
:100FF0004FEA112C160A5B89A0F51341413917D02D
:10100000A0F5A641103913D0A0F5AA41103914D08B
:101010002646A0F5C857B1793688B61A761E633FC2
:1010200025D0A0F5D047043F3DD0012951D051E053
:101030001846FFF7FDFC30463CE01846FFF7F8FC89
:101040003046FFF701FD6089401C80B2FFF7F0FCDD
:10105000D0B2FFF7F9FCA089FFF7EAFC6046FFF782
:10106000F3FCA089401C80B2FFF7E2FC2DE001B93F
:10107000B2B21846FFF7DCFC160A3046FFF7E4FC74
:10108000D0B2FFF7E1FC3046FFF7DEFCD0B2FFF74D
:10109000DBFCA089FFF7CCFC6046FFF7D5FCE8B28B
:1010A000FFF7D2FC0EE0012900D1B2B21846FFF7DB
:1010B000BFFC100AFFF7C8FCD0B2FFF7C5FCA0893F
:1010C000FFF7B6FC6046FFF7BFFCE8B2FFF7BCFCD9
:1010D00008E0B2B211461846FFF7CCFCA0892946B9
:1010E000FFF7C8FC4FF0D8402189A0F87E10A0F887
:1010F0008080BDE8F08110B50246BE20FFF798FC65
:101100000520FFF7A1FC104622F0B2FF9FEDB11BB6
:1011100053EC112B22F0FCFF22F066FF80B2FFF7A8
:1011200093FC0120FFF790FCFF20FFF78DFC0020CF
:10113000FFF78AFCBDE81040002085E42DE9F04F60
:10114000A3492A242B25898845F2105A4FF4305B95
:101150004FF4285E4FF448764FF0F00C49F24139D5
:101160004FF4A07345F210374FF4F07280B19848F5
:101170004FF00108494580F806800380A0F802C0BE
:1011800001D0B9423ED12C2606814481858157E0A9
:101190008F484FF00008494580F80680A0F800C04D
:1011A000438006D0A1F5D04CBCF1040C01D0B9426B
:1011B0000CD12C2606814481A1F5D0448581043CC4
:1011C00001D0B94244D10380428041E0514507D16A
:1011D000A0F808B0A0F80AE04FF42C5181810EE08D
:1011E000A1F5C853633B06D0222101812021418112
:1011F000212181812CE02C21018145818481028083
:10120000468025E0A1F5D04CBCF1040C09D0514535
:101210000BD1A0F808B0A0F80AE04FF42C54848158
:1012200020E02C260681458109E0A1F5C85CBCF1CF
:10123000630C11D022240481212444812024848140
:10124000A1F5D044043C01D0B94201D102804380D1
:10125000BDE8F04F0020B6E54FF02C0CA0F808C018
:101260004481858106804280EAE72DE9FE4F0446ED
:10127000104401EB0308DFF85891401EA8F1010863
:1012800087B2B9F80400C8F3072302930B0A00934E
:10129000A3185B1EC3F3072301934B460D465B89DE
:1012A000A0F513411FFA88F64FEA142B413912D0EA
:1012B000A0F5A04CBCF5447C0DD0A0F5D04CBCF101
:1012C000040C08D099F806A041F6631CBAF1010F8E
:1012D0001ED160451CD14A461846FFF7A9FB584667
:1012E000FFF7B2FBE0B2FFF7AFFB0198FFF7ACFBF3
:1012F000F8B2FFF7A9FB9089FFF79AFB0098FFF778
:10130000A3FBE8B2FFF7A0FB0298FFF79DFB95E077
:101310002F496045098825D1881A001B84B24E46A2
:101320001FFA88F71846FFF783FB200AFFF78CFBAC
:10133000E0B2FFF789FB2244521EC2F30F20FFF7F1
:1013400083FBD0B2FFF780FBB089FFF771FB0098F9
:10135000FFF77AFBE8B2FFF777FB380AFFF774FB79
:10136000F8B26CE0A0F5A04C4A46BCF5A26C23D0C4
:10137000BAF1010F67D0BC4620462F4650220146E5
:101380004FF0510A4FF052094FF053081046FFF743
:1013900071FB61465046FFF76DFB39464846FFF743
:1013A00069FB31464046FFF765FB03B029462046FE
:1013B000BDE8F04FFFF78DBB1846FFF739FB5846E5
:1013C000FFF742FB5089401C80B207E01600002066
:1013D000581A00206666666666660440FFF728FBBA
:1013E000E0B2FFF731FB5089801C80B2FFF720FB91
:1013F0000198FFF729FB5089C01C80B2FFF718FB4A
:10140000F8B2FFF721FB9089FFF712FB0098FFF776
:101410001BFB9089401C80B2FFF70AFBE8B2FFF784
:1014200013FB9089801C80B2FFF702FB0298FFF744
:101430000BFB9089C01C80B2FFF7FAFAF0B2BDE84E
:10144000FE4FFFF701BBCA1B521E091BB446491EC3
:10145000284697B28EB291E72DE9F043FF4C8146C2
:101460000025208866884643A088A0F5D04104392D
:1014700002D1A079012808D000210846FFF729FBF6
:10148000FFF70EFB4FF0D84013E00020A0712A2791
:1014900067814FF02B08A4F80C800146FFF719FB79
:1014A0000120A071A4F80A80A781E9E7A0F8809044
:1014B0006D1CB542FAD3BDE8F0832DE9F04FA1B021
:1014C000002401217A20119406F03BFF01210846F7
:1014D00006F04BFF01208DF804008DF80640022035
:1014E0008DF8050001204FF4004B8DF80700CDF872
:1014F00000B06946DA4806F00BFD4CF233700090FC
:1015000002208DF804008DF8064003208DF80500B8
:1015100001208DF807006946D24806F0F9FC4FF625
:101520008070009002208DF804008DF806400320A2
:101530008DF805000120CC4D8DF80700694628463E
:1015400006F0E6FCA814009002208DF804008DF847
:10155000064003208DF805000120C44E8DF80700D9
:101560006946304606F0D4FCA814009002208DF89D
:1015700004008DF8064003208DF805000120BC4FC3
:101580008DF807006946384606F0C2FC0C2200219F
:10159000B44806F046FD0C220121B24806F041FD98
:1015A0000C220421AF4806F03CFD0C220521AD4879
:1015B00006F037FD0C220821AA4806F032FD0C2265
:1015C0000921A84806F02DFD0C220A21A54806F0A5
:1015D00028FD0C220E21A34806F023FD0C220F212A
:1015E000A04806F01EFD0C220721284606F019FD32
:1015F0000C220821284606F014FD0C220921284659
:1016000006F00FFD0C220A21284606F00AFD0C22E6
:101610000B21284606F005FD0C221146284606F04F
:1016200000FD0C220D21284606F0FBFC0C220E21A9
:10163000284606F0F6FC0C220F21284606F0F1FCA5
:101640000C221146304606F0ECFC0C2211463846BE
:1016500006F0E7FC0F20CDE912043C20CDE914048C
:101660000920CDE9184016940820CDE91A401794B6
:101670001C940620CDE902041D941E941020CDE98F
:1016800004401F9406940002CDE90A400894079490
:101690008000CDE90C40099412A8CDE90E4019A8AC
:1016A000109002A808F06CFB0121062008F0E1FB75
:1016B000322009F0C5F901210020FFF7DBF93220C3
:1016C00009F0BEF90020FFF7E0F9644A4FF0204925
:1016D0004FF6FF7A908049F2413545F2103645F2D7
:1016E000105441F6631746F60408FF2804D350450A
:1016F00002D0B0F5134F75D1D320FFF799F9FFF75A
:10170000AFF99080FFF7ACF99080FFF7A9F90AEAEA
:101710000020D4469080FFF7A3F991880843908079
:10172000A8425FD0BF20FFF783F9FFF799F99080B7
:10173000FFF796F99080FFF793F99080FFF790F903
:101740000CEA00209080FFF78BF991880843908085
:10175000404547D0D420FFF76BF9FFF781F990801F
:10176000FFF77EF99080FFF77BF90CEA002090806C
:10177000FFF776F9918808439080B04232D04FF459
:101780005A40FFF755F9FFF76BF990804FF45B4033
:10179000FFF74EF9FFF764F90CEA002090804FF450
:1017A0005C40FFF745F9FFF75BF9918808439080AB
:1017B000584501D194801EE0A04213D0A120FFF72C
:1017C00037F9FFF74DF99080FFF74AF90CEA00204E
:1017D0009080FFF745F991880843A0F5AE419080CD
:1017E000613920D080B2A84205D0B04203D0A042D7
:1017F00001D0B84219D1D9F81C11484621F00F0187
:10180000C9F81C11D9F81C1121F47061C9F81C1118
:10181000D9F81C1141F00301C9F81C11D9F81C11A9
:1018200041F400712CE09780E5E7404503D0A0F536
:101830004541053926D1D9F81C11484621F00F0140
:10184000C9F81C11D9F81C1121F47061C9F81C11D8
:10185000D9F81C1141F00A010CE00000581A0020D0
:1018600000040240000C024000100240001402403C
:1018700000180240C9F81C11D9F81C1141F440614C
:10188000C0F81C1191469188FEA01FF07DFBB9F8AD
:101890000400A8427ED1CF20FFF7CAF80020FFF74E
:1018A000D3F81198401C1190C120FFF7CDF83020DB
:1018B000FFF7CAF8ED20FFF7BBF86420FFF7C4F884
:1018C0000320FFF7C1F81220FFF7BEF88120FFF7D1
:1018D000BBF8E820FFF7ACF88520FFF7B5F810203B
:1018E000FFF7B2F87A20FFF7AFF8CB20FFF7A0F8A8
:1018F0003920FFF7A9F82C20FFF7A6F80020FFF702
:10190000A3F83420FFF7A0F80220FFF79DF8F72096
:10191000FFF78EF82020FFF797F8EA20FFF788F806
:101920000020FFF791F80020FFF78EF8C020FFF7A6
:101930007FF81B20FFF788F8C120FFF779F8012016
:10194000FFF782F8C520FFF773F83020FFF77CF827
:101950003020FFF779F8C720FFF76AF8B720FFF7C4
:1019600073F83620FFF764F84820FFF76DF83A2047
:10197000FFF75EF85520FFF767F8B120FFF758F83A
:101980000020FFF761F81A20FFF75EF8B620FFF796
:101990004FF800E093E00A20FFF756F8A220FFF787
:1019A00053F8F220FFF744F80020FFF74DF8262007
:1019B000FFF73EF80120FFF747F8E020FFF738F87F
:1019C0000F20FFF741F82A20FFF73EF82820FFF705
:1019D0003BF80820FFF738F80E20FFF735F808200D
:1019E000FFF732F85420FFF72FF8A920FFF72CF863
:1019F0004320FFF729F80A20FFF726F80F20FFF70A
:101A000023F80020FFF720F80020FFF71DF8002042
:101A1000FFF71AF80020FFF717F8E120FFF708F8A2
:101A20000020FFF711F81520FFF70EF81720FFF739
:101A30000BF80720FFF708F81120FFF705F806203C
:101A4000FFF702F82B20FEF7FFFF5620FEF7FCFF02
:101A50003C20FEF7F9FF0520FEF7F6FF1020FEF709
:101A6000F3FF0F20FEF7F0FF3F20FEF7EDFF3F20D2
:101A7000FEF7EAFF0F20FEF7E7FF2B20FEF7D8FF67
:101A80000020FEF7E1FF0020FEF7DEFF0120FEF759
:101A9000DBFF3F20FEF7D8FF2A20FEF7C9FF00201A
:101AA000FEF7D2FF0020FEF7CFFF0020FEF7CCFFAD
:101AB000EF20FEF7C9FF1120FEF7BAFFA5E0404571
:101AC0007ED11120FEF7B4FF142008F0B9FFD0201A
:101AD000FEF7AEFF0720FEF7B7FF4220FEF7B4FF88
:101AE0001D20FEF7B1FFD120FEF7A2FF0020FEF778
:101AF000ABFF1A20FEF7A8FF0920FEF7A5FFD220B2
:101B0000FEF796FF0120FEF79FFF2220FEF79CFFC5
:101B1000C020FEF78DFF1020FEF796FF3B20FEF75A
:101B200093FF0020FEF790FF0220FEF78DFF1120AB
:101B3000FEF78AFFC520FEF77BFF0320FEF784FF38
:101B4000C820FEF775FF0020FEF77EFF2520FEF778
:101B50007BFF2120FEF778FF0520FEF775FF0020B0
:101B6000FEF772FF0A20FEF76FFF6520FEF76CFF9D
:101B70002520FEF769FF7720FEF766FF5020FEF76D
:101B800063FF0F20FEF760FF0020FEF75DFFF820E7
:101B9000FEF74EFF0120FEF757FFFE20FEF748FF3D
:101BA0000020FEF751FF0220FEF74EFF2020FEF737
:101BB0003FFF3620FEF73CFF0820FEF745FF00E020
:101BC00029E03A20FEF734FF5520FEF73DFF2B2099
:101BD000FEF72EFF0020FEF737FF0020FEF734FF50
:101BE0000120FEF731FF3F20FEF72EFF2A20FEF7EF
:101BF0001FFF0020FEF728FF0020FEF725FF012031
:101C0000FEF722FFDF20FEF71FFF782008F018FF05
:101C1000292001F002BFB0427DD1ED20FEF708FF80
:101C20000120FEF711FFFE20FEF70EFFEE20FEF76B
:101C3000FFFEDE20FEF708FF2120FEF705FFF12062
:101C4000FEF7F6FE0120FEF7FFFEDF20FEF7F0FEB6
:101C50001020FEF7F9FEC420FEF7EAFE8F20FEF703
:101C6000F3FEC620FEF7E4FE0020FEF7EDFEE220C4
:101C7000FEF7EAFEE220FEF7E7FEE220FEF7E4FED2
:101C8000BF2005E04C43442049443A25780D0A0022
:101C9000FEF7CEFEAA20FEF7D7FEB020FEF7C8FE64
:101CA0000D20FEF7D1FE0020FEF7CEFE0D20FEF740
:101CB000CBFE0020FEF7C8FE1120FEF7C5FE002077
:101CC000FEF7C2FE1920FEF7BFFE0020FEF7BCFEA5
:101CD0002120FEF7B9FE0020FEF7B6FE2D20FEF70C
:101CE000B3FE0020FEF7B0FE3D20FEF7ADFE002063
:101CF000FEF7AAFE5D20FEF7A7FE0020FEF7A4FE79
:101D00005D20FEF7A1FE0020FEF79EFEB120FEF74B
:101D10008FFE802000E0FCE3FEF796FE0020FEF739
:101D200093FE8B20FEF790FE0020FEF78DFE96209E
:101D3000FEF78AFE0020FEF787FEB220FEF778FE4F
:101D40000020FEF781FE0020FEF77EFE0220FEF757
:101D50007BFE0020FEF778FE0320FEF775FE0020D4
:101D6000FEF772FEB320FEF763FE0020FEF76CFE66
:101D70000020FEF769FE0020FEF766FE0020FEF759
:101D800063FE0020FEF760FE0020FEF75DFE0020EF
:101D9000FEF75AFE0020FEF757FE0020FEF754FE25
:101DA0000020FEF751FE0020FEF74EFE0020FEF759
:101DB0004BFE0020FEF748FE0020FEF745FE002007
:101DC000FEF742FE0020FEF73FFE0020FEF73CFE3D
:101DD0000020FEF739FE0020FEF736FE0020FEF759
:101DE00033FE0020FEF730FE0020FEF72DFE00201F
:101DF000FEF72AFE0020FEF727FEB420FEF718FEAD
:101E00008B20FEF721FE0020FEF71EFE9620FEF737
:101E10001BFE0020FEF718FEA120FEF715FE002095
:101E2000FEF712FEB520FEF703FE0220FEF70CFEC1
:101E30000020FEF709FE0320FEF706FE0020FEF755
:101E400003FE0420FEF700FE0020FEF7FDFDB62095
:101E5000FEF7EEFD0020FEF7F7FD0020FEF7F4FD93
:101E6000B720FEF7E5FD0020FEF7EEFD0020FEF7AF
:101E7000EBFD3F20FEF7E8FD0020FEF7E5FD5E20CC
:101E8000FEF7E2FD0020FEF7DFFD6420FEF7DCFD3B
:101E90000020FEF7D9FD8C20FEF7D6FD0020FEF7CE
:101EA000D3FDAC20FEF7D0FD0020FEF7CDFDDC20F9
:101EB000FEF7CAFD0020FEF7C7FD7020FEF7C4FD47
:101EC0000020FEF7C1FD9020FEF7BEFD0020FEF7CA
:101ED000BBFDEB20FEF7B8FD0020FEF7B5FDDC20D2
:101EE000FEF7B2FD0020FEF7AFFDB820FEF7A0FD23
:101EF0000020FEF7A9FD0020FEF7A6FD0020FEF75A
:101F0000A3FD0020FEF7A0FD0020FEF79DFD0020B0
:101F1000FEF79AFD0020FEF797FD0020FEF794FDE6
:101F2000BA20FEF785FD2420FEF78EFD0020FEF787
:101F30008BFD0020FEF788FD0020FEF785FDC12007
:101F4000FEF776FD2020FEF77FFD0020FEF77CFDEA
:101F50005420FEF779FD0020FEF776FDFF20FEF706
:101F600073FD0020FEF770FDC220FEF761FD0A2020
:101F7000FEF76AFD0020FEF767FD0420FEF764FD12
:101F80000020FEF761FDC320FEF752FD3C20FEF766
:101F90005BFD0020FEF758FD3A20FEF755FD0020BE
:101FA000FEF752FD3920FEF74FFD0020FEF74CFDF5
:101FB0003720FEF749FD0020FEF746FD3C20FEF7E6
:101FC00043FD0020FEF740FD3620FEF73DFD0020DA
:101FD000FEF73AFD3220FEF737FD0020FEF734FD14
:101FE0002F20FEF731FD0020FEF72EFD2C20FEF7FE
:101FF0002BFD0020FEF728FD2920FEF725FD0020FF
:10200000FEF722FD2620FEF71FFD0020FEF71CFD37
:102010002420FEF719FD0020FEF716FD2420FEF710
:1020200013FD0020FEF710FD2320FEF70DFD00201C
:10203000FEF70AFD3C20FEF707FD0020FEF704FD39
:102040003620FEF701FD0020FEF7FEFC3220FEF7F1
:10205000FBFC0020FEF7F8FC2F20FEF7F5FC00202B
:10206000FEF7F2FC2C20FEF7EFFC0020FEF7ECFC64
:102070002920FEF7E9FC0020FEF7E6FC2620FEF70B
:10208000E3FC0020FEF7E0FC2420FEF7DDFC00204E
:10209000FEF7DAFC2420FEF7D7FC0020FEF7D4FC84
:1020A0002320FEF7D1FC0020FEF7CEFCC420FEF773
:1020B000BFFC6220FEF7C8FC0020FEF7C5FC05202F
:1020C000FEF7C2FC0020FEF7BFFC8420FEF7BCFC3C
:1020D0000020FEF7B9FCF020FEF7B6FC0020FEF76A
:1020E000B3FC1820FEF7B0FC0020FEF7ADFCA420E6
:1020F000FEF7AAFC0020FEF7A7FC1820FEF7A4FCC0
:102100000020FEF7A1FC5020FEF79EFC0020FEF709
:102110009BFC0C20FEF798FC0020FEF795FC172096
:10212000FEF792FC0020FEF78FFC9520FEF78CFC5A
:102130000020FEF789FCF320FEF786FC0020FEF766
:1021400083FCE620FEF780FC0020FEF77DFCC52026
:10215000FEF76EFC3220FEF777FC0020FEF774FCE1
:102160004420FEF771FC0020FEF76EFC6520FEF7B0
:102170006BFC0020FEF768FC7620FEF765FC002073
:10218000FEF762FC8820FEF75FFC0020FEF75CFC97
:10219000C620FEF74DFC2020FEF756FC0020FEF77F
:1021A00053FC1720FEF750FC0020FEF74DFC0120E9
:1021B000FEF74AFC0020FEF747FCC720FEF738FC7C
:1021C0000020FEF741FC0020FEF73EFC0020FEF759
:1021D0003BFC0020FEF738FCC820FEF729FC00205D
:1021E000FEF732FC0020FEF72FFC0020FEF72CFC4F
:1021F0000020FEF729FCC920FEF71AFC0020FEF79C
:1022000023FC0020FEF720FC0020FEF71DFC002030
:10221000FEF71AFC0020FEF717FC0020FEF714FC66
:102220000020FEF711FC0020FEF70EFC0020FEF758
:102230000BFC0020FEF708FC0020FEF705FC002048
:10224000FEF702FC0020FEF7FFFB0020FEF7FCFB80
:102250000020FEF7F9FB0020FEF7F6FBE020FEF77A
:10226000E7FB1620FEF7F0FB0020FEF7EDFB1C203D
:10227000FEF7EAFB0020FEF7E7FB2120FEF7E4FB78
:102280000020FEF7E1FB3620FEF7DEFB0020FEF724
:10229000DBFB4620FEF7D8FB0020FEF7D5FB5220E3
:1022A000FEF7D2FB0020FEF7CFFB6420FEF7CCFB4D
:1022B0000020FEF7C9FB7A20FEF7C6FB0020FEF7E0
:1022C000C3FB8B20FEF7C0FB0020FEF7BDFB99206F
:1022D000FEF7BAFB0020FEF7B7FBA820FEF7B4FB21
:1022E0000020FEF7B1FBB920FEF7AEFB0020FEF7A1
:1022F000ABFBC420FEF7A8FB0020FEF7A5FBCA201D
:10230000FEF7A2FB0020FEF79FFBD220FEF79CFB0E
:102310000020FEF799FBD920FEF796FB0020FEF780
:1023200093FBE020FEF790FB0020FEF78DFBF320EF
:10233000FEF78AFB0020FEF787FBE120FEF778FB23
:102340001620FEF781FB0020FEF77EFB1C20FEF727
:102350007BFB0020FEF778FB2220FEF775FB0020B8
:10236000FEF772FB3620FEF76FFB0020FEF76CFBDA
:102370004520FEF769FB0020FEF766FB5220FEF7C2
:1023800063FB0020FEF760FB6420FEF75DFB00208E
:10239000FEF75AFB7A20FEF757FB0020FEF754FBAE
:1023A0008B20FEF751FB0020FEF74EFB9920FEF735
:1023B0004BFB0020FEF748FBA820FEF745FB002062
:1023C000FEF742FBB920FEF73FFB0020FEF73CFB87
:1023D000C420FEF739FB0020FEF736FBCA20FEF7CB
:1023E00033FB0020FEF730FBD220FEF72DFB002050
:1023F000FEF72AFBD820FEF727FB0020FEF724FB80
:10240000E020FEF721FB0020FEF71EFBF320FEF785
:102410001BFB0020FEF718FBE220FEF709FB05205E
:10242000FEF712FB0020FEF70FFB0B20FEF70CFB64
:102430000020FEF709FB1B20FEF706FB0020FEF73D
:1024400003FB3420FEF700FB0020FEF7FDFA4420DA
:10245000FEF7FAFA0020FEF7F7FA4F20FEF7F4FA3B
:102460000020FEF7F1FA6120FEF7EEFA0020FEF7F9
:10247000EBFA7920FEF7E8FA0020FEF7E5FA88206B
:10248000FEF7E2FA0020FEF7DFFA9720FEF7DCFA0B
:102490000020FEF7D9FAA620FEF7D6FA0020FEF7B4
:1024A000D3FAB720FEF7D0FA0020FEF7CDFAC2200B
:1024B000FEF7CAFA0020FEF7C7FAC720FEF7C4FAF3
:1024C0000020FEF7C1FAD120FEF7BEFA0020FEF789
:1024D000BBFAD620FEF7B8FA0020FEF7B5FADD20E9
:1024E000FEF7B2FA0020FEF7AFFAF320FEF7ACFADF
:1024F0000020FEF7A9FAE320FEF79AFA0520FEF77E
:10250000A3FA0020FEF7A0FA0A20FEF79DFA0020A9
:1025100000E003E3FEF798FA1C20FEF795FA00208E
:10252000FEF792FA3320FEF78FFA0020FEF78CFABE
:102530004420FEF789FA0020FEF786FA5020FEF7C5
:1025400083FA0020FEF780FA6220FEF77DFA002071
:10255000FEF77AFA7820FEF777FA0020FEF774FA91
:102560008820FEF771FA0020FEF76EFA9720FEF73A
:102570006BFA0020FEF768FAA620FEF765FA002045
:10258000FEF762FAB720FEF75FFA0020FEF75CFA6A
:10259000C220FEF759FA0020FEF756FAC720FEF7D0
:1025A00053FA0020FEF750FAD120FEF74DFA002032
:1025B000FEF74AFAD520FEF747FA0020FEF744FA64
:1025C000DD20FEF741FA0020FEF73EFAF320FEF789
:1025D0003BFA0020FEF738FAE420FEF729FA012042
:1025E000FEF732FA0020FEF72FFA0120FEF72CFA50
:1025F0000020FEF729FA0220FEF726FA0020FEF757
:1026000023FA2A20FEF720FA0020FEF71DFA3C20CC
:10261000FEF71AFA0020FEF717FA4B20FEF714FA1D
:102620000020FEF711FA5D20FEF70EFA0020FEF7FB
:102630000BFA7420FEF708FA0020FEF705FA842052
:10264000FEF702FA0020FEF7FFF99320FEF7FCF9EF
:102650000020FEF7F9F9A220FEF7F6F90020FEF7B8
:10266000F3F9B320FEF7F0F90020FEF7EDF9BE20F4
:10267000FEF7EAF90020FEF7E7F9C420FEF7E4F9D7
:102680000020FEF7E1F9CD20FEF7DEF90020FEF78D
:10269000DBF9D320FEF7D8F90020FEF7D5F9DD20CD
:1026A000FEF7D2F90020FEF7CFF9F320FEF7CCF9C0
:1026B0000020FEF7C9F9E520FEF7BAF90020FEF781
:1026C000C3F90020FEF7C0F90020FEF7BDF9002095
:1026D000FEF7BAF90220FEF7B7F90020FEF7B4F9C9
:1026E0002920FEF7B1F90020FEF7AEF93C20FEF7F5
:1026F000ABF90020FEF7A8F94B20FEF7A5F9002062
:10270000FEF7A2F95D20FEF79FF90020FEF79CF985
:102710007420FEF799F90020FEF796F98420FEF761
:1027200093F90020FEF790F99320FEF78DF9002031
:10273000FEF78AF9A220FEF787F90020FEF784F958
:10274000B320FEF781F90020FEF77EF9BE20FEF7E8
:102750007BF90020FEF778F9C420FEF775F9002018
:10276000FEF772F9CD20FEF76FF90020FEF76CF945
:10277000D320FEF769F90020FEF766F9DC20FEF7AA
:1027800063F90020FEF760F9F320FEF75DF9002001
:10279000FEF75AF9E620FEF74BF91120FEF754F93F
:1027A0000020FEF751F93420FEF74EF90020FEF725
:1027B0004BF95620FEF748F90020FEF745F9762040
:1027C000FEF742F90020FEF73FF97720FEF73CF9CB
:1027D0000020FEF739F96620FEF736F90020FEF7F3
:1027E00033F98820FEF730F90020FEF72DF9992003
:1027F000FEF72AF90020FEF727F9BB20FEF724F99F
:102800000020FEF721F99920FEF71EF90020FEF7BF
:102810001BF96620FEF718F90020FEF715F9552080
:10282000FEF712F90020FEF70FF95520FEF70CF91C
:102830000020FEF709F94520FEF706F90020FEF713
:1028400003F94320FEF700F90020FEF7FDF84420CD
:10285000FEF7FAF80020FEF7F7F8E720FEF7E8F8B1
:102860003220FEF7F1F80020FEF7EEF85520FEF7D3
:10287000EBF80020FEF7E8F87620FEF7E5F80020F8
:10288000FEF7E2F86620FEF7DFF80020FEF7DCF83E
:102890006720FEF7D9F80020FEF7D6F86720FEF78C
:1028A000D3F80020FEF7D0F88720FEF7CDF80020FF
:1028B000FEF7CAF89920FEF7C7F80020FEF7C4F823
:1028C000BB20FEF7C1F80020FEF7BEF89920FEF706
:1028D000BBF80020FEF7B8F87720FEF7B5F8002027
:1028E000FEF7B2F84420FEF7AFF80020FEF7ACF890
:1028F0005620FEF7A9F80020FEF7A6F82320FEF7E1
:10290000A3F80020FEF7A0F83320FEF79DF8002082
:10291000FEF79AF84520FEF797F80020FEF794F8A6
:10292000E820FEF785F80020FEF78EF80020FEF77D
:102930008BF89920FEF788F80020FEF785F88720AD
:10294000FEF782F80020FEF77FF88820FEF77CF87B
:102950000020FEF779F87720FEF776F80020FEF7E2
:1029600073F86620FEF770F80020FEF76DF88820F7
:10297000FEF76AF80020FEF767F8AA20FEF764F871
:102980000020FEF761F8BB20FEF75EF80020FEF79E
:102990005BF89920FEF758F80020FEF755F86620FE
:1029A000FEF752F80020FEF74FF85520FEF74CF8DE
:1029B0000020FEF749F85520FEF746F80020FEF704
:1029C00043F84420FEF740F80020FEF73DF844208D
:1029D000FEF73AF80020FEF737F85520FEF734F8F6
:1029E0000020FEF731F8E920FEF722F8AA20FEF7D2
:1029F0002BF80020FEF728F80020FEF725F800202D
:102A0000FEF722F80020FEF713F8AA20FEF71CF8C4
:102A1000CF20FEF70DF80020FEF716F80020FEF795
:102A200013F80020FEF710F80020FEF70DF8002044
:102A3000FEF70AF80020FEF707F80020FEF704F87A
:102A40000020FEF701F80020FDF7FEFF0020FDF753
:102A5000FBFF0020FDF7F8FF0020FDF7F5FF002049
:102A6000FDF7F2FF0020FDF7EFFF0020FDF7ECFF80
:102A70000020FDF7E9FF0020FDF7E6FFF020FDF75D
:102A8000D7FF0020FDF7E0FF5020FDF7DDFF00201D
:102A9000FDF7DAFF0020FDF7D7FF0020FDF7D4FF98
:102AA000F320FDF7C5FF0020FDF7CEFFF920FDF76D
:102AB000BFFF0620FDF7C8FF1020FDF7C5FF292046
:102AC000FDF7C2FF0020FDF7BFFF3A20FDF7B0FF82
:102AD0005520FDF7B9FF1120FDF7AAFF642007F08C
:102AE000AFFF2920FDF7A4FF3520FDF7A1FF00204F
:102AF000FDF7AAFF5120FDF79BFFFF20FDF7A4FF84
:102B00005320FDF795FF2C20FDF79EFF5520FDF784
:102B10008FFF8220FDF798FF2C20FCE3A0427DD19F
:102B20004FF4704455212046FDF7A4FF651CAA21EF
:102B30002846FDF79FFFA61C52213046FDF79AFF5D
:102B4000E71C08213846FDF795FF4FF2040C0121E0
:102B50006046FDF78FFF0D214FF43040FDF78AFFEF
:102B60000D214BF20100FDF785FF0D214BF2020014
:102B7000FDF780FF4FF4364834214046FDF77AFFD9
:102B800034214BF20160FDF775FF34214BF20260F6
:102B9000FDF770FF4FF431490D214846FDF76AFFFC
:102BA0004BF2011B0D215846FDF764FF0D214BF23E
:102BB0000210FDF75FFF34214FF43740FDF75AFF55
:102BC00034214BF20170FDF755FF34214BF20270B6
:102BD000FDF750FF00214FF43240FDF74BFF00217D
:102BE0004BF20120FDF746FF00214BF20220FDF7DA
:102BF00041FF24214FF43840FDF73CFF24214BF6E0
:102C00000100FDF737FF24214BF60200FDF732FFEC
:102C100001214FF43F40FDF72DFF00E0FEE30F21BF
:102C20004FF43340FDF726FF0F214BF20130FDF743
:102C300021FF0F214BF20230FDF71CFF34214FF42E
:102C40003940FDF717FF34214BF60110FDF712FF55
:102C500034214BF60210FDF70DFF08214FF43540EB
:102C6000FDF708FF08214BF20150FDF703FF082193
:102C70004BF20250FDF7FEFE03214FF44240FDF7F8
:102C8000F9FE24214FF43A40FDF7F4FE24214BF6DF
:102C90000120FDF7EFFE24214BF60220FDF7EAFEAE
:102CA00000214FF43C40FDF7E5FE78214BF6014052
:102CB000FDF7E0FE00214BF60240FDF7DBFE0021B0
:102CC0004FF43D40FDF7D6FE78214BF60150FDF75D
:102CD000D1FE00214BF60250FDF7CCFE00214FF44F
:102CE0003E40FDF7C7FE64214BF60160FDF7C2FED2
:102CF00000214FF45140FDF7BDFE33214DF201108C
:102D0000FDF7B8FE00214DF20210FDF7B3FE3421AD
:102D10004DF20310FDF7AEFE00214DF20410FDF759
:102D2000A9FE3A214DF20510FDF7A4FE00214DF257
:102D30000610FDF79FFE4A214DF20710FDF79AFE9F
:102D400000214DF20810FDF795FE5C214DF20910AF
:102D5000FDF790FE00214DF20A10FDF78BFE812158
:102D60004DF20B10FDF786FE00214DF20C10FDF721
:102D700081FEA6214DF20D10FDF77CFE00214DF2E3
:102D80000E10FDF777FEE5214DF20F10FDF772FEF4
:102D900001214DF21010FDF76DFE13214DF21110BF
:102DA000FDF768FE01214DF21210FDF763FE54217C
:102DB0004DF21310FDF75EFE01214DF21410FDF7E8
:102DC00059FE82214DF21510FDF754FE01214DF2FE
:102DD0001610FDF74FFECA214DF21710FDF74AFEFF
:102DE00002214DF21810FDF745FE00214DF2191099
:102DF000FDF740FE02214DF21A10FDF73BFE0121C6
:102E00004DF21B10FDF736FE02214DF21C10FDF7AE
:102E100031FE34214DF21D10FDF72CFE02214DF242
:102E20001E10FDF727FE67214DF21F10FDF722FE51
:102E300002214DF22010FDF71DFE84214DF22110DC
:102E4000FDF718FE02214DF22210FDF713FEA4211A
:102E50004DF22310FDF70EFE02214DF22410FDF776
:102E600009FEB7214DF22510FDF704FE02214DF2B7
:102E70002610FDF7FFFDCF214DF22710FDF7FAFDDB
:102E800002214DF22810FDF7F5FDDE214DF229104B
:102E9000FDF7F0FD02214DF22A10FDF7EBFDF221C6
:102EA0004DF22B10FDF7E6FD02214DF22C10FDF73F
:102EB000E1FDFE214DF22D10FDF7DCFD03214DF269
:102EC0002E10FDF7D7FD10214DF22F10FDF7D2FD8A
:102ED00003214DF23010FDF7CDFD33214DF23110BD
:102EE000FDF7C8FD03214DF23210FDF7C3FD6D2142
:102EF0004DF23310FDF7BEFD00214FF45240FDF7B7
:102F0000B9FD33214DF20120FDF7B4FD00214DF252
:102F10000220FDF7AFFD34214DF20320FDF7AAFD9D
:102F200000214DF20420FDF7A5FD3A214DF20520C8
:102F3000FDF7A0FD00214DF20620FDF79BFD4A2183
:102F40004DF20720FDF796FD00214DF20820FDF718
:102F500091FD5C214DF20920FDF78CFD00214DF221
:102F60000A20FDF787FD81214DF20B20FDF782FD40
:102F700000214DF20C20FDF77DFDA6214DF20D2024
:102F8000FDF778FD00214DF20E20FDF773FDE521E0
:102F90004DF20F20FDF76EFD01214DF21020FDF7DF
:102FA00069FD13214DF21120FDF764FD01214DF261
:102FB0001220FDF75FFD54214DF21320FDF75AFD5D
:102FC00001214DF21420FDF755FD82214DF215200F
:102FD000FDF750FD01214DF21620FDF74BFDCA21F2
:102FE0004DF21720FDF746FD02214DF21820FDF7A6
:102FF00041FD00214DF21920FDF73CFD02214DF26B
:103000001A20FDF737FD01214DF21B20FDF732FD9F
:1030100002214DF21C20FDF72DFD34214DF21D2023
:10302000FDF728FD02214DF21E20FDF723FD67214B
:103030004DF21F20FDF71EFD02214DF22020FDF76D
:1030400019FD84214DF22120FDF714FD02214DF2DE
:103050002220FDF70FFDA4214DF22320FDF70AFDEC
:1030600002214DF22420FDF705FDB7214DF2252068
:10307000FDF700FD02214DF22620FDF7FBFCCF21DC
:103080004DF22720FDF7F6FC02214DF22820FDF736
:10309000F1FCDE214DF22920FDF7ECFC02214DF27E
:1030A0002A20FDF7E7FCF2214DF22B20FDF7E2FC90
:1030B00002214DF22C20FDF7DDFCFE214DF22D20EA
:1030C000FDF7D8FC03214DF22E20FDF7D3FC102193
:1030D0004DF22F20FDF7CEFC03214DF23020FDF7FD
:1030E000C9FC33214DF23120FDF7C4FC03214DF220
:1030F0003220FDF7BFFC6D214DF23320FDF7BAFC05
:1031000000214FF45340FDF7B5FC33214DF201305F
:10311000FDF7B0FC00214DF20230FDF7ABFC34218D
:103120004DF20330FDF7A6FC00214DF20430FDF70F
:10313000A1FC3A214DF20530FDF79CFC00214DF237
:103140000630FDF797FC4A214DF20730FDF792FC5F
:1031500000214DF20830FDF78DFC5C214DF2093065
:10316000FDF788FC00214DF20A30FDF783FC812138
:103170004DF20B30FDF77EFC00214DF20C30FDF7D7
:1031800079FCA6214DF20D30FDF774FC00214DF2C3
:103190000E30FDF76FFCE5214DF20F30FDF76AFCB4
:1031A00001214DF21030FDF765FC13214DF2113075
:1031B000FDF760FC01214DF21230FDF75BFC54215C
:1031C0004DF21330FDF756FC01214DF21430FDF79E
:1031D00051FC82214DF21530FDF74CFC01214DF2DE
:1031E0001630FDF747FCCA214DF21730FDF742FCBF
:1031F00002214DF21830FDF73DFC00214DF219304F
:10320000FDF738FC02214DF21A30FDF733FC0121A5
:103210004DF21B30FDF72EFC02214DF21C30FDF764
:1032200029FC34214DF21D30FDF724FC02214DF222
:103230001E30FDF71FFC67214DF21F30FDF71AFC11
:1032400002214DF22030FDF715FC84214DF2213092
:10325000FDF710FC02214DF22230FDF70BFCA421FA
:103260004DF22330FDF706FC02214DF22430FDF72C
:1032700001FCB7214DF22530FDF7FCFB02214DF298
:103280002630FDF7F7FBCF214DF22730FDF7F2FB9B
:1032900002214DF22830FDF7EDFBDE214DF2293001
:1032A000FDF7E8FB02214DF22A30FDF7E3FBF221A6
:1032B0004DF22B30FDF7DEFB02214DF22C30FDF7F5
:1032C000D9FBFE214DF22D30FDF7D4FB03214DF249
:1032D0002E30FDF7CFFB10214DF22F30FDF7CAFB4A
:1032E00003214DF23030FDF7C5FB33214DF2313073
:1032F000FDF7C0FB03214DF23230FDF7BBFB6D2122
:103300004DF23330FDF7B6FB00214FF45440FDF78A
:10331000B1FB332100E080E34DF20140FDF7AAFB51
:1033200000214DF20240FDF7A5FB34214DF2034090
:10333000FDF7A0FB00214DF20440FDF79BFB3A2175
:103340004DF20540FDF796FB00214DF20640FDF7DA
:1033500091FB4A214DF20740FDF78CFB00214DF215
:103360000840FDF787FB5C214DF20940FDF782FB29
:1033700000214DF20A40FDF77DFB81214DF20B400B
:10338000FDF778FB00214DF20C40FDF773FBA62101
:103390004DF20D40FDF76EFB00214DF20E40FDF7A2
:1033A00069FBE5214DF20F40FDF764FB01214DF271
:1033B0001040FDF75FFB13214DF21140FDF75AFB62
:1033C00001214DF21240FDF755FB54214DF21340FF
:1033D000FDF750FB01214DF21440FDF74BFB82211C
:1033E0004DF21540FDF746FB01214DF21640FDF769
:1033F00041FBCA214DF21740FDF73CFB02214DF283
:103400001840FDF737FB00214DF21940FDF732FB64
:1034100002214DF21A40FDF72DFB00E000E30121EF
:103420004DF21B40FDF726FB02214DF21C40FDF73B
:1034300021FB34214DF21D40FDF71CFB02214DF212
:103440001E40FDF717FB67214DF21F40FDF712FBF1
:1034500002214DF22040FDF70DFB84214DF2214069
:10346000FDF708FB02214DF22240FDF703FBA421EA
:103470004DF22340FDF7FEFA02214DF22440FDF704
:10348000F9FAB7214DF22540FDF7F4FA02214DF289
:103490002640FDF7EFFACF214DF22740FDF7EAFA7B
:1034A00002214DF22840FDF7E5FADE214DF22940D8
:1034B000FDF7E0FA02214DF22A40FDF7DBFAF22196
:1034C0004DF22B40FDF7D6FA02214DF22C40FDF7CC
:1034D000D1FAFE214DF22D40FDF7CCFA03214DF239
:1034E0002E40FDF7C7FA10214DF22F40FDF7C2FA2A
:1034F00003214DF23040FDF7BDFA33214DF231404A
:10350000FDF7B8FA03214DF23240FDF7B3FA6D2111
:103510004DF23340FDF7AEFA00214FF45540FDF770
:10352000A9FA33214DF20150FDF7A4FA00214DF222
:103530000250FDF79FFA34214DF20350FDF79AFA3D
:1035400000214DF20450FDF795FA3A214DF2055055
:10355000FDF790FA00214DF20650FDF78BFA4A2153
:103560004DF20750FDF786FA00214DF20850FDF7A5
:1035700081FA5C214DF20950FDF77CFA00214DF2F1
:103580000A50FDF777FA81214DF20B50FDF772FAE0
:1035900000214DF20C50FDF76DFAA6214DF20D50B1
:1035A000FDF768FA00214DF20E50FDF763FAE521B0
:1035B0004DF20F50FDF75EFA01214DF21050FDF76C
:1035C00059FA13214DF21150FDF754FA01214DF231
:1035D0001250FDF74FFA54214DF21350FDF74AFAFD
:1035E00001214DF21450FDF745FA82214DF215509C
:1035F000FDF740FA01214DF21650FDF73BFACA21C2
:103600004DF21750FDF736FA02214DF21850FDF732
:1036100031FA00214DF21950FDF72CFA02214DF23A
:103620001A50FDF727FA01214DF21B50FDF722FA3F
:1036300002214DF21C50FDF71DFA34214DF21D50B0
:10364000FDF718FA02214DF21E50FDF713FA67211B
:103650004DF21F50FDF70EFA02214DF22050FDF7FA
:1036600009FA84214DF22150FDF704FA02214DF2AE
:103670002250FDF7FFF9A4214DF22350FDF7FAF98E
:1036800002214DF22450FDF7F5F9B7214DF22550F6
:10369000FDF7F0F902214DF22650FDF7EBF9CF21AD
:1036A0004DF22750FDF7E6F902214DF22850FDF7C3
:1036B000E1F9DE214DF22950FDF7DCF902214DF24E
:1036C0002A50FDF7D7F9F2214DF22B50FDF7D2F930
:1036D00002214DF22C50FDF7CDF9FE214DF22D5077
:1036E000FDF7C8F903214DF22E50FDF7C3F9102163
:1036F0004DF22F50FDF7BEF903214DF23050FDF78A
:10370000B9F933214DF23150FDF7B4F903214DF2EF
:103710003250FDF7AFF96D214DF23350FDF7AAF9A4
:1037200000214FF45640FDF7A5F933214DF2016019
:10373000FDF7A0F900214DF20260FDF79BF934215D
:103740004DF20360FDF796F900214DF20460FDF79C
:1037500091F93A214DF20560FDF78CF900214DF207
:103760000660FDF787F94A214DF20760FDF782F9FF
:1037700000214DF20860FDF77DF95C214DF20960F2
:10378000FDF778F900214DF20A60FDF773F9812108
:103790004DF20B60FDF76EF900214DF20C60FDF764
:1037A00069F9A6214DF20D60FDF764F900214DF293
:1037B0000E60FDF75FF9E5214DF20F60FDF75AF954
:1037C00001214DF21060FDF755F913214DF2116002
:1037D000FDF750F901214DF21260FDF74BF954212C
:1037E0004DF21360FDF746F901214DF21460FDF72B
:1037F00041F982214DF21560FDF73CF901214DF2AE
:103800001660FDF737F9CA214DF21760FDF732F95E
:1038100002214DF21860FDF72DF900214DF21960DB
:10382000FDF728F902214DF21A60FDF723F9012175
:103830004DF21B60FDF71EF902214DF21C60FDF7F1
:1038400019F934214DF21D60FDF714F902214DF2F2
:103850001E60FDF70FF967214DF21F60FDF70AF9B1
:1038600002214DF22060FDF705F984214DF221601F
:10387000FDF700F902214DF22260FDF7FBF8A421CB
:103880004DF22360FDF7F6F802214DF22460FDF7BA
:10389000F1F8B7214DF22560FDF7ECF802214DF269
:1038A0002660FDF7E7F8CF214DF22760FDF7E2F83B
:1038B00002214DF22860FDF7DDF8DE214DF229608E
:1038C000FDF7D8F802214DF22A60FDF7D3F8F22176
:1038D0004DF22B60FDF7CEF802214DF22C60FDF782
:1038E000C9F8FE214DF22D60FDF7C4F803214DF219
:1038F0002E60FDF7BFF810214DF22F60FDF7BAF8EA
:1039000003214DF23060FDF7B5F833214DF23160FF
:10391000FDF7B0F803214DF23260FDF7ABF86D21F1
:103920004DF23360FDF7A6F855212046FDF7A2F8C9
:10393000AA212846FDF79EF852213046FDF79AF855
:1039400008213846FDF796F800216046FDF792F809
:10395000CC214846FDF78EF800215846FDF78AF83D
:1039600005214046FDF786F870214FF43740FDF7FA
:1039700081F870214BF20170FDF77CF801214FF4C2
:103980003840FDF777F803214BF60100FDF772F898
:1039900003214BF60200FDF76DF803214BF60300FF
:1039A000FDF768F802214FF43C40FDF763F8002171
:1039B0004BF60140FDF75EF800214BF60240FDF7A3
:1039C00059F8D0214FF44940FDF754F802214CF644
:1039D0000110FDF74FF850214CF60210FDF74AF8A0
:1039E00050214CF60310FDF745F850214CF6041019
:1039F000FDF740F800214FF45450FDF73BF85521F6
:103A00004FF46850FDF736F84FF48850FDF710F882
:103A1000782006F0F6FF4FF42450FDF709F8FDE09A
:103A2000A0F513414FF480744FF4E06940F2022B8B
:103A30004FF4274625397CD0A0F5134140F2077595
:103A4000283977D0A0F513414FF488764FF41C58ED
:103A5000203970D0A0F5134131396DD0A0F5A841BF
:103A600008396AD0A0F5A8514FF44076053965D0E1
:103A7000A0F5354105397CD0A0F54541053979D00F
:103A8000A0F58A41313976D0A0F58A41353973D015
:103A9000B842C4D1E220FCF7CBFF1D20FCF7D4FFD5
:103AA0000220FCF7D1FF0420FCF7CEFF642006F0D3
:103AB000A8FFE020FCF7BCFF0120FCF7C5FF0A20AF
:103AC00006F0BEFFE020FCF7B3FF0320FCF7BCFFCD
:103AD0000C2006F0B5FF0120FCF7AAFF0A2006F033
:103AE000AFFFE620FCF7A4FF2F20FCF7ADFFFF207F
:103AF000FCF7AAFFFF20FCF7A7FFB020FCF798FF18
:103B00002020FCF7A1FF0020FCF79EFF0320FCF71C
:103B10009BFF40F21F30FCF797FF0120FCF794FF5A
:103B200040F2DF10FCF790FF0020FCF78DFFB4207F
:103B300005E080E04BE107E2AEE283E3FEE3FCF761
:103B400077FF0420FCF780FF40F21F40FCF77CFF6A
:103B50000020FCF779FF2E20FCF776FF1D20FCF7F4
:103B600073FF0020FCF770FF0020FCF76DFF0020C2
:103B700003E0FDE3FDE3FDE3FDE3FCF765FFB620B5
:103B8000FCF756FF0220FCF75FFF4FF40370FCF7D1
:103B90005BFF0020FCF758FF1720FCF755FF1520AE
:103BA000FCF752FF0020FCF74FFF0020FCF74CFF12
:103BB000F020FCF73DFF0320FCF746FF2920FCF72F
:103BC00037FFD020FCF734FF0020FCF73DFFBE207C
:103BD000FCF72EFF0520FCF737FFFE20FCF734FF33
:103BE0000120FCF731FF0020FCF72EFF0020FCF73E
:103BF0002BFF0020FCF728FFB820FCF719FF03205B
:103C0000FCF722FF0120FCF71FFFBA20FCF710FF92
:103C10000120FCF719FF6420FDF76DFA0020FDF785
:103C20008DFAFF490120C1F8BC025046FDF714FC93
:103C300021B0BDE8F08F47F6F001E520FCF71AFF50
:103C400021460120FCF716FF49460220FCF712FF2F
:103C500041F230010320FCF70DFF00210420FCF7A6
:103C600009FF59460820FCF705FF00210920FCF751
:103C700001FF00210A20FCF7FDFE00210C20FCF7CB
:103C8000F9FE00210D20FCF7F5FE00210F20FCF7C6
:103C9000F1FE00211020FCF7EDFE07211120FCF7BA
:103CA000E9FE00211220FCF7E5FE00211320FCF7BD
:103CB000E1FE00210720FCF7DDFE41F290611020BB
:103CC000FCF7D8FE40F227211120FCF7D3FE9D21FE
:103CD0001220FCF7CFFE4FF4C8511320FCF7CAFEA8
:103CE00025212920FCF7C6FE0D212B20FCF7C2FE62
:103CF00007213020FCF7BEFE40F203313120FCF7F3
:103D0000B9FE03213220FCF7B5FE40F20621352032
:103D1000FCF7B0FE08213620FCF7ACFE40F206416D
:103D20003720FCF7A7FE4FF441713820FCF7A2FEC4
:103D300007213920FCF79EFE40F202613C20FCF78F
:103D400099FE08213D20FCF795FE00215020FCF74C
:103D500091FEEF215120FCF78DFE00215220FCF74F
:103D600089FE40F23F115320FCF784FE314660206B
:103D7000FCF780FE01216120FCF77CFE00216A2017
:103D8000FCF778FE00218020FCF774FE00218120E2
:103D9000FCF770FE00218220FCF76CFE00218320DE
:103DA000FCF768FE00218420FCF764FE00218520DA
:103DB000FCF760FE10219020FCF75CFE4FF4C06120
:103DC0009220FCF757FE40F233110720FDE341F249
:103DD0008F01EC20FCF74EFE41F23421EF20FCF77E
:103DE00049FE21460120FCF745FE49460220FCF72A
:103DF00041FE41F230010320FCF73CFE002104208B
:103E0000FCF738FE59460820FCF734FE0021092053
:103E1000FCF730FE00210A20FCF72CFE01210C20CB
:103E2000FCF728FE00210D20FCF724FE00210F20C6
:103E3000FCF720FE00211020FCF71CFE07211120BA
:103E4000FCF718FE00211220FCF714FE00211320BD
:103E5000FCF710FE01210720FCF70CFE322006F0D3
:103E6000EFFD41F290411020FCF704FE40F22721C3
:103E70001120FCF7FFFD322006F0E2FD8A2112201E
:103E8000FCF7F8FD322006F0DBFD4FF4D051132093
:103E9000FCF7F0FD06212920FCF7ECFD0D212B207D
:103EA000FCF7E8FD322006F0CBFD00212020FCF7D6
:103EB000E1FD00212120FCF7DDFD322006F0C0FDF0
:103EC00000213020FCF7D6FD40F204613120FCF7E0
:103ED000D1FD40F205313220FCF7CCFD0021352028
:103EE000FCF7C8FD40F609413620FCF7C3FD4FF44E
:103EF00001713720FCF7BEFD40F201313820FCF79C
:103F0000B9FD29463920FCF7B5FD00213C20FCF71E
:103F1000B1FD40F60A213D20FCF7ACFD322006F051
:103F20008FFD00215020FCF7A5FDEF215120FCF76B
:103F3000A1FD00215220FCF79DFD40F23F115320CE
:103F4000FCF798FD314652E100210846FCF792FD4E
:103F500021460120FCF78EFD49460220FCF78AFD30
:103F600041F230010320FCF785FD00210420FCF71D
:103F700081FD59460820FCF77DFD00210920FCF752
:103F800079FD00210A20FCF775FD01210C20FCF7CA
:103F900071FD00210D20FCF76DFD00210F20FCF7C5
:103FA00069FD322006F04CFD40F201110720FCF7BC
:103FB00061FD322006F044FD4FF486511020FCF7DD
:103FC00059FD07211120FCF755FD31461220FCF761
:103FD00051FD4FF430611320FCF74CFD00212920E6
:103FE000FCF748FD44F210012B20FCF743FD0021B3
:103FF0005020FCF73FFDEF215120FCF73BFD002155
:104000005220FCF737FD40F23F115320FCF732FD00
:1040100041466020FCF72EFD0121612002E00000F6
:1040200000804042FCF726FD00216A20FCF722FDBB
:1040300000218020FCF71EFD00218120FCF71AFDE5
:1040400000218220FCF716FD00218320FCF712FDE1
:1040500000218420FCF70EFD00218520FCF70AFDDD
:1040600010219020FCF706FD00219220FCF702FDB4
:1040700001219320FCF7FEFC31469520FCF7FAFC69
:1040800000219720FCF7F6FC00219820FCF7F2FCB9
:1040900040F27311072082E341F21401E720FCF79C
:1040A000E9FC21460120FCF7E5FC4FF400710220F9
:1040B000FCF7E0FC41F238010320FCF7DBFC594639
:1040C0000820FCF7D7FC00210920FCF7D3FC0021D5
:1040D0000A20FCF7CFFC00210C20FCF7CBFC0021D0
:1040E0000D20FCF7C7FC00210F20FCF7C3FC0021CA
:1040F0001020FCF7BFFC07211120FCF7BBFC0021BE
:104100001220FCF7B7FC00211320FCF7B3FCC820F9
:1041100006F096FC41F290611020FCF7ABFC40F2F7
:1041200027211120FCF7A6FC322006F089FC0C2187
:104130001220FCF79FFC322006F082FC4FF4006155
:104140001320FCF797FC11212920FCF793FC0B218D
:104150002B20FCF78FFC322006F072FC002120207F
:10416000FCF788FC40F23F1421462120FCF782FC3A
:1041700000213020FCF77EFC4FF48376314631205D
:10418000FCF778FC00213220FCF774FC4FF401713D
:104190003520FCF76FFC41F20A613620FCF76AFC1F
:1041A00029463720FCF766FC31463820FCF762FCD4
:1041B00029463920FCF75EFC40F202413C20FCF726
:1041C00059FC40F60F413D20FCF754FC00215020E3
:1041D000FCF750FCEF215120FCF74CFC0021522051
:1041E000FCF748FC21465320FCF744FC4146602084
:1041F000FCF740FC01216120FCF73CFC00216A2017
:10420000FCF738FC00218020FCF734FC00218120E1
:10421000FCF730FC00218220FCF72CFC00218320DD
:10422000FCF728FC00218420FCF724FC00218520D9
:10423000FCF720FC10219020FCF71CFC4FF4C0611F
:104240009220FCE321460120FCF714FC49460220A1
:10425000FCF710FC41F230010320FCF70BFC0021BD
:104260000420FCF707FC40F207210820FCF702FCC1
:1042700000210920FCF7FEFB00210A20FCF7FAFBD5
:1042800000210C20FCF7F6FB00210D20FCF7F2FBCF
:1042900000210F20FCF7EEFB142006F0D1FB41F2C9
:1042A000B0611020FCF7E6FB01211120FCF7E2FBD6
:1042B00001211720FCF7DEFB4FF49C711220FCF764
:1042C000D9FB4FF400611320FCF7D4FB092129200E
:1042D000FCF7D0FB09212A20FCF7CCFB0021A4200D
:1042E000FCF7C8FB00215020FCF7C4FBEF21512054
:1042F000FCF7C0FB00215220FCF7BCFB40F23F1151
:104300005320FCF7B7FB41466020FCF7B3FB0121CB
:104310006120FCF7AFFB00216A20FCF7ABFB00211A
:104320008020FCF7A7FB00218120FCF7A3FB0021E4
:104330008220FCF79FFB0021832000E025E0FCF7B2
:1043400099FB00218420FCF795FB00218520FCF7D8
:1043500091FB13219020FCF78DFB00219220FCF7AC
:1043600089FB03219320FCF785FB3146952003E070
:1043700018E115E2DCE291E3FCF77CFB40F27311FB
:104380000720FCF777FB322008E100210720FCF72B
:1043900071FB322006F054FB4FF48E711220FCF7B3
:1043A00069FB0121A420FCF765FB0F210820FCF725
:1043B00061FB08210A20FCF75DFB08210D20FCF7BA
:1043C00059FB2F4629463020FCF754FB07213120AA
:1043D000FCF750FB40F203613220FCF74BFB4D46EB
:1043E00049463320FCF746FB59463420FCF742FB94
:1043F00002213520FCF73EFB41F60F713620FCF719
:1044000039FB39463720FCF735FB00213820FCF713
:1044100031FB00213920FCF72DFB39463A20FCF70F
:1044200029FB00213B20FCF725FB07213C20FCF762
:1044300021FB00213D20FCF71DFB322006F000FB94
:1044400001210720FCF716FB01211720FCF712FBC6
:10445000322006F0F5FA4FF4BD511020FCF70AFBAC
:1044600040F217211120FCF705FB4FF48F71122049
:10447000FCF700FB4FF470611320FCF7FBFA0021FE
:104480002A20FCF7F7FA0A212920FCF7F3FA4FF467
:104490009F711220FCF7EEFA00215020FCF7EAFA97
:1044A000EF215120FCF7E6FA00215220FCF7E2FA56
:1044B00040F23F115320FCF7DDFA41466020FCF743
:1044C000D9FA01216120FCF7D5FA00216A20FCF716
:1044D000D1FA00218020FCF7CDFA00218120FCF7E1
:1044E000C9FA00218220FCF7C5FA00218320FCF7DD
:1044F000C1FA00218420FCF7BDFA00218520FCF7D9
:10450000B9FA13219020FCF7B5FA31469220FCF756
:10451000B1FA05219320FCF7ADFA00219520FCF7B4
:10452000A9FA00219720FCF7A5FA00219820FCF7B2
:10453000A1FA21460120FCF79DFA29460220FCF74A
:1045400099FA41F238010320FCF794FA0021042083
:10455000FCF790FA00210C20FCF78CFA00210F20C8
:10456000FCF788FA00212020FCF784FA00212120A2
:10457000FCF780FA21210720FCF77CFA142006F0D2
:104580005FFA61210720FCF775FA142006F058FA4B
:1045900040F273110720FCF76DFA142006F050FA70
:1045A000FFF73CBB00210846FCF764FA00210846EF
:1045B000FCF760FA00210846FCF75CFA0021084687
:1045C000FCF758FA0121A42000E0E4E0FCF752FADD
:1045D000142006F035FA454641466020FCF74AFAB9
:1045E0005E4659460820FCF745FA4FF40571302025
:1045F000FCF740FA43F215713120FCF73BFA40F228
:1046000004613220FCF736FA40F616613320FCF7DD
:1046100031FA42F211213420FCF72CFA4FF4A85160
:104620003520FCF727FA48F207513620FCF722FA2A
:1046300041F207413720FCF71DFA41F203413820CF
:10464000FCF718FA20213920FCF714FA1A219020DF
:10465000FCF710FA00211020FCF70CFA07211120BA
:10466000FCF708FA00211220FCF704FA00211320BD
:10467000FCF700FA142006F0E3F94FF4E66110208D
:10468000FCF7F8F940F237111120FCF7F3F9142088
:1046900006F0D6F94FF4DC711220FCF7EBF9142088
:1046A00006F0CEF94FF470611320FCF7E3F9802196
:1046B0002A20FCF7DFF948212920FCF7DBF9142038
:1046C00006F0BEF921460120FCF7D4F94946022044
:1046D000FCF7D0F941F238010320FCF7CBF9314661
:1046E0000820FCF7C7F900210A20FCF7C3F90021D4
:1046F0000C20FCF7BFF900210D20FCF7BBF930219D
:104700000E20FCF7B7F900215020FCF7B3F9EF2198
:104710005120FCF7AFF900215220FCF7ABF940F231
:104720003F115320FCF7A6F929466020FCF7A2F9B7
:1047300001216120FCF79EF900216A20FCF79AF91B
:1047400011219020FCF796F94FF4C0619220FCF7FC
:1047500091F940F202419320FCF78CF90221942058
:10476000FCF788F9142006F06BF901210720FCF70B
:1047700081F9142006F064F961210720FCF77AF929
:1047800040F273110720FCF775F900212020FCF797
:1047900071F900212120FCF76DF9222100207AE136
:1047A00000210846FCF766F900210846FCF762F98B
:1047B000142006F045F900210846FCF75BF90021BA
:1047C0000846FCF757F900210846FCF753F9002189
:1047D0000846FCF74FF90121A420FCF74BF91420FF
:1047E00006F02EF941466020FCF744F940F6060138
:1047F0000820FCF73FF940F2037529463020FCF70A
:1048000039F901213120FCF735F904213220FCF778
:1048100031F94FF481713320FCF72CF93146342003
:10482000FCF728F940F203113520FCF723F91F218A
:104830003620FCF71FF929463720FCF71BF9012128
:104840003820FCF717F904213920FCF713F915215A
:104850009020FCF70FF94FF482611020FCF70AF961
:1048600040F247211120FCF705F94FF4DE711220C8
:10487000FCF700F94FF460611320FCF7FBF8782097
:1048800006F0DEF821460120FCF7F4F84FF4007141
:104890000220FCF7EFF841F230010320FCF7EAF8C0
:1048A00008210A20FCF7E6F800210C20FCF7E2F8CA
:1048B00020210E20FCF7DEF800210F20FCF7DAF8AB
:1048C00000212020FCF7D6F800212120FCF7D2F8A7
:1048D0003D212A20FCF7CEF8142006F0B1F82D2156
:1048E0002920FCF7C7F800215020FCF7C3F84DF24F
:1048F000EF015120FCF7BEF800215220FCF7BAF876
:1049000040F23F115320FCF7B5F800216120FCF77D
:10491000B1F800216A20FCF7ADF831469220FCF78F
:10492000A9F805219320FCF7A5F82146FFF7B2BBB3
:1049300001210020FCF79EF80A2006F081F841F2E0
:1049400028611020FCF796F80E211220FCF792F84F
:1049500040F639211320FCF78DF80A2006F070F894
:1049600040211120FCF786F850211520FCF782F831
:104970000A2006F065F81E211220FCF77BF80A20B9
:1049800006F05EF84FF4B1511020FCF773F842F6D0
:1049900039211320FCF76EF80A2006F051F8214661
:1049A0000120FCF767F831460220FCF763F841F27A
:1049B00038010320FCF75EF859460820FCF75AF846
:1049C00008210A20FCF756F800213020FCF752F8A5
:1049D00040F202413120FCF74DF84FF48371322050
:1049E000FCF748F840F203513320FCF743F84FF44A
:1049F00082713420FCF73EF840F201313520FCF79B
:104A000039F829463620FCF735F840F205313720D1
:104A1000FCF730F84FF402713820FCF72BF840F621
:104A20000B713920FCF726F802214120FCF722F80F
:104A300041466020FCF71EF80121612000E0CFE034
:104A4000FCF718F84FF404719020FCF713F84FF4BA
:104A500085719220FCF70EF804219320FCF70AF8E8
:104A60002146A020FCF706F801210720FCF702F8F8
:104A700021210720FBF7FEFF23210720FBF7FAFF88
:104A800033210720FBF7F6FF40F233110720FBF735
:104A9000F1FF0021A020FBF7EDFF81E5302115207B
:104AA000FBF7E8FF10219A20FBF7E4FF20211120FB
:104AB000FBF7E0FF43F228411020FBF7DBFF022168
:104AC0001220FBF7D7FF41F238011320FBF7D2FF8A
:104AD000282005F0B5FF12210846FBF7CBFF282060
:104AE00005F0AEFF43F220411020FBF7C3FF43F275
:104AF00038011320FBF7BEFF462005F0A1FF00217F
:104B00003020FBF7B7FF40F202413120FBF7B2FF44
:104B100040F207313220FBF7ADFF4FF441713320F3
:104B2000FBF7A8FF04213420FBF7A4FF40F201416A
:104B30003520FBF79FFF29463620FBF79BFF40F20D
:104B400005313720FBF796FF4FF4C2652946382020
:104B5000FBF790FF29463920FBF78CFF2146012007
:104B6000FBF788FF31460220FBF784FF41F230015A
:104B70000320FBF77FFF40F608010820FBF77AFFD0
:104B800008210A20FBF776FF41466020FBF772FF01
:104B900001216120FBF76EFF4FF49F719020FBF71E
:104BA00069FF21469220FBF765FF21469320FBF722
:104BB00061FF4FF44051A020FBF75CFF1021A320C0
:104BC000FBF758FF01210720FBF754FF21210720A5
:104BD000FBF750FF23210720FBF74CFF3321072071
:104BE000FBF748FF40F23311A0E62DE9F843FE4CF5
:104BF0001E468046A388089FA3F5D040043802D102
:104C0000A079012807D0A2EB0800401C84B20D4611
:104C10004FF0D8492AE025880846A91AA5EB0803D1
:104C20000025A57132462A2565812B26491E5B1E6B
:104C3000A68189B29BB20097FFF7D7FF0120A07130
:104C40006681A581BDE8F88329464046FBF741FF10
:104C5000FBF726FF0020494604E000BF401CA1F8F6
:104C6000807080B2A042F9D36D1CADB2B542EBD9D1
:104C7000E8E72DE9F0478246A2EB0A00401C0E4609
:104C800085B2981B401C87B200244FF0D849DDF84C
:104C9000208015E0301981B25046FBF71AFFFBF770
:104CA000FFFE0020494607E004FB0503401C38F8DE
:104CB0001320A1F8802080B2A842F5D3641CA4B2CE
:104CC000BC42E7D3BDE8F0872DE9FE4F161ACDE9C7
:104CD00000104FF000085D1A47464FF0FF30002EDD
:104CE00002DD4FF0010102E003D14FF000018B46DD
:104CF00002E08346C6F10006002D02DD4FF0010000
:104D000002E003D14FF00000824602E08246C5F186
:104D10000005AE4201DD344600E02C46601C4FF039
:104D20000009029018E0009881B2019880B2FCF767
:104D30004BF9B0442F44A04504DD0198A8EB0408CA
:104D400058440190A74203DD00983F1B5044009057
:104D500009F101001FFA80F902998945E3DDBDE8F8
:104D6000FE8FF0B51C4615460E4607460B46FFF76C
:104D7000ABFF3A46234631461046FFF7A5FF2346D0
:104D80002A4619463846FFF79FFF2A4623463146F2
:104D9000BDE8F040104697E72DE9FC4F804600251E
:104DA000144603200F46A0EB440649E0381B81B2AD
:104DB00008EB050A01901FFA8AF0FCF705F9781B49
:104DC00081B208EB040900901FFA89F0FCF7FCF8A7
:104DD00007EB050B1FFA8BF11FFA89F0FCF7F4F8CB
:104DE00007EB04091FFA89F11FFA8AF0FCF7ECF8C7
:104DF000A8EB050A1FFA89F11FFA8AF0FCF7E4F81C
:104E0000A8EB04091FFA8BF11FFA89F0FCF7DCF814
:104E1000019881B21FFA8AF0FCF7D6F8009881B2A7
:104E20001FFA89F0FCF7D0F86D1C002E03DA06EBB0
:104E30008506B61D04E0281B06EB8006641E0A36B4
:104E4000A542B3DDBDE8FC8F2DE9FF4F1D460C46A2
:104E50008A46580700D0012000EBD500690810FBF6
:104E600001F0203A00F0FF09D0B20026DFF878B157
:104E7000029044E00C2D11D0102D14D0182D40D1EB
:104E800002985A4900EBC00001EB80004FF0000887
:104E9000875D38060CD5564802880DE002985549C2
:104EA00000EB4000F0E75449029801EB0010EDE7F9
:104EB0000D9828B94E48428821460098FCF790F892
:104EC0007806070E641CBBF80200A4B2A04218D9F1
:104ED000A4EB0A00A84209D100985446401C80B2B5
:104EE0000090BBF8001081420BD906E008F10100E8
:104EF00000F0FF08B8F1080FCBD3761CF6B24E4590
:104F0000B8D3BDE8FF8F0246012000E05043491EA0
:104F1000C9B2FBD270472DE9FF4F81B00026DDF802
:104F200038A01D46934681463446B0464FEA5A079C
:104F300027E0281B401EC1B20A20FFF7E4FFBBFB9D
:104F4000F0F00A21B0FBF1F201FB120026B9691E54
:104F50008C4201DA48B101263030C2B207FB04901E
:104F600080B25346CDF8008006E007FB049080B283
:104F700053462022CDF800800299FFF765FF641C9C
:104F8000E4B2AC42D5D305B0BDE8F08F2DE9FF4FB8
:104F900081B04FF00008DDE90EBA1E468146444656
:104FA0000AF001054FEA5B0736E0301B401EC1B234
:104FB0000A20FFF7A8FF0399B1FBF0F00A21B0FB2C
:104FC000F1F201FB1200B8F1000F05D1711E8C4205
:104FD00002DA98B14FF001083030C2B207FB0490FA
:104FE00080B25B46009512E0581A0020AC510208CE
:104FF0001600002048470208BC4B02085FEA0A601E
:1050000007FB049080B25B46009508D530220299D8
:10501000FFF71AFF641CE4B2B442C6D3B3E7202200
:10502000F5E72DE9F84F044600F0FF0910190D4689
:10503000DDE90AB61FFA80F8581987B24FF0000A66
:1050400012E0444503D305EB0B004C4685B2BD424C
:105050000FD25B4629462046CDF800A0FFF7F4FEAC
:1050600004EB5B0084B2761C3278A2F120005E284B
:10507000E7D9BDE8F88F000010B5B0B001214FF0BE
:10508000606003F05EF904F00BF904F020FD00BF4E
:1050900004F023FD0128FBD0684604F00DF901203F
:1050A000009000204FF40071CDE90A100904079028
:1050B0001190CDE920010E90149013900A111590D3
:1050C0002590269023920420CDE9280180032A9080
:1050D00080012B9040122C9040002E9000216846B9
:1050E00004F07CF9C4B2012C03D10121944804F0EE
:1050F00006FD30B0204610BDFEB501214D2003F065
:1051000020F90121880303F044F9012003F017FA84
:105110008620032500908DF8055002208DF80400AC
:105120000024884E8DF806408DF8074069463046C9
:1051300002F0EEFE0B220121304602F072FF0B223C
:105140000221304602F06DFF0B220721304602F0AB
:1051500068FF32207C4E00906946304602F0D8FE4F
:105160000B220121304602F05CFF0B220421304665
:1051700002F057FF0B220521304602F052FF4FF498
:10518000D040724E00906946304602F0C1FE0B22BC
:105190001146304602F045FF0B220D21304602F049
:1051A00040FF0B220E21304602F03BFF8DF80550E8
:1051B000012508208DF8045000908DF806408DF8E8
:1051C00007406946624802F0A3FE624EC6F88C4270
:1051D000322006F5237605F033FC35603D208DF84E
:1051E00008008DF809408DF80A408DF80B5002A890
:1051F00002F0CFFDFFF740FF08B10020FEBD012007
:10520000FEBD10B51F21002004F0C0F8C0F38200DD
:1052100010BD10B5504C01E005F0CAFC206804F048
:105220003CFC0028F8D1402004F07AFCBDE8104096
:105230004FF4803004F074BC30B5474C00231A465C
:1052400021680D68002D0BDA444913464C69240689
:1052500002D580244C618B6002604260826030BD68
:105260000D682D040AD40D68ED0507D50D68AD0550
:1052700004D50A68C2F30D438A681B1FCD682560F8
:105280000360C0E9012130BD354A11680B68002B6D
:1052900001DA00207047C0F30C004860086840F055
:1052A00040500860086840F0004008602B4843699F
:1052B0005B0703D50423436100234360C868106083
:1052C00001207047264800688068704710B5254C5B
:1052D0000020216815F015F80020616815F011F81C
:1052E0000020A16815F00DF8E168BDE8104000202D
:1052F00015F007B870B5A021002015F00BF8194C77
:10530000A0212060002015F005F841F6C45560602A
:105310002946002014F0FEFFA0602946002014F06A
:10532000F9FFE060216831B1616821B1A16811B174
:1053300008B1002070BDFFF7C9FF012070BD00005B
:105340004000010000000240000802400018024036
:10535000000C0240008041425400002000900240B6
:10536000500000201C0000202DE9F04198B00121E0
:10537000782002F0E6FF4FF63370169002208DF889
:105380005C0003208DF85D0000248DF85E40012054
:10539000DFF868828DF85F0016A9404602F0B8FD7C
:1053A0004FF68370964D169016A9284602F0B0FD70
:1053B0004FF23F00934E169016A9304602F0A8FD1A
:1053C00040F23F40904F169016A9384602F0A0FDDB
:1053D0000C220021404602F024FE0C22012140460E
:1053E00002F01FFE0C220421404602F01AFE0C229D
:1053F0000521404602F015FE0C220821404602F02D
:1054000010FE0C220921404602F00BFE0C220A215C
:10541000404602F006FE0C220B21404602F001FE3F
:105420000C221146404602F0FCFD0C220D214046A4
:1054300002F0F7FD0C220E21404602F0F2FD0C2294
:105440000F21404602F0EDFD0C220021284602F01B
:10545000E8FD0C220121284602F0E3FD0C22072181
:10546000284602F0DEFD0C220821284602F0D9FD74
:105470000C220921284602F0D4FD0C220A212846DC
:1054800002F0CFFD0C220B21284602F0CAFD0C22AF
:105490001146284602F0C5FD0C220D21284602F0D7
:1054A000C0FD0C220E21284602F0BBFD0C220F216C
:1054B000284602F0B6FD0C220021304602F0B1FD74
:1054C0000C220121304602F0ACFD0C2202213046B4
:1054D00002F0A7FD0C220321304602F0A2FD0C22AF
:1054E0000421304602F09DFD0C220521304602F0D9
:1054F00098FD0C221146304602F093FD0C220D213E
:10550000304602F08EFD0C220E21304602F089FD5D
:105510000C220F21304602F084FD0C220021384677
:1055200002F07FFD0C220121384602F07AFD0C22A8
:105530000221384602F075FD0C220321384602F0A4
:1055400070FD0C220421384602F06BFD0C2205216F
:10555000384602F066FD0C220A21384602F061FD51
:105560000920CDE910400F94149404201594CDE93E
:10557000000412941020CDE9024013940494000218
:10558000CDE908400FA80794CDE90C400594069496
:105590000E900A940B94684604F0F2FB012104205B
:1055A00004F067FC18B0BDE8F08110B5002A07D000
:1055B0004FF0D04310F8014B5C54491C521EF7D1F8
:1055C00010BD002A08D000BF4FF0D0435B5C491CDF
:1055D00000F8013B521EF7D1704703B50146012286
:1055E00001A8FFF7E2FF0CBD08B50146012268469D
:1055F000FFF7E7FF9DF8000008BD0000000C024027
:105600000010024000140240001802407F4810B50C
:10561000016821F440210160016841F480210160AA
:105620007B4C0020C4F8A40240F2EE2004F529745B
:1056300005F0E7F901202060BDE810400F2005F0DB
:10564000E0B970B571480024016821F4402101607F
:10565000016801606E4D04E0641CE4B2012005F0B5
:10566000D0F9D5F8240210B1C82CF5D30DE0C82C20
:105670000BD2002404E0641CE4B2012005F0C1F95F
:10568000D5F8240218B1F02C04D3012070BDF02C01
:10569000F1D3FAE7002070BD70B55C4C206820F4AF
:1056A00040202060206840F480202060584D002079
:1056B000C5F8A402022005F5297505F0A2F901201C
:1056C0002860206820F440202060206820600C20A2
:1056D00005F097F955F8800C08B1012400E000248A
:1056E000322005F08EF9204670BD70B500250124EA
:1056F000FFF7D2FFC001641C40EA5500E4B2C5B216
:10570000082CF5D9284670BD2DE9F04106463F48E2
:10571000016821F440210160016841F480210160A9
:1057200001253B4C0027A84616F0010F4FEA56060C
:10573000C4F8A47206D0022005F063F9C4F8A4826C
:105740003C2005E03C2005F05CF9C4F8A48202206E
:1057500005F057F96D1CEDB2082DE5D9BDE8F081D3
:1057600010B5FFF753FFFFF76CFFCC20FFF7CCFF1E
:10577000BDE810404420C7E71CB50121402002F0DD
:10578000E0FD4FF40070009001208DF8040000212E
:105790008DF8061002218DF805108DF80700694676
:1057A0001A4802F0B5FBFFF731FFFFF74AFF1CBDB7
:1057B00070B5FFF7D5FFFFF729FFFFF742FFCC20B9
:1057C000FFF7A2FFBE20FFF79FFFFFF78EFF044603
:1057D000FFF78BFF072805D9C043E143C0B2CCB225
:1057E000002500E0012504EB002000B21EF029FC9A
:1057F0009FED081B53EC112B1EF08AFC1EF0C4FB1E
:1058000000B2002D01D1404200B270BD001802402C
:1058100000004342000000000000E43F10B50146D4
:105820008020002401E04008641C0842FBD121468E
:1058300062A01BF0A9FB204610BD30B5644C0023CC
:1058400041F66F22991801EBD171491034F82150BB
:10585000854203D104EB8100408830BD02D9A1F11B
:10586000010201E001F101039342EBDD002030BDB4
:105870002DE9FC47064691460F4656A01BF084FBD7
:1058800059A01BF081FB002404E0315D58A01BF0FF
:105890007BFB641CBC42F8DB57A01BF075FB4FF090
:1058A000000845464446ADF80080ADF804806AE043
:1058B000705DFFF7B3FF07285DD2DFE800F0045CFE
:1058C0000B1750545800715D09F804104FF001088F
:1058D0006D1C5FE0715D701909F80410417809EBE7
:1058E00004004FF002084170AD1C4BE0711948787C
:1058F000C0F38302705D42EA001209EB04008246A5
:1059000042704A78897802F0030262F39F1109F825
:1059100004100188ADF8001038A01BF035FBBDF86D
:105920000000FFF78AFFADF80400804601463AA068
:105930001BF02AFBB8F1000F0DD04FEA182141EA05
:10594000082081B2ADF8041039A01BF01DFBBDF892
:105950000410AAF800104FF00308ED1C12E04FF0FD
:1059600004082D1D0EE04FF005086D1D0AE04FF0F4
:105970000608AD1D06E038A01BF006FB4544B8F153
:10598000010F07D0A41CBD4292DB17A01BF0FCFA4C
:10599000002507E0641CF6E719F8051014A01BF0B9
:1059A000F3FA6D1CA542F7DB13A01BF0EDFA494694
:1059B000BDE8FC472FA01BF0E7BA00007468652023
:1059C0006E756D2069733A2025640D0A0000000091
:1059D000085F0208757466382D3E756E69636F64E2
:1059E000653A200D0A000000757466383A205B00A5
:1059F00025303278200000005D0D0A00756E696365
:105A00006F6465206B65792069733A2030782530A2
:105A100034580D0A00000000676232333132206BC7
:105A200065792069733A203078253034580D0A00A2
:105A30006166746572206368616E67696E672C20A9
:105A4000676232333132206B65792069733A2030D6
:105A500078253034580D0A00746865206C656E2016
:105A60006973206D6F7265207468616E20360D0A4F
:105A700000000000D7AABBBBBAF3A3BA25730D0A76
:105A80000000000030B403460C46500700D001204F
:105A900000EBD20010FB02F0C1B218785B788128CD
:105AA00009D3402B07D3FF2B05D0FF2803D07F2B32
:105AB0000CD2403B0BE00020024603E0401C04F8FF
:105AC000012BC0B28842F9D330BC7047413B8138CA
:105AD000C0B2C0EB4015DBB205EB801003EB400019
:105AE00048436A4B0C2A0CD0102A0DD0182AEBD14F
:105AF000D3F8192010440A460146204630BC00F075
:105B0000E0B9D3F80920F5E7D3F81120F2E72DE941
:105B1000FF4F1C4693B013460D468946600700D0E0
:105B2000012000EBD40010FB04F000F0FF0A0C2C65
:105B300003D0102C01D0182C32D1224669461846C9
:105B4000FFF7A0FF002629E01DF80670DFF840B13E
:105B50004FF00008380602D5BBF8002003E020987B
:105B600028B94C48028829461398FBF739FA780679
:105B70006D1C070EADB2A5EB0900A04205D113982C
:105B80004D46401C80B2139006E008F1010000F081
:105B9000FF08B8F1080FDDD3761CF6B25645D3D313
:105BA00017B0BDE8F08F2DE9F84F0D460AA904465D
:105BB00091E8C0088046307800281ED0E81808EB2D
:105BC000020AA0EB07093278802A18D9AAEB07004D
:105BD000A04202DAE81985B24446A9450DDB3B46EE
:105BE000324629462046CDF800B0FFF790FFE01975
:105BF00084B216F8020F0028E5D1BDE8F88FAAEBB1
:105C00005700A04202DAE81985B24446A945F4DB00
:105C10000D2A0DD03B4629462046CDF800B0FFF7AF
:105C200013F900BF04EB570084B216F8010FE2E746
:105C3000E81985B24446761CF4E72DE9FE43074691
:105C40001C461546884610460A9E1BF0ADFB6108AF
:105C5000414389B201221048B14207D90095CDE9EC
:105C6000014243880288414638460BE00095CDE961
:105C70000142711A01EBD1714388028807EB510090
:105C800080B24146FFF78FFFBDE8FE83282D00203C
:105C90001600002018000020581A002070B5404C53
:105CA00005460221204604F0D8FB0028F9D02946F9
:105CB000204604F0A5FB0121204604F0CEFB00287D
:105CC000F9D0204604F09AFBC0B270BD2DE9F04334
:105CD000012187B0084602F034FB4FF480590121BE
:105CE000484602F056FB02268DF8186000248DF815
:105CF0001A4003208DF81900DFF8A8803825012705
:105D000005958DF81B7005A9404602F001F90522A2
:105D10000321404602F085F905220421404602F0A5
:105D200080F905221146404602F07BF901214846E0
:105D300002F061FB0021484602F05DFBADF8004037
:105D40004FF48270ADF80200ADF808703002ADF883
:105D50000C50ADF80440ADF80A00ADF80E40072035
:105D60000F4CADF81000ADF806606946204604F00F
:105D70004DFA0121204604F0DDFAFF20FFF78EFFE7
:105D800007B0BDE8F08301460548028822F03802DA
:105D9000028002880A430280012104F0CBBA00008D
:105DA000003001400004024070B5D24C0025C4F818
:105DB000B852902004F52E74FFF770FF0020FFF713
:105DC0006DFF0020FFF76AFF0020FFF767FFFF204D
:105DD000FFF764FF45EA0025FF20FFF75FFF284338
:105DE0000121216070BD7CB50121022002F0A9FAD9
:105DF0000121402002F0A5FA4FF4804001240090D8
:105E00008DF8044000208DF8060003208DF8050071
:105E10008DF807406946B84802F07AF88020B74DFF
:105E200000906946284602F073F88021284602F067
:105E3000E9F8B048C0F8B842FFF748FF0020FFF784
:105E4000A2FFFFF7B1FFAE4908807CBD10B5A94C99
:105E50000020C4F8B802052004F52E74FFF71EFFD9
:105E6000FF20FFF71BFF0121216010BD70B5A14C81
:105E700005460020C4F8B802012004F52E74FFF78F
:105E80000DFF2846FFF70AFF0120206070BD10B506
:105E9000984C0020C4F8B802062004F52E74FFF7D1
:105EA000FDFE0120206010BD10B5924C0020C4F80A
:105EB000B802042004F52E74FFF7F0FE01202060E4
:105EC00010BD2DE9F0418B4E0746002015460C46CB
:105ED000C6F8B8020320FFF7E1FEC4F30740FFF75E
:105EE000DDFEC4F30720FFF7D9FEE0B2FFF7D6FED0
:105EF000002405E0FF20FFF7D1FE3855641CA4B252
:105F0000AC42F7D30120C6F8B802BDE8F08110B565
:105F1000FFF79CFFC007FBD110BD2DE9F0411546EE
:105F20000C460746FFF7B3FF724E0020C6F8B802D2
:105F30000220FFF7B3FEC4F30740FFF7AFFEC4F340
:105F40000720FFF7ABFEE0B2FFF7A8FE002404E055
:105F5000385DFFF7A3FE641CA4B2AC42F8D3012065
:105F6000C6F8B802BDE8F041D1E72DE9F041074697
:105F7000C8B2C0F580740E461546A24200D8144639
:105F80004FF48078224631463846FFF7C6FFA542D7
:105F9000BBD0281B2744264485B24446A542F1D8ED
:105FA0002C46EFE7B1E770B50446014655A01AF05C
:105FB000EBFF2403FFF76BFFFFF7A9FF4D4D002018
:105FC000C5F8B802202005F52E75FFF767FEC4F36B
:105FD0000740FFF763FEC4F30720FFF75FFEE0B260
:105FE000FFF75CFE01202860BDE870408FE72DE9D7
:105FF000F05FC1F30B06DFF814810F0BC6F5805478
:10600000894682461546A24200D8144639038B467B
:106010004FF480524046FFF754FF002006E032184C
:1060200018F80210FF2903D1401C80B2A042F6D319
:10603000A04223D23846FFF7B6FF002007E000BF9A
:106040001AF800208319401C08F8032080B2A042EF
:10605000F6D359464FF480524FEA0800FFF785FF08
:10606000A5420FD0281BA244A144002685B24FF4BC
:1060700080547F1CA542C9D82C46C7E72246494612
:106080005046EBE7BDE8F09F10B5FFF700FFFFF7C4
:106090003EFF184C0020C4F8B802C72004F52E7447
:1060A000FFF7FCFD01202060BDE810402FE710B590
:1060B000104C0020C4F8B802B92004F52E74FFF784
:1060C000EDFD01202060BDE81040032004F099BCE4
:1060D00010B5084C0020C4F8B802AB2004F52E74AB
:1060E000FFF7DCFD01202060BDE81040032004F034
:1060F00088BC0000008040420004024000180240BA
:106100002C00002066653A25780D0A00661A0020EA
:10611000FE4900200860091D0860091D0860091D6E
:106120000860FA4924310860091D0860091D0860EB
:10613000F64AF74938321160111D08607047002196
:10614000012803D010B1262108467047F14A50704B
:10615000FAE7EE4A121D116821F0FF0101431160B8
:10616000704710B5E94904463431086810F0450F0E
:10617000FBD0042004F065FA20B1042004F06AFA90
:10618000032010BD012004F05CFA20B1012004F0CE
:1061900061FA012010BDDD4810300068A04201D036
:1061A000102010BD40F2FF5004F054FAD7481430CC
:1061B000006800F0080010BD2DE9FC5F0025D64CFA
:1061C00000954FF4806801954027C4F81080C4E919
:1061D00002750E464FF0080B1021C4E900B1A94624
:1061E000204604F0A9F91020FFF7BBFF002852D188
:1061F000C848BA464F460089000420603720C4E9E9
:10620000010AC4E90398204604F096F93720FFF705
:10621000A8FF00283FD1411E04F11400C0E9001B73
:10622000302181600221C0E903170121416104F09E
:10623000A9F93320C4F808A0C4E90070C4E90378C0
:10624000204604F079F93320FFF78BFF040022D1B8
:10625000DFF8B8A2AD4F4FF4001BE9460AF1800AFF
:10626000343740F22A68386810EA080F0BD15846D4
:1062700004F0E7F90028F6D0DAF8001049F8251004
:106280006D1C022DEFD3082004F0DBF928B10820A3
:1062900004F0E0F90420BDE8FC9F022004F0D1F9ED
:1062A00020B1022004F0D6F90220F4E7202004F007
:1062B000C8F920B1202004F0CDF90620EBE74FF417
:1062C0000075284604F0BDF920B1284604F0C2F953
:1062D0000720E0E740F2FF5004F0BCF9009800BA54
:1062E0007060019800BA30602046D4E72DE9FC4187
:1062F000002500952E46019500B1022683481430F2
:106300000068800102D50E20BDE8FC81814C694601
:10631000208980B2FFF750FF0028F5D10198400393
:1063200022D520897C4C00044FF0400820603720A3
:10633000C4E901084FF48067C4E90357204604F01C
:10634000FBF83720FFF70DFF0028DDD10620C4F849
:106350000880C4E90060C4E90357204604F0ECF863
:106360000620FFF7FEFECFE72520CDE710B56949EF
:10637000044600200978032918D019B1012901D059
:10638000022912D1B4F5805F10D0E0B2FFF7AEFF62
:1063900000280AD15D49091D0A6822F4C0520A602A
:1063A0000A6822430A600A680A6010BD272010BDEF
:1063B000594910B5086007204860402088600020D7
:1063C000C8604FF480600861084604F0B5F8BDE885
:1063D00010400720C5E62DE9F0474E49DFF838A107
:1063E0004FF001090E7880F8566009890AF12C0AED
:1063F000A0F85410DAF8001053460A0E94090470FD
:10640000C2F38304447002F0030282700A0CC2706B
:106410000A0A02714171DAF80450290E0A01C5F323
:10642000074142EA111201F00F08C280C5F30721AB
:1064300080F80880CA094272C1F380128272C1F3E7
:106440004012C272C1F300120273002242739F68AD
:106450003C0EC7F30743C7F3072C36B1012E04D017
:10646000032E02D0022E30D03EE08907090DEDB296
:1064700041EA850141EA9415C4F3C2010561017541
:1064800004F00701417559098175C3F38201C17593
:1064900099074B0F614643EAD1140476A41C09FA0C
:1064A00004F3DE176D1CA5FB034C02FB03C305FBC5
:1064B000063509FA08F3A4FB036C036505FB03C367
:1064C00004FB0233C0E912630EE0A906890A41EA1F
:1064D00004241C430461641C630BE404C0E91243FC
:1064E0004FF4007361460365C1F380134376890658
:1064F0004B0EF9B243EAD11300F81A3F01F07F01C5
:106500004170DAF80C30190ECC0907E0002C01407C
:10651000FF07C00030000020802A00208470C1F3F3
:106520004114C470C1F38204047189070C0FC3F3D2
:10653000074144EA91144471C1F340148471C2715B
:1065400001F001010172C3F30721CC094472C1F3C8
:1065500080148472C1F34014C472C1F30014047334
:10656000C1F38104447301F003018173C3F3460155
:10657000FB4BC17380F8109019684C460D0E857462
:106580000D0CC1F3072646EA052585820D065968DC
:106590000E0E45EA0645C1F3074645EA0625C1F356
:1065A00007263543C0F8165000F81A1F99680D0EDB
:1065B00045700D0CC1F307262D0645EA0645C9B204
:1065C00045EA0125D96845EA11654560057AC1F3B8
:1065D000074345EA13150572C1F307251B0745EA72
:1065E00013534381C1F34601017344731046BDE860
:1065F000F08710B500244FF48031DA4A09E01068C2
:1066000010F0450F05D009B1400705D5032404203B
:106610000CE0491EF3D2F7E7012004F012F818B19C
:106620000124204604F016F840F2FF5004F012F85E
:10663000204610BD70B50D46CA49064600240868BC
:1066400010F0450FFBD0042003F0FBFF20B1042025
:1066500004F000F8032070BD012003F0F2FF20B128
:10666000012003F0F7FF012070BDBE482438006808
:10667000B04212D140F2FF5003F0ECFFB94820388D
:10668000026812F4604F03D0900404D5132070BD4B
:10669000100C288007E0500401D5102070BD1004B4
:1066A00001D50F2070BD204670BD2DE9F84F0120A7
:1066B000ADF8000003F03AFFC8B3AB4E30780428C1
:1066C0007ED0A74C00253C3C0220E4E80250C020CC
:1066D0004FF4806784E8A100A148083C3C3803F0EF
:1066E0002BFFFFF786FF002823D1DFF878A2AAF15D
:1066F000200ADAF800109A480AF1040B0160DBF86E
:10670000001041600BF1040109688160954914395A
:106710000968C16030784FF003084FF0400950B16C
:10672000012808D0062806D0022804D011E0FFE78F
:106730002520BDE8F88F84E820038948C4E9035781
:106740003C3803F0F9FE69460320FFF773FF002889
:10675000EFD1307803280ED1BDF80000000484E8A2
:1067600001037F48C4E903573C3803F0E5FEFFF717
:1067700040FF0028DDD13078042823D0BDF8000088
:10678000B060000401C4092001C4C02084E8A10055
:1067900073483C3803F0D0FEFFF72BFF0028C8D128
:1067A000DAF800106E4810380160DBF80010416024
:1067B0006C491839096881606A491439096800E030
:1067C00000E0C1600020B4E710B56649086810F029
:1067D000450FFBD0042003F034FF20B1042003F068
:1067E00039FF032010BD40F2FF5003F033FF0020BB
:1067F00010BD10B500244FF480315A4809E00268FA
:1068000012F0450F05D009B1500705D50324042027
:1068100006E0491EF3D2F7E7500603D500244020D6
:1068200003F018FF204610BD70B500254FF48034EA
:1068300005E0802003F005FF08B144B101E0641ECB
:10684000F7D240F2FF5003F005FF284670BD032049
:1068500070BD2DE9F05F424800275438762101755C
:10686000076047608760C7603E46B9463D4607619E
:1068700003F038FE032003F055FE3A483038016833
:1068800041F480710160364C4FF480683C3C3448E0
:1068900025606560A560C4E903583C3803F04CFEF0
:1068A000FFF7C2FF28B17F1CFFB24A2FEFD3BDE82C
:1068B000F09F4FF4D570206008204027C4E90107FD
:1068C0002748C4E903583C3803F036FEFFF791FF30
:1068D000DFF894A020B901208AF800004FF0804929
:1068E0004FF0370BC4E9005BC4F810801C48C4E9C2
:1068F00002753C3803F020FE3720FFF732FC70B3FE
:10690000A9460125DFF864B044E03720C4F80880C8
:10691000C4E900501248C4E9035B5F463C3803F009
:106920000BFE3720FFF71DFC0028C0D1104949EAB3
:10693000010020602920C4E901080948C4E903577F
:106940003C3803F0F9FDFFF73FFF0028AFD10549C0
:106950002039096806F10106CA0F0ED011E009E0DE
:10696000BC2A0020342C0140300000200080FF8031
:1069700000001080C346B846C7E74FF6FF72964244
:10698000C3D34FF6FF72964220D211F0804F8ED0C3
:1069900002221EE0211DC4F800B0C4F8108081E876
:1069A000A002FB4803F0C8FDFFF70EFF0028BCD192
:1069B000F849096806F10106C90F03D14FF6FF71C6
:1069C0008E42E7D34FF6FF718E4201D31B206EE754
:1069D00003228AF800206AE72DE9FE430024012102
:1069E000ED4801F0AEFC0121CE02304601F0D1FCB1
:1069F0000121304601F0FFFC4FF4F85000900220D6
:106A00008DF804008DF805000025DFF890938DF8CF
:106A1000065001278DF807706946484601F078FA5C
:106A20000420DFF87C8300906946404601F070FA4C
:106A30000C220821484601F0F4FA0C2209214846AC
:106A400001F0EFFA0C220A21484601F0EAFA0C2282
:106A50000B21484601F0E5FA0C221146484601F0A8
:106A6000E0FA0C220221404601F0DBFA0021304618
:106A700001F0C1FCFFF74CFB31208DF808008DF8C8
:106A800009508DF80A508DF80B7002A801F081F9B9
:106A9000FFF7DFFEBE4D503580B9FFF706FE68B93F
:106AA0002846FFF798FC48B9B5F854000004FFF7F2
:106AB0007FFC18B93046FFF759FC18B1B94909787D
:106AC00003290BD195F8560008B1012800D1022402
:106AD0002046FFF73EFB0020FFF731FBBDE8FE83B9
:106AE00010B5002003F01EFD002010BD70B5AE4CA7
:106AF00090B015460646204603F0C9FE0028FAD19C
:106B0000204603F0BFFD4FF0006000900021A14837
:106B1000CDE903516C30CDE901060015CDE9051032
:106B2000800007908000CDE908014FF440300A90C2
:106B300004200B9003200C904FF400000D90801067
:106B40000E906946204603F025FE2021204603F0E2
:106B50006EFE0121204603F056FE10B070BD0021EC
:106B600002E04008491CC9B20128FAD10846704722
:106B70002DE9F84F17460A9C06004FF0FF3568D004
:106B8000DFF810A200200AF1180ACAF80000DFF8A6
:106B900014924FF4007B99F80010022903D1570A90
:106BA0005C4647EAC3578046014679484FF0FF32BA
:106BB00014308160C0E900210122C160C0E90412E3
:106BC00003F0E0FC73480068800101D50E20B0E5B9
:106BD000601EB0F5006F3CD204423AD12046FFF768
:106BE000BEFF00906A481021C0E900414021C0E981
:106BF00002180901016103F09FFC1020FFF7B1FAB0
:106C00000028E4D10098010161481430C0E9014135
:106C10004FF0FF310160012141610221C0E90318F9
:106C200003F0B0FC5A481121C0E900714021C0E9CD
:106C300002180901016103F07FFC1120FFF791FAAE
:106C40000700C4D199F80110484621B101295CD050
:106C500082E026206DE5F9F72CFBDFF838914D4CEA
:106C600009F16C09DFF844A1203440F22A6812E0EF
:106C70004FF4004003F0E5FC50B1002049460A689B
:106C800046F82020401C0828F9D35546203602E05B
:106C9000002D65D06D1E206810EA080FE8D008208E
:106CA00003F0CFFC18B1082003F0D4FC58E0022018
:106CB00003F0C7FC20B1022003F0CCFC022038E531
:106CC000202003F0BEFC20B1202003F0C3FC0620EE
:106CD0002FE55C46584603F0B4FC38B1204603F07B
:106CE000B9FC072025E5206801C602E04C464FF4B8
:106CF0000015284603F0A5FC0028F4D1F9F7DBFACB
:106D000040F2FF5003F0A6FC26E04146C846C170A1
:106D1000817001711F482830016840F22A32114306
:106D20000160DAF8001041F00801CAF800100022F2
:106D300021463046FFF7DAFE1B494046583900E04D
:106D40006D1E0A68120103D402790AB9C2782AB109
:106D500035B1C17801B1C7783846EAE4002DEFD1EA
:106D60000420E6E42DE9FF5F82B00E48DDE910580B
:106D70000299C16007490026183117464FF0FF34C9
:106D80000E600078022815D10502570A10E00000B5
:106D9000802A0020142C01400C0040000008024012
:106DA000000C02403000002058640240FFFF7F00CA
:106DB00047EAC357DFF814B401215846CBF80860FE
:106DC000CBF81410C0E90046CBF80C60A246CBF813
:106DD000106003F0D7FBFE480068800102D50E204A
:106DE00006B064E5681EB0F5006F20D205421ED1E2
:106DF0002846FFF7B4FE0090F44810211438B1463D
:106E0000C0E900514021C0E902160901016103F007
:106E100093FB1020FFF7A5F90600E1D14046B8F139
:106E2000010F32D900FB05F8B8F1007F01D326200D
:106E3000D6E700984D46010158464FF0010B40F847
:106E400004ABE0E80281022180E82208DF4803F079
:106E500099FBDFF878A31221AAF1140A5046C0E981
:106E600000714021CAE902150901CAF8101003F0A7
:106E700063FB1220FFF775F90600B1D1D54D40F242
:106E80002A37687810B101287ED0A7E0F9F711FA07
:106E9000DFF83CB3DFF838830BF16C0B08F1200806
:106EA00016E000BF4FF4004003F0CBFB68B1E96887
:106EB00000205A46136841F82030401C0828F9D3B6
:106EC000E868C54C2030E86002E0002C7CD0641EED
:106ED000D8F800003842E5D0082003F0B2FB18B122
:106EE000082003F0B7FB6FE0022003F0AAFB20B1FB
:106EF000022003F0AFFB022072E7202003F0A1FB89
:106F000020B1202003F0A6FB062069E74FF40074AF
:106F1000204603F096FB48B1204603F09BFB072078
:106F20005EE72168E86802C0E86002E05C464FF472
:106F30000017384603F085FB0028F2D14FF480702B
:106F400003F07FFBC0B1287818B1012801D00228D6
:106F500012D150460C22C0E900924022CAE902290F
:106F60009A4811011438CAF8101003F0E5FA0C2001
:106F7000FFF7F7F80600BFD1F9F79DF940F2FF508F
:106F800003F068FB2AE0FFE785F8039085F802B07C
:106F900085F804908E4828300168394301608C4898
:106FA0001830016841F00801016041460022029852
:106FB000FFF79CFD894800E0641E0168090102D4C6
:106FC000002CF9D100E00CB9042009E7287910B9A8
:106FD000E8780028FAD0E87800B1EE783046FFE68D
:106FE00038B504467B48002200927849008914395C
:106FF000000408600D2048604020C1E90202000141
:107000000861084603F098FA714920310868009039
:1070100010F0450FFAD0012003F013FB20B101203E
:1070200003F018FB012038BD042003F00AFB20B157
:10703000042003F00FFB032038BD6548001F0068E3
:107040000D2801D0102038BD40F2FF5003F002FBA4
:107050005F4800680090C0F343202070002038BDD6
:107060002DE9FE4F4FF000050C9C90469946060016
:107070008DF800502F46029455D0554818300560C1
:107080005248691E8560C0E900150121C560C0E94C
:10709000045103F077FA4E480068800102D50E20B3
:1070A000BDE8FE8FDFF82CB19BF8000002283CD031
:1070B000601EB0F5006F36D2601E044233D1204608
:1070C000FFF74DFDDFF804910190A9F1140948463E
:1070D0001021C0E900414FF0400AC9E902A5890129
:1070E000C9F8101003F028FA1020FFF73AF800282A
:1070F000D6D13848AB4600890104484602C00D216C
:1071000080E8020C4FF480614846C9F8101003F083
:1071100013FA0D20FFF725F80028C1D12C49086883
:107120004FF0FF3520E02620BAE74FEA58204FF411
:10713000007440EAC958BFE726486D1E0089010463
:10714000484602C00D2180E8020C20484FF48061BF
:107150001438C9F8101003F0EFF90D20FFF701F80B
:1071600000289DD11A480068C00502D4002DE3D143
:107170003FE055B348461821C0E900811348C9E9EA
:1071800002AB4FF480615D461438C9F8101003F06B
:10719000D3F91820FEF7E5FF002881D1DFF834A0ED
:1071A0004FF0FF3929468AF802500198A84602019B
:1071B00006484D46C0F80090C0E901420122C16076
:1071C000C0E9041203F0DEF90AE012E0942A00207C
:1071D000142C014030000020FFFF7F0000640240BB
:1071E0009AF8010040F2FF5B28B15746012862D0AF
:1071F00096E0292054E7F9F75CF8FA4CDFF8E493BD
:107200004C3C40F21A6826E04FF4804003F019FA33
:10721000F8B10298C01B20280ED281074FEA9000D7
:1072200000D0401C00214A4603E008CE1360491CF0
:107230003F1D8142F9D309E00020494656F820203D
:107240000A60401C0828F9D3203620376FF04045EB
:1072500001E07DB36D1E216811EA080FD4D008202B
:1072600003F0EFF918B1082003F0F4F956E002201A
:1072700003F0E7F920B1022003F0ECF902200FE758
:10728000102003F0DEF920B1102003F0E3F905200F
:1072900006E74FF40074204603F0D3F920B12046EE
:1072A00003F0D8F90720FBE6F9F705F8584603F094
:1072B000D1F935E032E087F8038087F8028087F85B
:1072C0000480C8484438016840F21A321143016012
:1072D000402221463046FFF709FCC2485438016875
:1072E00041F008010160C04800E06D1E016809011D
:1072F00002D4002DF9D102E00DB1484603E0FFF7BA
:107300006BFB0BE0401E397909B9F97821B128B13E
:10731000F87828B1F878C3E60028F3D10420BFE656
:10732000584603F097F96846FFF75AFE0028A6D1A1
:107330009DF800100729F6D00629F4D0B0E62DE913
:10734000FE4F0600DDE90C454FF0000105FB04F09F
:10735000914698468DF800100F46029040D0A14803
:107360008B4654380160A1484A1E8160C0E9002163
:107370000122C160C0E9041203F004F999486C3895
:107380000068800101D50E208AE69948007802281D
:1073900028D0601EB0F5006F22D2601E04421FD1BB
:1073A0002046FFF7DCFBDFF844A20190AAF1140AA3
:1073B00050461021C0E900414021CAE9021B0901E1
:1073C000CAF8101003F0B8F81020FEF7CAFE002823
:1073D000DAD1012D66D905FB04F8B8F1007F08D396
:1073E00026205DE64FEA59204FF4007440EAC85960
:1073F000D3E77F48007818B1012801D0022828D1AE
:107400007B4800890104CAF800103721CAF804102B
:107410004021CAE9021B75480C011438CAF8104013
:1074200003F08AF83720FEF79CFE0028ACD15046C6
:107430001721C0E900514021CAE9021B6B48CAF874
:107440001040143803F078F81720FEF78AFE002861
:107450009AD150461921C0E900914021CAE9021B86
:10746000624809015C461438CAF8101003F064F849
:107470001920FEF776FE002886D101984FF0FF35DF
:1074800001015A484FF0010BA1460560C0E9018196
:10749000C460C0E9044B03F075F8554C607810B136
:1074A00001287CD0BFE0F8F704FFDFF838B140F2E4
:1074B0001A38ABF14C0B27E04FF4804003F0C1F8D1
:1074C000F8B10298C01B20280ED281074FEA900124
:1074D00000D0491C0020434A03E008CE1360401C42
:1074E0003F1D8842F9D309E03E49002056F820208C
:1074F0000A60401C0828F9D3203620376FF0404539
:1075000002E0002D0CD06D1EDBF8000010EA080F21
:10751000D2D0082003F095F818B1082003F09AF8AB
:107520007FE0022003F08DF820B1022003F092F8F2
:107530000220B5E5102003F084F820B1102003F0FC
:1075400089F80520ACE54FF40075284603F079F87A
:1075500020B1284603F07EF80720A1E54FF48070A3
:1075600003F06FF8C0B1207818B1012801D00228CB
:1075700012D150460C22C0E900924022CAE90229E9
:107580001A4811011438CAF8101002F0D5FF0C2067
:10759000FEF7E7FD0028CCD1F8F78DFE00E004E00F
:1075A00040F2FF5003F056F83DE084F8039084F871
:1075B00002B084F804900B484438016840F21A3253
:1075C00011430160414640223046FFF78FFA0548DB
:1075D0005438016841F00801016029462846024AF2
:1075E00009E00000802C014000640240942A002041
:1075F00030000020401E13681B0102D40028F9D17E
:1076000000E018B9FFF7E8F90BE0491E207908B946
:10761000E07820B129B1E07828B1E07840E5002990
:10762000F3D104203CE540F2FF5003F013F8684624
:10763000FFF7D6FC002885D19DF800100729F6D069
:107640000629F4D02CE52DE9F0414FF4807002F0CA
:10765000F8FF8C4C8C4D4CF23A3610B3A8780021D0
:1076600001280ED0E9708748001F016841F480713D
:1076700001602068B043206001202871E878BDE8EF
:10768000F08182480C22C0E900124022C0E90221A8
:107690001101016102F050FF0C20FEF762FDE8705D
:1076A000E1E7022002F0CDFF40B1022002F0D2FF5C
:1076B0002068B04320600220E870E0E7082002F074
:1076C000C0FF40B1082002F0C5FF2068B043206031
:1076D0000420E870D3E7202002F0B3FF40B120205F
:1076E00002F0B8FF2068B04320600620E870C6E7CB
:1076F000102002F0A6FF40B1102002F0ABFF20687E
:10770000B04320600520E870B9E74FF400773846B1
:1077100002F097FF0028B2D0384602F09BFF2068A5
:10772000B04320600720E870A9E78CE710B504009B
:107730001AD0554855490089000408600D2048605A
:10774000402088600020C8604FF4806008610846CF
:1077500002F0F2FE0D20FEF704FD002803D1494996
:1077600028390968216010BD262010BD08B5002009
:1077700000906846FFF7DAFF08B1FF2008BD0098C7
:10778000C0F3432008BD2DE9FC4781463E48002751
:10779000904600783D460C4608B1E50D4C025FEA84
:1077A00089714FF400701BD00026824615E07002EC
:1077B000021945EBE0733548CDF800A000F1A800B0
:1077C000FFF7D6F9314907465246A831484619F025
:1077D00061FE761C09F50079F6B24645E7D30AE06A
:1077E000B8F1010F0AD0CDE9000822462B464846E1
:1077F000FFF7B8FA07463846BDE8FC8700902246F6
:107800002B464846FFF7B4F9F4E72DE9FC470C4650
:107810001D498046002009781746054609B1E50D47
:1078200064025FEA88724FF400711AD0002689461C
:1078300014E016484A464146A83019F02BFE700263
:10784000021945EBE0731148CDF8009000F1A80053
:10785000FFF706FC761C08F50078F6B2BE42E8D3C6
:10786000CAE7012F07D0CDE9001722462B46404634
:10787000FFF765FDC0E722462B4640460091FFF723
:10788000EFFBB9E73C2C014030000020802A0020AB
:1078900070B514462DED028B82B00E469DED080AA0
:1078A0000546F8EE400A00EE103AB8EE401A80EEB7
:1078B000810ADFEDFE0A20EE208A9FEDFD0AB4EE7C
:1078C000480AF1EE10FA1AD0FAA0CDE9004004EB14
:1078D000440005EB500080B24FF4A073F022FDF796
:1078E000A0FBBCEEC80A10EE100AC2B2642A00D98E
:1078F00064220323314628460094FDF70CFB02B0B6
:107900000020BDEC028B70BD2DE9FF4F002483B039
:107910001F462646A0464FF40A712046DDF840B0C7
:1079200012F0F8FC050001D14FF001084FF4805A25
:107930005146002012F0EEFC5FEA000901D14FF041
:10794000010801223946284617F052FE070041D1AE
:10795000B8F1000F3ED1D8495FEA0B0007D00128EB
:107960000BD002280CD0BBF1030F13D10BE0D34C8A
:1079700041F8014FE86848600CE051F8010F04E05D
:1079800051F8090F01E051F8110F4A6884188C6012
:10799000E868C860D04601AB42464946284617F021
:1079A000E4FE070013D1311942464846FEF71FFB9B
:1079B000BDF804000DF10C0A064400969AE8070091
:1079C000EB68FFF765FFBDF804004045E3D02846AB
:1079D00018F086F82946002012F093FC4946002052
:1079E00012F08FFC384607B0BDE8F08F2DE9FF4F4D
:1079F000DFF8C4B283B0FF2100248BF800101646D4
:107A00006421204612F086FC02904FF48051002041
:107A100012F080FC80464FF40A71002012F07AFCCC
:107A20000746B8F1000F4BD00298002848D0EFB3BA
:107A3000069919F095FCA24D0298E96819F01EFD0F
:107A400001223846029917F0D3FD00B1102406999F
:107A5000029819F085FCA968029819F00FFD01221F
:107A60003846029917F0C4FD08B144F02004069985
:107A7000029819F075FC6968029819F0FFFC012260
:107A80003846029917F0B4FD08B144F04004069955
:107A9000029819F065FCAA462968029819F0EEFCD4
:107AA00001223846029917F0A3FD00E008E008B172
:107AB00044F080043946002012F023FC74B1D6E073
:107AC0003946002012F01DFC0020029912F019FC2A
:107AD0004146002012F015FC052084E779A0CDE98D
:107AE0000060DDE903014FF4A073F022FDF799FA7D
:107AF000002506EB86000399800040F2173901EB60
:107B00005007B8B24B46324600950499FFF7C0FEC5
:107B100029034FF48052404601F54001FEF7D1F9A8
:107B200000204FF4806100BF58F82020521C03D180
:107B3000401C80B28842F7D3884203D005F54060EC
:107B4000FEF731FA6D1CADB24D45DAD34146002047
:107B500012F0D7FB60A0CDE90060DDE903014FF42E
:107B6000A0794B46F022FDF75CFA0699029819F0CD
:107B7000F7FB5546DAF80C10029819F07FFC00204C
:107B80000090B8B23246029B0499FFF7BDFE28B1BF
:107B90000020029912F0B5FB012024E753A0CDE9A3
:107BA0000060DDE903014B46F022FDF73AFA069941
:107BB000029819F0D5FBA968029819F05FFC012022
:107BC0000090B8B23246029B0499FFF79DFE28B19F
:107BD0000020029912F095FB022004E749A0CDE9AC
:107BE0000060DDE903014B46F022FDF71AFA069921
:107BF000029819F0B5FB6968029819F03FFC022061
:107C00000090B8B23246029B0499FFF77DFE28B17E
:107C10000020029912F075FB0320E4E63FA0CDE9B5
:107C20000060DDE903014B46F022FDF7FAF9069901
:107C3000029819F095FB2968029819F01FFC03209F
:107C40000090B8B23246029B0499FFF75DFE28B15E
:107C50000020029912F055FB0420C4E6AA218BF8FB
:107C6000001021224FF440011348FEF7C0F9002014
:107C7000029912F046FB4146002012F042FB2046DA
:107C8000B1E670B50024FEF7AEF80B4D4FF4400698
:107C9000641CE4B2212231460748FEF712F9287825
:107CA000AA284ED0142002F0CBFE43E00000C842C8
:107CB00000007F4325000000282D00202100C00087
:107CC000C8C8020845726173696E67207365637482
:107CD0006F72732E2E2E20005570646174696E676A
:107CE00020554E4947424B2E42494E005570646123
:107CF00074696E672047424B31322E42494E202034
:107D0000000000005570646174696E672047424B43
:107D100031362E42494E202000000000557064612B
:107D200074696E672047424B32342E42494E202000
:107D3000000000000A2CABD32878AA2801D001202B
:107D400070BD002070BD0000094880470948004709
:107D5000FEE7FEE7FEE7FEE7FEE7FEE7FEE7FEE7FB
:107D6000FEE7FEE704480549054A064B7047000058
:107D70009B07000889010008D89B0120D8AD01208D
:107D8000D8A90120D8A9012028490843284908601A
:107D9000704730B50F22C47801780123FCB1244C20
:107DA000246801F1E02104F4E064C4F5E064C4F364
:107DB0000724C4F10405E2404478AC4085781540BE
:107DC00025432A0181F80024007800F01F018B4030
:107DD0004009800000F1E020C0F8003130BD01F022
:107DE0001F0083404809800000F1E020C0F8803186
:107DF00030BD104A114001430D48001F016070471B
:107E00000B4A121D0029116801D0014300E0814393
:107E1000116070474FF0E0210428086903D020F07A
:107E200004000861704740F00400FAE70000FA051A
:107E30000CED00E080FFFF1F824910B5884206D19B
:107E40000121084600F0AFFA002101205BE07E49E5
:107E5000884206D10121022000F0A5FA002102206B
:107E600051E07A49884206D10121042000F09BFAB2
:107E70000021042047E07649884206D101210820EC
:107E800000F091FA002108203DE07249884206D1B5
:107E90000121102000F087FA0021102033E06E4904
:107EA000884206D10121202000F07DFA0021202007
:107EB00029E06A49884206D10121402000F073FA86
:107EC000002140201FE06649884206D10121802020
:107ED00000F069FA0021802015E06249884202D151
:107EE000012184150AE06049884202D1012144152C
:107EF00004E05E4988420AD101210415204600F0C1
:107F000052FA00212046BDE8104000F04CBA10BDE6
:107F1000F0B50023012403270D6804FA03F215408D
:107F2000954242D1D0F800C05E0007FA06F52CEA6F
:107F3000050CC0F800C091F804C0D0F800E00CFABD
:107F400006FC4CEA0E0CC0F800C091F804C0BCF16D
:107F5000010F02D0BCF1020F1FD1D0F808C02CEAEB
:107F6000050CC0F808C091F805C0D0F808E00CFA7C
:107F700006FC4CEA0E0CC0F808C0D0F804C02CEA8D
:107F8000020CC0F804C0426891F806C00CFA03FC69
:107F90001FFA8CFC42EA0C024260C268AA43C2602B
:107FA000CA79C568B2402A43C2605B1C102BB3D3A8
:107FB000F0BD4FF6FF7101600021017141718171C7
:107FC000C171704708B541F480320092C261C1614D
:107FD0000099C161C169C069009008BD02460020D6
:107FE00012690A4200D001207047006980B27047D0
:107FF0000246002052690A4200D0012070474069C1
:1080000080B2704701837047418370470AB1018392
:108010007047418370474161704742694A404261FD
:1080200070474B07DB0E9A40C90810B500EB810082
:10803000016A0F249C40A1430162016A114301625D
:1080400010BD000000000240000402400008024091
:10805000000C0240001002400014024000180240D0
:10806000001C024000200240002402400028024080
:10807000F848016841F001010160F64A0021083228
:1080800011600268F44B1A400260031DF34A1A6043
:10809000F04BF34A84331A60F04A103A1B1D1A6001
:1080A000026822F480220260EA480C300160181D48
:1080B00001607047E7490022891C0A700870704708
:1080C00002460020510901290CD002290CD0E149B7
:1080D0007431096802F01F02012393400B4200D063
:1080E00001207047DB49F4E7DA497031F1E718B550
:1080F00000204FF4A04400903120FFF7E1FF0099E9
:10810000491C0091A14201D00028F5D03120FFF791
:10811000D7FF002800D0012018BDCE490A6822F000
:10812000F80242EAC00008607047CE490860704714
:10813000C849002270310A700A70012802D0042850
:1081400001D1052008707047C7490860704741EAAF
:1081500082115A0810B5C54B029C03EB0242114331
:10816000014341EA0460BB49091D086010BDBD49D7
:1081700008667047800140EA0170B64984310860A2
:108180007047B84988667047800140EA0160B1498C
:1081900040EA0270883108607047B249086770474A
:1081A000B049C8647047AB4A08321368084323F0EB
:1081B000EC63184310607047A64A083213680843FE
:1081C00023F07843184310607047A24A08321168C0
:1081D00021F003010143116070479E480830006898
:1081E00000F00C0070479B4A0832116821F0F00142
:1081F000014311607047974A0832116821F4E05139
:10820000014311607047934908310A6822F46042C3
:1082100042EAC0000860704770B58E4A08321168A3
:10822000934C11F00C0104D06610042903D00829E6
:1082300003D004601BE0066019E08649091D0B6845
:10824000C3F380550B6803F03F0315B1B6FBF3F39E
:1082500001E0B4FBF3F30C680968C4F388146343CA
:10826000C1F30141491C4900B3FBF1F10160116800
:108270000F2303EA11117F4B5C5C0168E140416010
:108280001468072505EA94241C5D21FA04F484602F
:10829000126805EA52329A5CD140C16070BDC0F3E9
:1082A0000121032908D16B4A0832116821F4F8131F
:1082B0007149014019431160664970310A68C0F381
:1082C0000B0002430A6070476749443908607047F1
:1082D00065494039086070476249C1F85C017047E0
:1082E0005C4A8C321168401E21F01F01014311606D
:1082F000704758498C310A686FF0FF0322F4F85236
:1083000003EB0020104308607047524A8C3211681A
:1083100021F440110143116070474E4A8C321168BC
:1083200021F440010143116070474A4A8C321168C0
:1083300021F440310143116070475049C1F8E00118
:108340007047444A30320029116801D0014300E0EF
:108350008143116070473F4A34320029116801D0CF
:10836000014300E08143116070473A4A38320029E6
:10837000116801D0014300E0814311607047354A24
:1083800040320029116801D0014300E081431160AF
:108390007047304A44320029116801D0014300E09F
:1083A0008143116070472B4A10320029116801D0B7
:1083B000014300E0814311607047264A14320029CE
:1083C000116801D0014300E0814311607047214AE8
:1083D00018320029116801D0014300E08143116087
:1083E00070471C4A20320029116801D0014300E087
:1083F000814311607047174A24320029116801D067
:10840000014300E0814311607047124A5032002955
:10841000116801D0014300E08143116070470D4AAB
:1084200054320029116801D0014300E081431160FA
:108430007047084A58320029116801D0014300E012
:10844000814311607047034A60320029116817D0D8
:10845000014316E000380240FFFFF6EA1030002426
:108460000030002000004742800E47420000FFFF1E
:108470000024F40040000020FFFCFF0F00104742E2
:10848000814311607047194A0029116801D00143E6
:1084900000E081431160704714490C3101280868DD
:1084A00003D020F008000860704740F00800FAE7A9
:1084B0000E4A573A0029117801D0014300E0814368
:1084C0001170704709481030016841F080710160F7
:1084D00070470146054A0020583A12680A4200D007
:1084E00001207047014956390870704764380240CE
:1084F00010B501218C032046FFF77DFF2046BDE823
:1085000010400021FFF777BF1449086070471449F5
:108510000862704710B58A0721F003041149130F50
:1085200021440F22D1F808489A409443C1F80848E2
:10853000D1F8082898400243C1F8082810BD08491E
:10854000C1F8DC0070470849086070470349002003
:1085500020310968C90500D5012070470038014065
:10856000000027420030014000042742FE4910B5B8
:10857000884206D101210846FFF73DFF0021012076
:108580005BE0B0F1804F09D0F84988420DD101215C
:108590000220FFF726FF0021022070E0012108469B
:1085A000FFF71FFF0021012069E0F149884206D151
:1085B00001210420FFF715FF002104205FE0ED49B1
:1085C000884206D101210820FFF70BFF0021082077
:1085D00055E0E949884206D101211020FFF701FF4B
:1085E000002110204BE0E549884206D101212020DE
:1085F000FFF7F7FE0021202041E0E149884206D143
:1086000001210220FFF7F7FE0021022015E0DD49DD
:10861000884202D101210C040AE0DB49884202D1E0
:1086200001214C0404E0D94988420AD101218C047B
:108630002046FFF7E0FE00212046BDE81040FFF78E
:10864000DABED349884206D101214020FFF7C9FE96
:108650000021402013E0CF49884206D1012180202B
:10866000FFF7BFFE0021802009E0CB4988420AD1F4
:10867000841501212046FFF7B4FE00212046BDE805
:108680001040FFF7AEBE10BD30B50288B64BBC4CF3
:1086900098420DD0A0420BD0B0F1804F08D0B34D1E
:1086A000A84205D0B24DA84202D0B24DA84203D193
:1086B00022F070054A882A43AF4DA84206D0AF4D3C
:1086C000A84203D022F440750A892A4302804A68EE
:1086D000C2620A880285984201D0A04201D1897AFB
:1086E00001860121818230BD4FF0FF3141600021C0
:1086F00001800181418081727047018582827047CB
:10870000028822F070020A4302807047416270477B
:10871000C1627047406A7047008D70470029018828
:1087200002D041F0020101E021F002010180704716
:108730000029018802D041F0040101E021F0040188
:10874000018070470029018802D041F0800101E0DA
:1087500021F0800101807047028822F00802028027
:1087600002880A4302807047028822F44072028025
:1087700002880A43028070470029018802D041F034
:10878000010101E021F001010180704730B5028C48
:1087900022F001020284028C8388048B22F0020200
:1087A00024F073050C882C438D8915434A882A438D
:1087B0006D4DA84202D0724DA8420DD122F008059D
:1087C000CA8923F440732A4322F004058A882A4385
:1087D0000D8A1D434B8A2B43838004838968416340
:1087E000028430BD70B5028C22F010020284028C2B
:1087F0008488038B0D8823F4E6464FF6FF7303EA63
:10880000052535438E8922F0200203EA0616164319
:108810004A8803EA02123243534EB04202D0584E05
:10882000B04215D122F08006CA8924F4406403EADC
:108830000212324322F040068A8803EA02123243CF
:108840000E8A03EA860626434C8A03EA84043443EC
:108850008480058389688163028470BD70B5028C51
:1088600022F480720284028C8488838B0D8823F02A
:1088700073031D4322F400738E894FF6FF7202EAE0
:1088800006261E434B8802EA03233343364EB0428A
:1088900002D03B4EB04215D123F40066CB8924F4BC
:1088A000405402EA0323334323F480668B8802EAB0
:1088B000032333430E8A02EA061626434C8A02EA51
:1088C00004143443848085838968C163038470BD44
:1088D00070B5028C22F480520284048C8288838BCF
:1088E0000D8823F4E6464FF6FF7303EA052535436A
:1088F00024F400568C8903EA043434434E8803EA96
:1089000006362643184CA04202D01D4CA04205D189
:1089100022F480440A8A03EA8212224382808583F9
:1089200089680164068470BD0021018041808180D6
:1089300081608181C18101824182704730B501240B
:10894000058C00F118038C40A543058431B3082938
:108950002CD0091FC1F34E001844016848F6FF737C
:108960001940016001681AE0000001400004004065
:1089700000080040000C00400010004000140040BF
:108980000004014000400140004401400048014013
:1089900000180040001C00400020004006E04FF698
:1089A000FF7303EA02221143016030BD03EB510063
:1089B00001684FF68F73194001600168F3E7416366
:1089C000704781637047C163704701647047028BD1
:1089D00022F070020A4302837047028B4FF6FF7346
:1089E00022F4E04203EA0121114301837047828BA4
:1089F00022F070020A4382837047828B4FF6FF7326
:108A000022F4E04203EA0121114381837047028B83
:108A100022F008020A4302837047028B4FF6FF736D
:108A200022F4006203EA0121114301837047828B23
:108A300022F008020A4382837047828B4FF6FF734D
:108A400022F4006203EA0121114381837047028B03
:108A500022F004020A4302837047028B4FF6FF7331
:108A600022F4806203EA0121114301837047828B63
:108A700022F004020A4382837047828B4FF6FF7311
:108A800022F4806203EA0121114381837047028B43
:108A900022F080020A4302837047028B4FF6FF7375
:108AA000C2F30E0203EA0121114301837047828B56
:108AB00022F080020A4382837047828B4FF6FF7355
:108AC000C2F30E0203EA0121114381837047028C35
:108AD00022F002020A4302847047028C22F008024C
:108AE0000A4302847047028C4FF6FF7322F0200283
:108AF00003EA0111114301847047028C4FF6FF73A2
:108B000022F0800203EA0111114301847047028CB4
:108B10004FF6FF7322F4007203EA0121114301842E
:108B20007047028C4FF6FF7322F4006203EA0121C2
:108B3000114301847047028C4FF6FF7322F40052F8
:108B400003EA013111430184704710B50123048CFD
:108B50008B409C430484038C8A401343038410BDE0
:108B600010B50423048C8B409C430484038C8A40FE
:108B70001343038410BD828B22F440628283828B74
:108B80004FF6FF7303EA01210A4382837047828B09
:108B900022F00C028283828B0A4382837047028B0D
:108BA00022F440620283028B4FF6FF7303EA012135
:108BB0000A4302837047F0B5048C24F01004048447
:108BC000078B068C4FF6FF7404EA011527F47347F0
:108BD00004EA0331394304EA02220A4326F0A001E1
:108BE000294341F0100102830184F0BD028B22F081
:108BF0000C020283028B0A43028370472DE9F04185
:108C00000D460E884988AA882B8904460EB3042E87
:108C100026D0082E268C4FF6FF7028D026F48056DA
:108C20002684A78B268C00EA022200EA013127F471
:108C300073473A4300EA0330104326F420420A43C4
:108C400042F48051A0832184E9882046BDE8F041A8
:108C500091E700F062F9E9882046BDE8F041C5E7F8
:108C6000FFF7A9FFE9882046BDE8F04197E726F421
:108C700080762684A78B268C00EA012100EA031067
:108C8000104327F0F307384326F420620A4342F4E6
:108C90008071A0832184E9882046BDE8F04176E711
:108CA00000210180418001228280C18001817047C2
:108CB0002DE9F0410C46002649880746012501B9F7
:108CC0000226A288012A00D10225208823890028B3
:108CD000384610D0FFF76FFFE1883846FFF75FFF97
:108CE00023892A463146384600F017F9E18838468C
:108CF000BDE8F0417AE700F010F9E1883846FFF767
:108D000075FF23892A4631463846FFF754FFE1882C
:108D10003846BDE8F04142E7406B7047806B7047D2
:108D2000C06B7047006C704710B50A884B88CC88C0
:108D30001A438B8823431A430B891A434B89898929
:108D40001A430A43A0F8442010BD0021018041804D
:108D50008180C1800181418181817047002930F883
:108D6000441F02D041F4004101E0C1F30E01018033
:108D700070470029818802D041F0040101E021F010
:108D80000401818070470029818802D041F00101EF
:108D900001E021F0010181807047002A828901D021
:108DA0000A4300E08A43828170478182704702460D
:108DB0000020128A0A4200D001207047C943018274
:108DC000704702460020138A92890B4202EA010290
:108DD00002D0002A00D001207047C94301827047A9
:108DE0001143A0F848107047002A828901D00A4335
:108DF00000E08A43828170470029818802D041F0D7
:108E0000080101E021F0080181807047018921F00B
:108E1000070101817047028922F070020A43028132
:108E2000704700B50346FFF7F6FF188940F00700CA
:108E3000188100BD70B516460D46602904464FF0F6
:108E4000010231460AD000F068F829462046FFF7B3
:108E5000E2FF208940F00700208170BDFFF7ABFEE4
:108E6000F3E730B504894FF6FF7505EA0323134392
:108E7000E4B20B432343038130BD10B50446FFF732
:108E8000F0FF208940F07700208110BD10B5044626
:108E9000FFF7E7FF208940F48040208110BD8288E1
:108EA00022F07002828082880A43828070470289A1
:108EB00022F00702028102890A4302817047028977
:108EC00022F08002028102890A430281704770B554
:108ED0000589048B068C25F007050D434FF6FC41F0
:108EE0000C4040F201110C434FF6FF7101EA0311EF
:108EF00026F022061143314305810483018470BDAD
:108F00000029818802D041F0800101E021F0800138
:108F100081807047A0F85010704770B5048C24F021
:108F200001040484058B048C4FF6FF7606EA0313D4
:108F3000134325F0F3052B4324F00A020A4342F0C1
:108F400001010383018470BDCD4910B5884206D16B
:108F500001211020FFF74FFA0021102020E0C9491D
:108F6000884202D101214C0429E0C749884202D13C
:108F700001218C0423E0C549884202D10121CC049F
:108F80001DE0C349884202D101210C0517E0C14907
:108F9000884209D101212020FFF72DFA002120204D
:108FA000BDE81040FFF727BABB49884202D1012132
:108FB0008C0704E0B94988420AD1012144052046C2
:108FC000FFF70FFA2046BDE810400021FFF709BA6D
:108FD00010BD7FB50446008A0D4620F44051E88854
:108FE00008432082A08941F20C618843A9882A891C
:108FF00011436A8902431143A181A08A20F4407180
:10900000A8890843A0826846FFF706F99C48844275
:1090100002D0A048844201D1039800E00298A189BF
:10902000090400EBC00101EB0010296801D54900DB
:1090300000E08900B0FBF1F26420B2FBF0F109011D
:109040000B096FF018056B4302EB8302A3891D0423
:109050004FF0320306D503EBC202B2FBF0F000F092
:10906000070005E003EB0212B2FBF0F000F00F0086
:10907000084320817FBD4FF416510160002181809B
:10908000C18001810C2242818181704710B5028A22
:109090004C8822F470630A8822438C88C9880C4368
:1090A00022431A43028210BD002101804180818049
:1090B000C18070470029818902D041F4005101E04C
:1090C00021F4005181817047028B02F47F420283B8
:1090D000028B0A43028370470029818902D041F440
:1090E000004101E0C1F30E01818170470029818AAE
:1090F00002D041F4006101E021F4006181827047F7
:10910000C1F30801818070478088C0F30800704770
:10911000028A22F00F020282028A0A430282704708
:109120000029818902D041F0020101E021F0020111
:1091300081817047828922F40062828182890A4398
:1091400082817047028A22F020020282028A0A4348
:10915000028270470029018A02D041F4804101E077
:1091600021F4804101827047818941F001018181B0
:1091700070470029818A02D041F0080101E021F006
:10918000080181827047028BD2B20283028B42EACD
:109190000121018370470029818A02D041F020011A
:1091A00001E021F02001818270470029818A02D0EC
:1091B00041F0100101E021F0100181827047828AA4
:1091C00022F004028282828A0A4382827047002946
:1091D000818A02D041F0020101E021F00201818286
:1091E0007047002A828A01D00A4300E08A438282C3
:1091F000704710B5C1F3421301F01F040121A140D3
:10920000012B07D0022B07D01430002A026805D0AA
:109210000A4304E00C30F8E71030F6E78A430260B6
:1092200010BD0246002012880A4200D0012070477B
:10923000C9430180704730B501F01F0201240025A9
:10924000C1F3421304FA02F2012B0FD0022B0FD00C
:10925000838A4FEA11210088134204FA01F400EADC
:10926000040001D000B10125284630BD8389F0E714
:10927000038AEEE70A0A01219140C9430180704741
:10928000001001400044004000480040004C0040F5
:10929000005000400014014000780040007C004075
:1092A00010B501214C062046FFF77DF82046BDE8A9
:1092B00010400021FFF777B80121016000214160D3
:1092C00081604FF48042C160C0E90412D210816114
:1092D000C0E9071241628162C162016341634022B9
:1092E0008163C0E90F122022C0E91121C164016528
:1092F000416581658022C165C0E918128166C16639
:1093000001674167D2048167C0E91F125210C0E9AA
:1093100021211311C0E92331C0F89410C0F898102E
:10932000C0F89C10C0E928125212C0F8A82092017F
:10933000C0F8AC205212C0E92C21C0F8B810704718
:1093400038B500230093F84B1C694FF6FF7504F005
:109350001C0405EAC02020434FF4F86404EA81119C
:10936000014341F003005A611861F0480099491C1B
:1093700000911969C90702D000998142F6D300997A
:10938000814201D1002038BD012038BD18B500222E
:109390000092E54A13694FF6FF7403F01C0304EAD8
:1093A000C02018434FF4F86303EA8111014321F010
:1093B000020040F001001061DC480099491C009156
:1093C0001169C90702D000998142F6D30099814200
:1093D00001D1002018BD506980B218BD2DE9F041BF
:1093E00088B00027D04E009704460597306988461C
:1093F00020F01C0501A8FEF70FFFCD490298CD4AC9
:109400000144914202D245F0080516E0CA49CB4A10
:109410000144914202D245F00C050EE0C849C94A08
:109420000144914209D3C8490844C849884202D23C
:1094300045F0040501E045F0100535614FF40042A8
:1094400000214046FFF77CFF00282DD0C04800F0E7
:1094500075FC2068B0B3B54D05980121401C0590FE
:109460004046FFF793FF400702D40598A842F3D384
:109470000598A84217D04FF4805200214046059726
:10948000FFF75EFF00280FD005980121401C0590D2
:109490004046FFF77BFF800602D40598A842F3D32D
:1094A0000598A84203D1002008B0BDE8F0811F2133
:1094B00040460597FFF76AFFC10604D54FF40061E7
:1094C000216201E008E02762400701D5676113E0EF
:1094D0004FF4804060610FE0206A6169C00840EA93
:1094E000510082B200214046FFF72AFF0028DBD05E
:1094F0006FF07F4000F022FC316896480140D4E9CB
:1095000001021043E26854F8103F1A4310436268A6
:109510001043A2681043E268104322691043626955
:109520001043A2691043E2691043226A1043626A41
:10953000104308433060F4E90A010843D4E90212F9
:10954000114308432169084361690843A16908433D
:10955000E16908437060206AB060606AF060B169D8
:109560004FF641700140D4E90B021043238D626B2A
:1095700042EA03421043A26B1043E26B10430843DC
:10958000B061D4E910010843F06173498A697348F6
:109590000240D4E912031843D4E914352B4318438D
:1095A000A36D1843E36D1843236E1843636E18438D
:1095B000A36E184310438861D4E91B021043626F05
:1095C00054F8783F1A431043626840EA8200A26868
:1095D000104340F400000860086840F08000086014
:1095E000012061E75C490028886902D040F0020050
:1095F00001E020F00200886170475749002888691F
:1096000002D040F4005001E020F40050886170471F
:1096100045490028086802D040F0040001E020F02D
:109620000400086070474C48816941F480118161F1
:1096300070473D490028086802D040F0080001E06A
:1096400020F008000860704700B50120FFF7F1FF27
:10965000FFF7E9FF0120FFF7DBFF0120FFF7CDFF58
:1096600001205DF804EBBDE72F4900208969C90797
:1096700000D0012070472C48816941F001018161CF
:10968000704729490028886902D040F0010001E0B4
:1096900020F0010088617047234A01460020926B48
:1096A0000A4200D0012070471F4A01460020926BF9
:1096B0000A4200D0012070471B4A0029D16B01D01B
:1096C000814300E00143D1637047174B8A881844F7
:1096D00002640A78D1F8011042EA0121416470471E
:1096E000114A0244106C030A4B710871506C020E4F
:1096F000CA70020C8A70020A4A70087070470A4ADF
:1097000000291044016C02D041F0004101E021F039
:10971000004101647047044A08291044016C1FD0BD
:1097200041F080411EE0000000800240FFFF040085
:1097300000D3CEFEC0E1E40040F1E9FD40787D01B8
:1097400000796CFC005A6202001F0AFA80F0FA02EB
:10975000FFFF0F000F8120FF00900240233FDEF843
:1097600021F0804101647047F74A1044026C22F0F6
:109770007C520264026C0A430264704730B5F34BBA
:1097800059680A689C68C2F30D42A568121F012D32
:1097900002D92468A46800E08C68CD685D6002602E
:1097A000C0E9014130BD38B5E84A00240094D2E94F
:1097B000013117E06D1C00951D68AD0507D51D68CA
:1097C000ED0504D40B6001238B60536808E01D682D
:1097D000ED0511D41D68AD050ED48D686D1C8D602E
:1097E000DB6853601D68002D02DB009D052DE1D371
:1097F00004604460846038BD4B608C68641C8C607D
:109800008C68012C00D10B6053681C688D68C4F310
:109810000D44241F012D02D90968896800E0996868
:10982000DD6855600460C0E9011338BDF0B5C74D6F
:10983000002429680A68002A01DA0020F0BD40F2FD
:10984000F453984215D9B0FBF3F6B0FBF3F203FBE7
:10985000160606B1521C012A0BD0C2F10107C7EB54
:10986000C71707EB470700EB8700561EC0F30C072E
:1098700023E00A6842F040520A60C0F30C004860DE
:10988000086840F000400860C868286018E034B9F3
:109890002868D0F800C04CF0805CC0F800C04B6075
:1098A000B44204D1086840F0005008604F60086876
:1098B00040F000400860C968641C9442E7D3296006
:1098C000A3484169490703D5042141610021416052
:1098D0000120F0BDF0B59D4E00244FF0004744F24A
:1098E000F45C551E706013E000EB44131F60C4EB82
:1098F000C41E0EEB4E0E01EB8E0EC3E901CEAC4240
:1099000004D203F1200EC3F80CE000E0D860641C20
:109910009442E9D38E49C8608E48B060F0BD8B4A4E
:10992000506803681146002B896808DB0368DB0573
:1099300005D548608868401C88600120704703682E
:10994000002B0CDB03689B0509D50368DB0506D4F7
:109950000860002048600120886050680BE00368C0
:10996000002B0ADB03689B0507D40368DB0504D4DE
:109970008B685B1C8B60C068506000207047F0B53E
:10998000724C00234FF48016551E206012E000BF79
:1099900000EB43142660C3EBC31707EB470701EB4B
:1099A0008707A760AB4203D204F12007E76000E01D
:1099B000E0605B1C9342EBD365490861F0BD024651
:1099C000002012680A4200D0012070470068C0F3EE
:1099D000C3007047016841F00041016070470029F1
:1099E000016802D041F0804101E021F08041016036
:1099F000704702680A430260704702680A430260C7
:109A000070470029016802D021F0006101E041F0B7
:109A10000061016070470029016802D041F48011A3
:109A200001E021F48011016070470029016802D033
:109A300021F0806101E041F080610160704743687E
:109A400041EA02410B43436070470246002012681E
:109A50000A4200D0012070470246002012690A42E3
:109A600000D001207047016841F00041016070475B
:109A70000068C0F30D407047426811B122F0004108
:109A800001E042F0004141607047406811B1C0F30D
:109A90000C407047C0F30C00704702680021002A98
:109AA00008DB0268120405D40268D20502D50068FA
:109AB000C0F30D410846704725490028086802D0C8
:109AC00040F0800001E020F08000086070472048EE
:109AD000016841F00101016070471D4900200968DB
:109AE000C90700D001207047194A01460020526979
:109AF0000A4200D001207047154948617047144A56
:109B00000029D16901D0014300E08143D161704750
:109B10000F4A0146002052690A4200D001207047D6
:109B20000B49486170470A48406900F001007047DE
:109B30000748406900F040007047054900208969E6
:109B4000C90200D50120704700800240500000206B
:109B5000009002404C2D00207D4A01460020126AF0
:109B60000A42F0D00120EEE77948006AC0F34A408B
:109B7000E9E77748006A80B2E5E77548806CE2E77C
:109B80007348C06CDFE77248006DDCE77048406DD9
:109B9000D9E76F4900204860D5E76D49002088600B
:109BA000D1E76B494862CEE730B50C460546002147
:109BB000FFF7ECFB14B140F4804201E020F4804256
:109BC00000212846FFF7BCFB002800D0012030BD53
:109BD0006048C16A41F00041C162B4E75D4A0021BA
:109BE00050F821309362491C0829F9D3ABE7594951
:109BF0000028C86A02D040F4007001E020F4007030
:109C0000C862A0E7534A01460020D26A0A429AD0AD
:109C1000012098E74F490028C86A02D040F00400AC
:109C200001E020F00400C8628DE74A490028C86AB4
:109C300002D040F0020001E020F00200C86282E79A
:109C400044490028C86A02D040F0010001E020F039
:109C50000100C86277E73F48D0F8001141F03001B9
:109C6000C0F800116FE73B48D0F8001121F0200147
:109C7000C0F80011D0F8001141F01001C0F8001137
:109C800061E734490028D1F8000102D040F0080013
:109C900001E020F00800C1F8000154E72D49002838
:109CA000D1F8000102D040F0040001E020F00400EF
:109CB000C1F8000147E727490028D1F8000102D088
:109CC00020F0020001E040F00200C1F800013AE794
:109CD0002048D0F8001141F00101C0F8001132E72E
:109CE0001C4AC3000BD50029D2F80C1120F080507B
:109CF00001D0814300E00143C2F80C1123E70029A1
:109D0000D2F8101101D0814300E00143C2F81011D4
:109D100019E700210F4AC30002D5D2F8043101E04F
:109D2000D2F80831034204D0D2F80C21024200D10B
:109D30000121084607E70749405804E701B581B00B
:109D400001980090002801D0401EFAE70CBD0000E9
:109D500000900240008002408100A1F1C04148B162
:109D600043F2D200C1F800006FF070404860C1F8C3
:109D7000040170474FF0204243F2DB001060F3E72C
:109D800010B5D0E901121143D0E903231A4311435E
:109D90004269114382691143C2691143026A114346
:109DA000426A1143826A1143C26A1143026B114332
:109DB00002689200A2F1C04211608168082907D1AF
:109DC00001688900A1F1C0410A6842F040020A60BE
:109DD000416BD1E9002342EA03128B688C891B0294
:109DE00043EA04431A430B8A42EA03520B7D896912
:109DF00042EA03620A4301688900A1F1C0414A6056
:109E0000C16AB1F5804F08D000686FF070418000E2
:109E1000A0F1C040C0F8041110BD816BD1E900234E
:109E200042EA03128B680C8A1B0243EA04531A436A
:109E30000B7D896942EA036200680A438000A0F151
:109E4000C040C0F8042110BD00210222C0E9001268
:109E50008160C160016141618161D202C161C0E97B
:109E600008125200C0E90A210163CB4941638163B2
:109E700070478000A0F1C0400029016802D041F085
:109E8000010101E0C54A11400160704710B5182476
:109E900040234FF020414FF0FC32102805D041F80C
:109EA000804F4B608A60CA6010BD0C664B668A6644
:109EB000CA6610BD30B5D0E901121143D0E90323C1
:109EC0001A431143426941EA4221826941EA42311F
:109ED000C26941F00804D2E9001341EA0321138961
:109EE000127B1B0443EA0262036A1143D3E9002593
:109EF00042EA05221D891B7B2D0445EA03631A43B0
:109F000003684FF02040102B04D040F8804F816050
:109F1000C26030BD04668166C26630BD102101603A
:109F2000002141608160C160016141618161C2695C
:109F3000FC211160C2695160C2699160C269D1603F
:109F4000026A1160026A5160026A9160006AC1602F
:109F500070474FF0204251B1102804D052F8800FC2
:109F600040F004000AE0106E40F004000AE08B4963
:109F7000C91E102804D052F8800F084010607047A6
:109F8000106E0840106670474FF0204251B1102803
:109F900004D052F8800F40F040000AE0106E40F00C
:109FA00040000AE07D493F39102804D052F8800F64
:109FB000084010607047106E0840106670474FF000
:109FC0002041102802D0D1F894007047486F7047A4
:109FD0004FF02040182140F8A01F002141604FF0B1
:109FE000FC318160C1600161704710B5D0E9001299
:109FF00041EA42228168102343EA41310A434FF08B
:10A00000204141F8A02FC268D2E9003443EA04237A
:10A010001489127B240444EA026213438B600269B0
:10A02000D2E9003443EA04231489127B240444EA6D
:10A0300002621343CB604069D0E9002342EA032265
:10A040000389007B1B0443EA006002430A6110BDE0
:10A050000021016041608160C268FC211160C2681A
:10A060005160C2689160C268D16002691160026982
:10A070005160026991600269D16042691160426970
:10A080005160426991604069C16070474FF0204162
:10A09000002851F8A00F02D040F0040002E03F4A2F
:10A0A000D21E10400860704710B54FF480744FF016
:10A0B000204372B1102804D0A04205D153F8840F78
:10A0C00004E0586E08430DE053F8A40F08431860ED
:10A0D00010BD102804D0A04206D153F8840F05E02B
:10A0E000586E8843586610BD53F8A40F8843EEE7B6
:10A0F000034600204FF02042102B08D0B3F5807F9C
:10A1000007D0D2F8A4200A4200D001207047526E36
:10A11000F9E7D2F88420F6E74FF02042102807D064
:10A12000B0F5807F08D052F8A40F884310607047C4
:10A13000506E88435066704752F8840FF5E7034627
:10A1400000204FF02042102B0CD0B3F5807F0BD0B5
:10A15000D2F8A4200A4202EAD10102D0002900D09C
:10A1600001207047526EF5E7D2F88420F2E74FF0F5
:10A170002042102808D0B0F5807F0AD052F8A40FF2
:10A1800020EAD10010607047506E20EAD10050667E
:10A19000704752F8840FF3E7D8C80208FEFF0F009B
:10A1A000C14910B5884202D10121841424E0BF497D
:10A1B000884202D10121041404E0BD4988420AD139
:10A1C0000121C4132046FEF70CF92046BDE81040DB
:10A1D0000021FEF706B9B749884202D10121441493
:10A1E0000AE0B549884202D101210C0504E0B349D7
:10A1F00088420AD101214C052046FEF7FCF8204692
:10A20000BDE810400021FEF7F6B810BD30B5028859
:10A210004C8802F441530A88CD8822438C882C4311
:10A2200022430C8922434C8922438C892243CC89C6
:10A2300022431A430280828B22F400628283098ABD
:10A24000018230BDF0B502220023858B01244FF23C
:10A250004006354085830284858B8E68022E42D06D
:10A260008A8802B10224964A13681B0203D5136838
:10A2700023F400031360924A7C3213681268C3F31C
:10A2800088168F4FC2F302733F1F3A683F6802F08F
:10A290003F027F0201D58B4F00E08B4FB7FBF2F2FC
:10A2A0007243B2FBF3F2CB88B3F5007F2BD063018E
:10A2B000B2FBF3F202EB82028B685200B2FBF3F2C4
:10A2C000521D92B20A23B2FBF3F202F00103D21A3A
:10A2D0004FF6FF74C2F34F0204EA0323941EFE2CD0
:10A2E00001D302220023CC881A43144304840A8831
:10A2F0004B881A438B8889890B431A432A4342F4BB
:10A3000000618183F0BD120AD4E700210180418001
:10A310008180C180018141818181C18107210182C8
:10A3200070470021018041808180C18002228260CB
:10A33000818170470029018802D041F0400101E08D
:10A3400021F04001018070470029818B02D041F447
:10A35000806101E021F4806181837047028822F4EA
:10A360000062028002880A4302807047B1F5804F84
:10A37000018803D021F480410180704741F480417D
:10A38000FAE7A1F57E420188FF3A02D041F48071DC
:10A3900001E021F48071018070470029818802D09A
:10A3A00041F0040101E021F004018180704700299F
:10A3B000818802D041F0100101E021F0100181807C
:10A3C000704730B5838B00224FF2400423408383D3
:10A3D00002230384848B0B884FF48075B3F5007FD0
:10A3E00000D003B92A464B888D8889892B431143B5
:10A3F0000B43234343F40061818330BD8089704760
:10A40000818170470029018802D041F4005101E0A8
:10A4100021F4005101807047018841F4805101808E
:10A420007047012901D0008B7047808A7047008AED
:10A430007047002A828801D00A4300E08A43828064
:10A440007047090901238B40002A828899B201D004
:10A450000A4300E08A438280704702460020128946
:10A460000A4200D001207047C9430181704710B5EE
:10A4700001F00F040122034602FA04F40020090946
:10A480008A4091B29A88A4B20A401989214202D026
:10A49000002A00D0012010BD01F00F0201219140DF
:10A4A000C94301817047000000300140003800407E
:10A4B000003C004000340140005001400054014085
:10A4C0000838024000127A000024F40010B501217F
:10A4D000CC022046FDF78FFF2046BDE8104000214A
:10A4E000FDF789BF30B5644B1A6847F6FF618A43B0
:10A4F000017D8468C568214344682C432143046876
:10A500000069214301431143196030BD00210175E9
:10A51000016041608160C160016170475749C1F8C5
:10A52000A00070475449091F086070475248001F37
:10A53000006800F0030070474F4A10B5121D016813
:10A540001160121D1168CB0AD0E901142143D0E932
:10A5500003400443DB0221431943116010BD002175
:10A56000016041608160C1600161704742480C3008
:10A570000068C0B27047404908B5103108440090E7
:10A58000006808BD3C4A10B5203201681160121DF8
:10A5900041681160121D116821F0F703D0E902141F
:10A5A0002143D0E90440044321431943116010BD05
:10A5B0004FF0FF310160002141608160C1600161A5
:10A5C000416170472C482C30006870472A487C3025
:10A5D0000068704728497C3108607047264844303D
:10A5E000006870472649086070472549091D0860C2
:10A5F0007047234908310860704721490C310860D1
:10A6000070471E49C1F8AC0170471C49C1F8B00140
:10A610007047012181431948C0F8B41170471749A8
:10A62000C1F8B80170471649143908607047124ADA
:10A6300038320029116801D0014300E081431160E4
:10A64000704701460C4A0020303212680A4200D09E
:10A650000120704708493431086070470146064AB6
:10A660000020303212680A4200D0012070470249AF
:10A670003431086070470000042C014000802542FE
:10A68000A08525422DE9F043016821F00101016018
:10A690000021016041608160C1600161212141614F
:10A6A000B849B84A3D251039904202D18D60BDE8C5
:10A6B000F083B44A4FF474661832904201D18E6030
:10A6C000F5E7B04A4FF474173032904201D18F60F1
:10A6D000EDE7AC4A4FF0746C4832904202D1C1F8B9
:10A6E00008C0E4E7A74BA84A6033984201D1CA608A
:10A6F000DDE7A44CA54B7834A04201D1CB60D6E76E
:10A70000DFF88082A24C08F19008404501D1CC606E
:10A71000CDE7DFF870824FF03D5908F1A8084045B9
:10A7200002D1C1F80C90C2E79A49DFF86882083973
:10A73000404501D10D60BAE7964D1835A84201D1C8
:10A740000E60B4E7934D3035A84201D10F60AEE7FB
:10A75000904D4835A84202D1C1F800C0A7E78D4D01
:10A760008C496035091FA84201D10A609FE7894AD8
:10A770007832904201D10B6099E7864A903290423C
:10A7800001D10C6093E7834AA83290428FD1C1F87F
:10A7900000908CE730B503687F4ACC6813400A68A4
:10A7A0002243D1E905452C432243CC6922430C6A5C
:10A7B00022434C6A22438C6A22434C6B22438C6BAB
:10A7C00022431A430260426922F00703D1E90B24B5
:10A7D00022431A4342610A6942604A68826089687A
:10A7E000C16030BD0021016041608160C1600161D4
:10A7F00041618161C161016241628162C162016343
:10A800004163816370470029016802D041F0010172
:10A8100001E021F00101016070470029016802D0C8
:10A8200041F4004101E021F400410160704700293A
:10A83000016802D041F0200101E021F02001016017
:10A84000704741607047406880B27047002A0268D4
:10A8500002D042F4002201E022F4002202600161F1
:10A8600070470029016802D041F4802101E021F401
:10A870008021016070470AB101617047C160704773
:10A88000014600200968090300D5012070470146F0
:10A8900000200968C90700D001207047406900F016
:10A8A0003800704702463B4B00209A4202D2354A9C
:10A8B000103A01E0374A103A8B0001D5526800E0A7
:10A8C0001268364B1A400A4200D001207047314AC4
:10A8D000904202D22B48103801E02E4810382F4AFF
:10A8E0008B0001EA020101D5C160704781607047A9
:10A8F0000B0607D5436912B143F0800301E023F052
:10A9000080034361802908D0002A026801F01E01FB
:10A9100001D00A4300E08A430260704730B51D4A07
:10A920000024904202D2174B103B01E0194B103B20
:10A930001B4A114205D01E2202EAD12502682A4094
:10A9400002E0406900F08002880001D5586800E00C
:10A950001868124B1840084201D002B10124204669
:10A9600030BD0C4A904202D20648103801E0094836
:10A9700010380A4A8B0001EA020101D5C160704714
:10A9800081607047106002403D000020400F0020B1
:10A9900000003D20106402403F801CF07D0F7D0FC1
:10A9A0003C0F3C0F0DF040BA0DF071BA0EF07EBFB7
:10A9B000314810B50078012807D10DF002FA0DF0EA
:10A9C000ABFABDE810400DF006BA10BD10B5044654
:10A9D0006FF00400FDF71EFA2849E00841F28832C2
:10A9E000087010FB02F2052048804FF0E02001695A
:10A9F00041F0020101614261016941F0010101611F
:10AA000010BD2DE9F0414FF0E026002477691B4985
:10AA1000097800FB01F50DF007FAB069B1698142D0
:10AA2000FCD002D2A0EB010002E0A7EB010210442F
:10AA300004440846AC42F1D3BDE8F0410DF027BA1A
:10AA400070B504460C48007878B10D48007860B9BC
:10AA50000A4D6888844203D3B4FBF0F00EF026FF61
:10AA60006888B4FBF0F100FB11444FF47A70604346
:10AA7000BDE87040C5E700004F0100205C000020E9
:10AA80004A0100207047704745490A885206FCD5A4
:10AA9000C2B28A807047F0B50646012187B00846E9
:10AAA000FDF74FFC01211020FDF773FC3D4F0722FD
:10AAB00009213846FDF7B5FA07220A213846FDF785
:10AAC000B0FA4FF4C060049002208DF814008DF8A5
:10AAD000150000248DF8164001258DF8175004A9A3
:10AAE0003846FDF715FAADF80440ADF80640ADF86C
:10AAF0000840ADF80C400C20294CADF80A00009637
:10AB000069462046FEF765FA01212046FEF7D2FA93
:10AB100040212046FEF78CFB012240F225512046C1
:10AB2000FEF767FB25208DF8180003208DF819002B
:10AB30008DF81A008DF81B5006A8FDF72AF907B00A
:10AB4000F0BD70B50DF03DF9154C40F22551204691
:10AB5000FEF771FBE0B12046FEF7D6FAC2B212480A
:10AB600001880B0414D44C044FF0000304D50A2AC6
:10AB70000DD141F4004111E00D2A0DD0C1F30D04B7
:10AB80000A4D491C89B22A550180C72900D9038082
:10AB9000BDE870400DF01FB941F480410180F7E736
:10ABA000001001400000024060000020582D0020ED
:10ABB000A94800F0B3BFA94810B5016800200FF004
:10ABC000A0FBA748016800200FF09BFBA54C0020CC
:10ABD00021680FF096FB6168BDE8104000200FF07F
:10ABE00090BB70B503F0BCFF014600200FF092FB54
:10ABF0009A4D43F69C61286000200FF08BFB984E25
:10AC00004FF47A61306000200FF084FB954C4FF4D4
:10AC10000071206000200FF07DFB6060296831B179
:10AC2000316821B1216811B108B1002070BDFFF772
:10AC3000C2FF012070BD70B58B490968C0248471C2
:10AC4000A825C571012202720B23437202230370EF
:10AC50000023437083700E0CC6700E0A067141719A
:10AC60008472C57202731E214173FF218173C17307
:10AC7000017443748474C57402754275837570BD24
:10AC800030B587B0FAF736FB10B9FFF7AAFF10B15D
:10AC9000012007B030BDFAF72FFA08B10220F8E71B
:10ACA000002108460CF00CFF6B481838FFF7C3FF73
:10ACB00000240394049405940FF010FA05466B48A1
:10ACC0006B490094CDE9011005AB04AA03A96248C1
:10ACD00004F05AF8044628460FF004FA3CB15E48E6
:10ACE00004F082F85C4804F0CFF80020D1E703209C
:10ACF000CFE710B5584802F0BAFFBDE81040072072
:10AD00000EF09ABB2DE9FE43534803F04DFA524C26
:10AD10000020183CA07557A016F036F9DFF83881EE
:10AD20005EA016F031F9D8E90157D8F80C60002D73
:10AD300035D00220A075E078627921798DE807008E
:10AD4000A378627821785AA016F01EF9280E607355
:10AD5000C5F307432373C5F30722E272E9B2A17278
:10AD6000009061A016F010F9380E6074C7F3074325
:10AD70002374C7F30722E273F9B2A173009066A0AF
:10AD800016F002F9300E6075C6F307432375C6F35B
:10AD90000722E274F1B2A17400906BA03FE0D8F8F2
:10ADA0002000407B04283FD9FF20A075A07AD4F86A
:10ADB0000B1040EA0121C8F80410A17BD4F80F2041
:10ADC0006DA041EA0221C8F80810A17CD4F8132034
:10ADD00041EA0221C8F80C1016F0D6F8E078627942
:10ADE00021798DE80700A3786278217830A016F0E9
:10ADF000CBF8607B0090237BE27AA17A66A016F004
:10AE0000C3F8607C0090237CE27BA17B6EA016F0EF
:10AE1000BBF8607D0090237DE27CA17C76A016F0DB
:10AE2000B3F8BDE8FE4364E7FA20FFF709FE77E7D1
:10AE300010B50FF053F904460A4807230021426871
:10AE4000AFF23F1002F5FE720EF065FA2046BDE843
:10AE500010400FF047B90000382E0020A800002055
:10AE60000C01002068000020107AFF1F21790108E2
:10AE700091BB0008D5FDD4DAB2E9D5D2444843509D
:10AE8000B7FECEF1C6F72CC7EBC9D4B5C82E2E2E0F
:10AE90002E2E2E2E2E2E2E2E0D0A0000D5FDD4DAAB
:10AEA000BBF1C8A1B5D8D6B72E2E2E0D0A000000D2
:10AEB000CDF8BFA8656EB5C44D4143B5D8D6B7CE61
:10AEC000AA3A2E2E2E2E2E2E2E2E2E2E2E2E2E2E1A
:10AED0002E2E25642E25642E25642E25642E2564B1
:10AEE0002E25640D0A000000CDA8B9FD444843504A
:10AEF000BBF1C8A1B5BD4950B5D8D6B72E2E2E2E60
:10AF00002E2E2E2E2E2E2E2E2E2E25642E25642E07
:10AF100025642E25640D0A00CDA8B9FD4448435090
:10AF2000BBF1C8A1B5BDD7D3CDF8D1DAC2EB2E2E77
:10AF30002E2E2E2E2E2E2E2E2E2E25642E25642ED7
:10AF400025642E25640D0A00CDA8B9FD4448435060
:10AF5000BBF1C8A1B5BDB5C4C4ACC8CFCDF8B9D894
:10AF60002E2E2E2E2E2E2E2E2E2E25642E25642EA7
:10AF700025642E25640D0A0044484350B7FECEF1E7
:10AF8000B3ACCAB12CCAB9D3C3BEB2CCAC4950B56C
:10AF9000D8D6B7210D0A0000BEB2CCAC4950B5D806
:10AFA000D6B72E2E2E2E2E2E2E2E2E2E2E2E2E2E90
:10AFB0002E2E2E2E2E2E2E2E2E2E25642E25642E57
:10AFC00025642E25640D0A00D7D3CDF8D1DAC2EB63
:10AFD0002E2E2E2E2E2E2E2E2E2E2E2E2E2E2E2E91
:10AFE0002E2E2E2E2E2E2E2E2E2E25642E25642E27
:10AFF00025642E25640D0A00C4ACC8CFCDF8B9D89D
:10B000002E2E2E2E2E2E2E2E2E2E2E2E2E2E2E2E60
:10B010002E2E2E2E2E2E2E2E2E2E25642E25642EF6
:10B0200025642E25640D0A0070B5FF4D00EB8006E7
:10B03000002455F8260018B103F096FF45F8264085
:10B0400005EB8600F9498474C47484604460D1F8C7
:10B050000620C2604989018270BD70B5F24D00249E
:10B0600004EB840005EB8001887C90B1CA7C521C03
:10B07000D2B2CA74F02A06D2012802D0032806D020
:10B0800007E0022A05D32046FFF7CEFF01E00220A9
:10B090008874641CE4B20A2CE2D370BD2DE9F34F2E
:10B0A00085B04FF00A0B00240646DA465F4602944C
:10B0B000D9460194CDF80040DB4904EB840001EB54
:10B0C0008008039098F812500A2F16D0002D24D033
:10B0D000012D08D0022D06D2D5A340F22B12DEA1FD
:10B0E000EDA015F051FF66B13168D8F80400814237
:10B0F00007D160B207B0BDE8F08F002DE8D167B28C
:10B100000BE0012D17D0022D07D398F813000199F9
:10B11000884202D34FFA84FA0190641CE4B20A2CEC
:10B12000CAD3069881074FF0FF30E3D40A2F18D016
:10B130001ADAFCB242E0BC48039950F8210000281A
:10B1400098F8130006D000998842E6D34FFA84F9A4
:10B150000090E2E702998842DFD34FFA84FB029025
:10B16000DBE70699C907C5D0BAF10A0F0FDA0AF072
:10B17000FF04AD4804EB840150F8210090B1ACA36A
:10B1800040F27112CFA1C4A015F0FEFE0AE0BBF19F
:10B190000A0F02DA0BF0FF0404E0B9F10A0FA9DA92
:10B1A00009F0FF040A2C06D3A1A340F28312CBA11D
:10B1B000B9A015F0E9FE2046FFF736FF0A2C06D3AA
:10B1C0009BA340F28712C5A1B3A015F0DDFE9648FF
:10B1D00004EB840100EB8105A87C30B194A34FF40B
:10B1E000C472C3A1ACA015F0CFFE0EB13068686088
:10B1F0000020E8747DE72DE9F041054690F826002F
:10B200004C681E4617468846062806D088A340F29A
:10B21000A312C249A0A015F0B7FE30682060B08824
:10B22000A0803868C4F80600B88860810820A08132
:10B2300041462846AA69BDE8F04110472DE9F04192
:10B24000044690F826001F4616460D46062806D0EE
:10B2500077A340F2C312B2A18FA015F095FE85B37B
:10B26000286870B3214601F09BF950BB2878C0F3E1
:10B2700003100E2826D039462846FFF70FFF002876
:10B280001DDB00EB80016848022300EB8102937410
:10B2900094603368D360B38813820023D37450F86A
:10B2A00021505DB140F82130334604F12702294690
:10B2B0002046FFF7A0FF284603F056FE0020BDE819
:10B2C000F081FFE76FF00D00F9E770B5564D0646C7
:10B2D000002400BF04EB840005EB8000817C29B1D1
:10B2E0008068B04202D12046FFF79EFE641CE4B2A3
:10B2F0000A2CEFD370BD70B51C4615000E4601D068
:10B30000002C06D14AA34FF418728FA162A015F049
:10B310003BFE02213046FFF7C1FE00280DDB42490B
:10B3200000EB800201EB82018A7C022A05D301F145
:10B330000C02091D2A60216070BD4FF0FF3070BD06
:10B340002DE9F84F90468946050010D0B8F80A005C
:10B350002A2867D3D8F804604FF4807A344634F84A
:10B360000E0F50455ED120790628FBD108E030A3AE
:10B3700040F2BB227DA148A015F006FEBDE8F88F83
:10B38000607904284ED1608808284BD1D4F80E008B
:10B390000090A169281D06D0686820B1814202D1C1
:10B3A00001273B4601E00027022304F10802694619
:10B3B0002846FFF743FFE088504503D0B0F5007FF3
:10B3C00030D1DEE0002F2DD0022001F015FEE0800C
:10B3D000D4F80E00A0616868C4F80E0095F8260045
:10B3E000062806D012A340F211324C492AA015F0CB
:10B3F000CBFDA068C4F81200A089E082A06830608C
:10B40000A089B080D9F80010A160B9F80400A0812B
:10B41000D9F80010C6F80610B9F80400708141464A
:10B420002846ABE0B1E000006C2E0020F4C8020812
:10B430002E2E5C4C5749505C6C7769702D312E3440
:10B440002E315C7372635C6E657469665C657468EA
:10B450006172702E630000007374617465203D3D5D
:10B46000204554484152505F53544154455F504524
:10B470004E44494E47207C7C207374617465203EA5
:10B480003D204554484152505F53544154455F5309
:10B490005441424C45000000417373657274696FFA
:10B4A0006E2022257322206661696C6564206174B8
:10B4B000206C696E6520256420696E2025730D0A55
:10B4C000000000006172705F7461626C655B695DB1
:10B4D0002E71203D3D204E554C4C000069203C20F3
:10B4E0004152505F5441424C455F53495A45000018
:10B4F0006172705F7461626C655B695D2E7374610B
:10B500007465203D3D204554484152505F5354419D
:10B5100054455F454D5054590000000080D002084A
:10B520006E657469662D3E6877616464725F6C65F0
:10B530006E203D3D204554484152505F485741449C
:10B5400044525F4C454E00006574685F726574201C
:10B55000213D204E554C4C2026262069705F726597
:10B560007420213D204E554C4C0000006E657469DE
:10B570006620213D204E554C4C000000AA699047A2
:10B5800003E06946284602F0F4FE404603F0ECFC76
:10B59000F4E62DE9F05F9846DDF82CB091468A4636
:10B5A000070009D1AFF2781340F2A542AFF244018F
:10B5B000AFF21C1015F0E8FC00222A21032003F052
:10B5C00030FD060057D070892A2808D2AFF2A013A8
:10B5D0004FF49662FBA1AFF2401015F0D5FC7568F0
:10B5E0000D9805F10E0401F007FDE08097F82600A4
:10B5F000062808D0AFF2C813FF494FF49762AFF2A4
:10B60000681015F0C1FCD8F80010A160B8F804006B
:10B61000A081DBF80010C4F81210BBF80400E0822F
:10B62000D9F800102960B9F80400A880DAF80010F1
:10B63000C5F80610BAF8040068810A983146006817
:10B64000C4F80E000C980068A0614FF48070208050
:10B650000820608006202071042060714FF4C160D2
:10B66000A881BA69384690470446304603F07CFC0E
:10B670002046BDE8F09F4FF0FF30FAE71FB50123E9
:10B68000DE4C021DCDE90213CDE9002400F12703B1
:10B690001946A21FFFF77DFF04B010BD70B5054627
:10B6A0000E46D74802EB820100EB8104A07C022801
:10B6B00008D2AFF284234FF45372D2A1AFF2282004
:10B6C00015F062FCA07C022809D1E07CE42806D3B6
:10B6D000211D2846FFF7D2FF08B90320A07404F10A
:10B6E0000C0305F1270231462846BDE8704082E58B
:10B6F0002DE9F74F82B0884602984FF0FF3B273084
:10B700000090086814465E46029900F049FF002840
:10B710002BD1D8F80000C0F303110E2925D0B8F1C1
:10B72000000F22D0002820D001214046FFF7B6FCB0
:10B7300007001CD4DFF8C8A207EB87090AEB8905CC
:10B74000A87C002815D0012815D002280BD2AFF212
:10B75000203340F21942B7A1AFF2C42015F014FC17
:10B76000A87C012807D034B10CE06FF00D0005B0C3
:10B77000C1E40120A87441460298FFF77FFF064606
:10B78000002CF4D0A87CD04602280AD3B34805F197
:10B790000C0321460770009A0298FFF72CFD06461D
:10B7A00036E0012834D1254640F23E466889298991
:10B7B000884209D1286838B1AFF28C333246A8A14B
:10B7C000AFF22C3015F0E0FB287B01280ED0298940
:10B7D0000022032003F025FC050018D0214603F0C9
:10B7E000ADFF58B1284603F0BFFB10E02D68002DD7
:10B7F000DCD12546204603F023FF45B158F8290047
:10B8000008B103F0B1FB48F82950002600E05E467D
:10B810003046ACE72DE9FC4115460E46040009D13F
:10B82000AFF2F43340F27532AFF2C021AFF298308C
:10B8300015F0AAFB46B9AFF2084340F276328FA169
:10B84000AFF2AC3015F0A0FB45B9AFF21C4340F2AB
:10B8500077328DA1AFF2C03015F096FB0E21304645
:10B8600003F052FD18B16FF00100BDE8FC812146E4
:10B87000286800F095FE10B1604B9B1F3CE02868E3
:10B88000C0F303110E2922D0A168636800EA010207
:10B890000B409A420BD080B2A0F57E41A93906D068
:10B8A00014F10C0F2FD0E06868B304F10C056B4A5B
:10B8B0005349137803EB830001EB8000877C022F50
:10B8C00024D32F684068874220D11A462EE00120F9
:10B8D0008DF8000000208DF801005E208DF8020038
:10B8E00068786B4600F07F008DF80300A8788DF82B
:10B8F0000400E8788DF8050004F12702314620465F
:10B90000FFF779FCB1E76FF00300AEE75FF00000EE
:10B9100000EB800301EB83039F7C022F0BD32F6886
:10B920005B689F4207D1C0B2107002463146204684
:10B93000FFF7B4FE99E7401C40B20A28E8DB324624
:10B9400029462046FFF7D4FE8FE770B504464089AC
:10B950000D460E2833D9606801788689CA0715D04C
:10B96000012906D025490622891F15F0CDFC48B1D2
:10B970000CE0417851B980785E2807D1607B40F0B7
:10B98000100002E0607B40F008006073082E03D0D6
:10B99000B6F5C16F13D196E095F82D0080060ED54F
:10B9A0006FF00D01204603F0AFFC48B1AFF28053B9
:10B9B00040F24F5238A1AFF2205015F0E5FA8EE078
:10B9C0007CE00000636865636B20746861742066C6
:10B9D0006972737420706275662063616E20686F8F
:10B9E0006C6420737472756374206574686172701E
:10B9F0005F6864720000000080D00208FAC8020884
:10BA00006C2E00206172705F7461626C655B6172A4
:10BA1000705F6964785D2E7374617465203E3D20AB
:10BA20004554484152505F53544154455F5354412B
:10BA3000424C45006172705F7461626C655B695D68
:10BA40002E7374617465203D3D2050454E44494E2F
:10BA500047206F7220535441424C45007000002033
:10BA60006E6F207061636B657420717565756573A9
:10BA700020616C6C6F776564210000007120213DAE
:10BA8000204E554C4C0000006970616464722021A6
:10BA90003D204E554C4C000043616E2774206D6F65
:10BAA0007665206F766572206865616465722069CD
:10BAB0006E207061636B65740000000029462046AB
:10BAC00000F0D9FB09E095F82D00800607D5224645
:10BAD00005F127012846FFF733FC002070BD204602
:10BAE00003F042FAF9E7000070B50C460025F9F7BB
:10BAF000E9FB064607E062897019616815F0CAFC27
:10BB0000608924680544002CF5D1A8B2F9F7BCFB84
:10BB100008B1002070BD4FF0FF3070BD2DE9FE432D
:10BB2000814600266846F9F787FBDDE90171009838
:10BB3000884681B20322104603F073FA05000AD04A
:10BB40000446B9196289606815F0A4FC608924680C
:10BB50000644002CF5D14FF00041C8F800103848D9
:10BB60004169090603D5802141610021816065B1E9
:10BB7000D9F81020494628469047040002D02846AC
:10BB800003F0F2F92046BDE8FE834FF0FF30FAE7FC
:10BB900010B5040005D12BA3852235A137A015F0DF
:10BBA000F3F9652084F82E006E2084F82F003E48BB
:10BBB00060613E48A061204600F002F8002010BD00
:10BBC00070B5062180F8261039490A7880F82720B8
:10BBD0004A7880F828208A7880F82920CA7880F866
:10BBE0002A200A7980F82B20497980F82C1040F21D
:10BBF000DC518184322180F82D1000F127010020D2
:10BC0000FDF763FD2B482C4D052201682868FDF7E0
:10BC1000B6FE2A480522016829480068FDF75AFE49
:10BC200000244FF440062868314600EB4410FDF72D
:10BC3000E4FE641C052CF6DBFDF706FD002070BD5C
:10BC4000009002402E2E5C4C5749505C6C77697016
:10BC50002D312E342E315C7372635C6E65746966AF
:10BC60005C65746865726E657469662E63000000B9
:10BC70006E65746966213D4E554C4C004173736589
:10BC80007274696F6E2022257322206661696C656B
:10BC900064206174206C696E6520256420696E20C3
:10BCA00025730D0A0000000015B80008E9BA000865
:10BCB000202E00202800002020000020240000204A
:10BCC0001C0000202DE9FE4F456804468A4628786E
:10BCD0000007870E79428846204603F015FB0028AE
:10BCE0007AD12089042877D36068007800287FD033
:10BCF00008287DD1624901260868C0F303120E2A84
:10BD000000D100268946514600F04AFC00286FD138
:10BD1000002E6DD0208908286AD3204600F038FA1A
:10BD2000002865D12221204603F0EEFA002831D008
:10BD30003946204603F0E8FA18B152A398225BA1D5
:10BD400047E021890022022003F06BF906004FD062
:10BD5000718907F10800814205D24AA3A12260A19E
:10BD60006DA015F011F92146304603F0E7FC18B13B
:10BD700044A3A52273A12CE041463046756803F028
:10BD8000C3FA10B13FA3AB220CE0204603F0ECF85D
:10BD9000344609E06FF02101204603F0B5FA18B1EE
:10BDA00038A3B52271A114E06068D9F80010E960E9
:10BDB0007B4900260968296106704680FF202872A9
:10BDC0006E813946204603F09FFA30B12DA3EC2254
:10BDD00074A151A015F0D8F80AE00121CDE9006165
:10BDE000FF230022CDF808A02549204600F0FCFAE8
:10BDF0002046BDE8FE4F03F0B7B82DE9FE4391465B
:10BE00000E46074600222421012003F00AF905000E
:10BE10002DD06889242806D21AA34FF4A2726AA1F1
:10BE20003DA015F0B1F86C68D7F804801C2226708C
:10BE300084F801900026A680E6806868796808305A
:10BE400015F028FB66806989204600F09BF9608028
:10BE5000D8F80C0002900120CDE90060FF2302AA6F
:10BE60000021284600F02AFB284603F07DF8BDE8B3
:10BE7000FE830A460321C0E70A460B21BDE7000006
:10BE8000840000202E2E5C4C5749505C6C77697002
:10BE90002D312E342E315C7372635C636F72655C7E
:10BEA000697076345C69636D702E630069636D70D0
:10BEB0005F696E7075743A206D6F76696E67207079
:10BEC0002D3E7061796C6F616420746F2069702001
:10BED000686561646572206661696C65640A00006A
:10BEE000636865636B20746861742066697273743B
:10BEF00020706275662063616E20686F6C642073C9
:10BF00007472756374207468652049434D502068CD
:10BF10006561646572000000417373657274696FD6
:10BF20006E2022257322206661696C65642061742D
:10BF3000206C696E6520256420696E2025730D0ACA
:10BF40000000000069636D705F696E7075743A205F
:10BF5000636F7079696E6720746F206E65772070EB
:10BF6000627566206661696C65640A0069636D705C
:10BF70005F696E7075743A20726573746F72696E62
:10BF800067206F726967696E616C20702D3E706109
:10BF9000796C6F6164206661696C65640A000000F9
:10BFA0008000002043616E2774206D6F7665206FDE
:10BFB0007665722068656164657220696E207061C3
:10BFC000636B657400000000636865636B207468D0
:10BFD0006174206669727374207062756620636193
:10BFE0006E20686F6C642069636D70206D6573737B
:10BFF0006167650018B50022ADF8002010F001035C
:10C000000CD000290ADD10F8014B8DF80140491EC3
:10C0100004E000BF30F8024B891E22440129F9DCFC
:10C02000002902DD00788DF80000BDF80000104402
:10C03000010C11FA80F0010C11FA80F023B1C1B2A9
:10C04000C0F3072040EA012080B218BD2DE9F04777
:10C05000002499461746884626460546DDF820A066
:10C0600013E069896868FFF7C5FF2044010C11FAE5
:10C0700080F4A87AC00707D0C6F10100C6B2E0B2CA
:10C08000C4F3072141EA00242D68002DE9D126B12F
:10C09000E0B2C4F3072141EA0024D8F8000014FA02
:10C0A00080F101EB1041386811FA80F101EB104486
:10C0B000484600F0A1FF0444504600F09DFF204494
:10C0C000010C11FA80F0010C11FA80F0C04380B22B
:10C0D000BDE8F0872DE9F05F00249B469246894633
:10C0E000274605460B9E26E0B5F80A80B04500D9E4
:10C0F000B04641466868FFF77DFF0444A6EB0800A0
:10C1000086B247F6FF70864206D333A34FF4B1726E
:10C110003DA140A014F038FF200C10FA84F4A87A56
:10C12000C00707D0C7F10100C7B2E0B2C4F30721CE
:10C1300041EA00242D680DB1002ED5D127B1E0B21F
:10C14000C4F3072141EA0024D9F8000014FA80F171
:10C1500001EB1041DAF8000011FA80F101EB104414
:10C16000584600F049FF04440A9800F045FF204477
:10C17000010C11FA80F0010C11FA80F0C04380B27A
:10C18000BDE8F09F10B5FFF735FFC04380B210BD8A
:10C1900070B500242646054613E069896868FFF7F4
:10C1A00029FF2044010C11FA80F4A87AC00707D0B7
:10C1B000C6F10100C6B2E0B2C4F3072141EA00248F
:10C1C0002D68002DE9D126B1E0B2C4F3072141EA80
:10C1D0000024E04380B270BD2E2E5C4C5749505C69
:10C1E0006C7769702D312E342E315C7372635C6311
:10C1F0006F72655C697076345C696E65745F6368E4
:10C200006B73756D2E63000064656C657465206DDD
:10C2100065000000417373657274696F6E2022259A
:10C220007322206661696C6564206174206C696E9C
:10C230006520256420696E2025730D0A000000002A
:10C2400010B50246AF480AE090F82D10C90706D095
:10C250008168136844680B400C40A3420AD0006810
:10C260000028F1D1A848006818B190F82D10C9072E
:10C2700000D1002010BD2DE9F05F456806460F464D
:10C2800028780421B1EB101F0FD100F00F004FF6FA
:10C29000FF7101EA8009688800F0B0FE72890146EA
:10C2A0004A4502D33089884203D2304602F05CFE10
:10C2B00062E0304602F0CBFF94482969A0F1040AFD
:10C2C0000160EA684FF001083C468346CAF8002046
:10C2D00094F82D00C0070ED0201D0CD0606850B11E
:10C2E000DBF80020824204D02146104600F058F9C5
:10C2F00008B174B116E0B8F1000F04D081484FF0D6
:10C300000008046800E02468BC4200D12468002CC6
:10C31000DED1687A112805D105EB09004088B0F517
:10C32000884F27D0DAF8002062B1D046394610464F
:10C3300000F036F90028B8D198F80000C0F30310D7
:10C340000E28B2D0002CB0D0E88830F0C00005D064
:10C35000304600F0C3FB06000ED07568DFF8AC81F4
:10C360003946A8F110083046C8E9017503F098FC79
:10C3700028B12FE03C46E5E70020BDE8F09F687A51
:10C38000012815D006280ED0112807D05C46394662
:10C39000DBF8000000F004F978B118E039463046C7
:10C3A00006F05BFF16E03946304605F047FB11E02A
:10C3B00039463046FFF786FC0CE02078C0F30310C6
:10C3C0000E2804D0022130467560FFF752FD30463A
:10C3D00002F0CAFD0020C8F80400C8F80800CAF836
:10C3E0000000CBF80000C7E72DE9F84F0546DDE96E
:10C3F0000BA6C089DDF828B0984617468946012863
:10C4000006D043A34FF427724BA14EA014F0BCFDFD
:10C41000002F3ED01421284602F076FF18B16FF0AD
:10C420000100BDE8F88F68896C68142806D238A32B
:10C4300040F2C9224EA143A014F0A6FD84F8088062
:10C4400084F809A0386820614520207084F801B084
:10C45000288900F0D1FDDFF8B48060804FF0000A39
:10C46000A8F11008A4F806A0B8F8000000F0C4FD78
:10C47000A080B8F80000401CA8F80000B9F1000F37
:10C4800002D0D9F8000000B97068E060A4F80AA0F2
:10C4900003E068686F4600690090B08C40B129895C
:10C4A000814205D93A463146284600F0C9FCB8E732
:10C4B00073693A46294630469847B2E72DE9FE436C
:10C4C0000446DDE90A65C089984617468946012871
:10C4D00006D00FA340F2393217A11AA014F054FD70
:10C4E0003846FFF7ADFE50B10096CDE90150434606
:10C4F0003A4649462046FFF777FFBDE8FE836FF0D6
:10C500000300FAE7B0000020B400002084000020FF
:10C510002E2E5C4C5749505C6C7769702D312E344F
:10C520002E315C7372635C636F72655C6970763424
:10C530005C69702E63000000702D3E726566203DC0
:10C540003D203100417373657274696F6E2022253E
:10C550007322206661696C6564206174206C696E69
:10C560006520256420696E2025730D0A00000000F7
:10C57000636865636B2074686174206669727374A4
:10C5800020706275662063616E20686F6C64207332
:10C5900074727563742069705F68647200000000D3
:10C5A000421C12D088B191F82D2092070BD54B6810
:10C5B000834208D0896800EA01020B409A4202D106
:10C5C0000143491C01D0002070470120704710B57D
:10C5D00000F016FD4FF00041084207D04908FBD19A
:10C5E00006E0084201D0002010BD49080029F8D11A
:10C5F000012010BD2DE9FF41884606466F460578AB
:10C6000014F088FC03461A68505D202853D100249A
:10C610000A20302D06D116F8015F782D08D0582D4C
:10C6200006D00820515D202904D0102806D016E03D
:10C63000102011E0303D04FB00540DE081EA810C34
:10C640005FEA0C6C0BD5090701D5612100E041219F
:10C65000691A0A3141EA041416F8015FE2E72E2D47
:10C6600010D01DB11868405DC00725D06846381A43
:10C67000012101EBA00005282BD2DFE800F01C30DF
:10C680000A111A0003A8874215D210C716F8015FD5
:10C69000B9E7B4F1807F0ED2009844EA00641EE04E
:10C6A000B4F5803F07D200980199000640EA0140A6
:10C6B0000DE0FF2C03D9002004B0BDE8F081009804
:10C6C0000199000640EA0140029940EA0120044332
:10C6D00005E02DA3F32237A139A014F055FCB8F1E1
:10C6E000000F04D0204600F08BFCC8F800000120A9
:10C6F000E2E708B56946FFF77DFF08B1009808BD7D
:10C700004FF0FF3008BD2DE9FC4300230068894647
:10C710006C461E464FF00A0C01AD00905FF0000021
:10C7200094F80080B8FBFCF70CFB1787B8FBFCF80B
:10C7300084F8008030372F54401CC0B2B8F1000F8D
:10C74000EED106E01F465B1C974209DA2F5C01F828
:10C75000017B401EC0B2F5D218465B1C904202DB42
:10C760000020BDE8FC832E20761CF6B2641C01F884
:10C77000010B042ED2D3002001F8010C4846F0E74B
:10C7800010221A49BFE700002E2E5C4C5749505C1E
:10C790006C7769702D312E342E315C7372635C635B
:10C7A0006F72655C697076345C69705F6164647235
:10C7B0002E630000756E68616E646C656400000035
:10C7C000417373657274696F6E202225732220662F
:10C7D00061696C6564206174206C696E65202564F4
:10C7E00020696E2025730D0A00000000342F002000
:10C7F00070B50446EE480D464168A14202D1216859
:10C80000416009E035B9EBA340F23912F4A1FBA075
:10C8100014F0BAFB206828602146BDE8704005206E
:10C8200002F0EFB92DE9F047054600240F46A94272
:10C8300005D1E0A3A522FCA1F0A014F0A5FB47B10F
:10C840003868A84205D0DBA3A722FAA1EBA014F018
:10C850009BFB6E684FF480387068818800291AD17C
:10C8600000686860142205F10801706814F012FE77
:10C8700001213046FFF700FB304602F0D8FE0446A7
:10C88000404505D3CBA3B622EFA1DCA014F07CFB7E
:10C89000304602F069FB6E6812E07068B1460668C7
:10C8A000484602F0C4FE0444444505D3C1A3C62251
:10C8B000E5A1D2A014F068FBA4B2484602F054FBF4
:10C8C000002EEAD139462846FFF792FFB84D288856
:10C8D000A04205D2B7A3CC22E3A1C8A014F054FB18
:10C8E0002888001B28802046BDE8F08770B5B04836
:10C8F000002544680BE0E07F20B1401EE07725462C
:10C90000246804E0204624682946FFF78BFF002CAA
:10C91000F1D170BD2DE9F041A54F884606460024AF
:10C9200000221146154678681AE04369D6F80CC013
:10C93000634509D18369D6F810C0634504D1838962
:10C94000B6F804C0634507D06D1C22B1C37F92F8CE
:10C950001FC0634500D80246036803B1014618466C
:10C960000028E2D11AB11046FFF75CFF04444445A9
:10C9700001DA012DD4DC2046BDE8F0812DE9F04735
:10C980004C680646884600250127608800F036FB83
:10C99000217801F00F01494200EB8109E08800F0A5
:10C9A0002DFBC004D8F80440010C0020206001EBEE
:10C9B0000900A18083B2E38072681FE05068B0F87C
:10C9C00004C061450FD222604DB1B5F806C0614583
:10C9D00078D38088834275D8C5F8008001E0C6F816
:10C9E00004806AB12BE06DD0C28891426AD31DB138
:10C9F000EA88624500D0002702680546002ADDD19A
:10CA000095B1E888A188884206D96AA340F29312BA
:10CA10009CA17AA014F0B8FAC5F80080E888A18833
:10CA200088420CD000270AE0706830B161A340F260
:10CA30009B129CA171A014F0A7FAC6F80480B07FE5
:10CA4000C0073DD0002F3AD072685068808838B94E
:10CA50002046216808E04C68C088A188884201D03F
:10CA600000272CE0216820460029F4D1002F26D091
:10CA700032B950A34FF4DE7298A160A014F084FA8A
:10CA800070684068A04206D14AA340F2BD1293A14B
:10CA90005AA014F079FA206830B146A340F2BF12D0
:10CAA00092A156A014F070FAE088B18B884206D0AB
:10CAB00040A340F2C11296A150A014F065FA384686
:10CAC00012E7FFE7404602F0B2FD39490A88101A22
:10CAD0000880404602F048FA002005E72DE9F14FB2
:10CAE0004FF0000A00984568287800F00F000528EC
:10CAF0005CD1E88800F082FAC0044FEA10496888E7
:10CB000000F07CFA297801F00F01494200EB810026
:10CB10001FFA80F8009802F08AFD254E07463088FB
:10CB200038440A2809D939462846FFF7F3FE002879
:10CB30003CD0308838440A2838D84FF0000B74684D
:10CB40000DE06069E968884207D1A06929698842D7
:10CB500003D1A089A988884204D0A2462468002C69
:10CB6000EFD106E02CB1E88800F048FAC0041ED0EE
:10CB7000F1E0052002F01FF804000AD139462846EA
:10CB8000FFF7C8FEB84211DB052002F014F80400DC
:10CB90000CD0202114F017FD0320E077706820608E
:10CBA0001422294604F108007460D2E01DE1C7E0B8
:10CBB000880000202E2E5C4C5749505C6C776970C1
:10CBC0002D312E342E315C7372635C636F72655C41
:10CBD000697076345C69705F667261672E6300000D
:10CBE00073616E69747920636865636B206C696E2C
:10CBF0006B6564206C697374000000004173736599
:10CC00007274696F6E2022257322206661696C65DB
:10CC100064206174206C696E6520256420696E2033
:10CC200025730D0A000000007072657620213D20FA
:10CC300069707200707265762D3E6E657874203D65
:10CC40003D2069707200000070627566735F6672E5
:10CC5000656564202B20636C656E203C3D20307838
:10CC6000666666660000000069705F7265617373D6
:10CC70005F70627566636F756E74203E3D20636CF5
:10CC8000656E0000636865636B20667261676D6541
:10CC90006E747320646F6E2774206F7665726C619A
:10CCA000700000006E6F2070726576696F7573207A
:10CCB000667261676D656E742C2074686973206D8F
:10CCC0007573742062652074686520666972737478
:10CCD00020667261676D656E7421000073616E6914
:10CCE000747920636865636B0000000076616C698D
:10CCF000646174655F646174616772616D3A6E65E9
:10CD000078745F70627566213D4E554C4C00000092
:10CD100076616C69646174655F6461746167726196
:10CD20006D3A646174616772616D20656E64213D66
:10CD3000646174616772616D206C656E0000000053
:10CD4000E08900F05BF9C00405D01422294604F103
:10CD5000080014F09FFB308838443080A8798006A2
:10CD600006D4A07F40F00100A07709EB0800A08363
:10CD700020460099FFF702FE002834D0A08B142231
:10CD80001430A083606804F10801456828462F68C4
:10CD900014F080FBA08B00F02FF96880A5F806B096
:10CDA000A5F80AB014212846FFF7ECF968816FF066
:10CDB0001309D4F8048009E0494638467D6802F03A
:10CDC000A3FA3946404602F048FC2F68002FF3D101
:10CDD00051462046FFF70CFD404602F028FC318802
:10CDE000081A30804046BDE8F88F009802F0BCF881
:10CDF0000020F8E710B5040008D1AFF2482340F254
:10CE000079226EA1AFF20C2014F0BEF82146BDE8E5
:10CE10001040062001F0F5BE10B5040008D1AFF2B5
:10CE20006C2340F2832268A1AFF2302014F0ACF8FA
:10CE3000606908B102F098F82046BDE81040D9E7D3
:10CE40002DE9F74F8AB004460B9814270025868CED
:10CE500060680690C08800F0D1F8C0F30C0B00F4B5
:10CE60000050089020891438143E1FFA80F8F017FB
:10CE700006EB5070C0F3CF00079605908FE007993E
:10CE8000884501DC012000E00020089ACBF30C016A
:10CE900011430491002827D0404680B2039000221D
:10CEA0001421022002F0BDF85FEA000922D0608957
:10CEB000142808D2AFF2043340F2FB2245A1AFF2AE
:10CEC000C42014F061F81422D9F80400069914F073
:10CED000E1FAD9F804000290606838446060608923
:10CEE000C01B6081039E31E041F40050049005981E
:10CEF000C000D2E74FF0FF300DB0BDE8F08F65897C
:10CF0000B54200D9354605B3062001F054FE0700AE
:10CF10004BD06068CDE900053B460222294603203C
:10CF200002F063F95FEA000A43D0204602F088FB72
:10CF30003048C7E904045146484602F08EFB701B96
:10CF40000604360C04D02468D9E72468002ED6D114
:10CF50002F46049800F050F80299C88003981430C6
:10CF600080B200F049F8029948800298002141817E
:10CF700014210298FFF706F9029948810B98494657
:10CF80000C9A43699847484601F0EEFF0398A8EBD6
:10CF900000001FFA80F8059858441FFA80FBB8F18A
:10CFA000000F7FF46CAF0020A6E7484601F0DCFFDD
:10CFB000A0E73846FFF71EFFF7E700007020213D8D
:10CFC000204E554C4C00000070637220213D204ED5
:10CFD000554C4C0074686973206E656564732061FC
:10CFE000207062756620696E206F6E6520706965BD
:10CFF0006365210019CE000840BA704740BA7047F7
:10D0000000BA704700BA704710B5040002D020691A
:10D0100048B10FE0BDE81040D5A340F2C962DDA1E0
:10D02000E4A013F0B1BFD2A340F2CA62ECA1E1A028
:10D0300013F0AAFF606930B9CDA340F2CB62F2A130
:10D04000DCA013F0A1FF206908B101F08DFF0020E2
:10D050002061606110BD10B5040002D0606948B164
:10D060000FE0BDE81040C2A340F2DE62F0A1D1A003
:10D0700013F08ABFBEA340F2DF62F6A1CDA013F089
:10D0800083FF208B442806D3B9A34FF4DC62FCA1B4
:10D09000C8A013F079FF208B6269FF210244401C75
:10D0A000208382F8F010002105E062690244401CF0
:10D0B000208382F8F010208B4428F6D310BD70B581
:10D0C0000446008B0D46442806D3A9A340F2015222
:10D0D000FBA1B8A013F058FF208B61690144401CEC
:10D0E000208381F8F05070BD70B50E460446018B68
:10D0F000901C08441546442806D99DA340F2F642E8
:10D10000FE49ACA013F040FF208B61690144401C34
:10D11000208381F8F060208B61690144401C2083EA
:10D1200081F8F05070BD70B50446008B0D46801C30
:10D13000442806D98EA34FF4A162F1499DA013F0B3
:10D1400023FF208B6269290A0244401C208382F855
:10D15000F010208B61690144401C208381F8F0505D
:10D1600070BD2DE9F04117460C4606002CD0002C6E
:10D1700035D0206930B17EA340F27E62E1A18DA05E
:10D1800013F002FF606930B179A340F27F62E7A13A
:10D1900088A013F0F9FE00224FF49A752946104634
:10D1A00001F03FFF2061002823D04089A84206D229
:10D1B0006FA340F28662E7A17EA013F0E5FE617BDB
:10D1C000F448002918D01AE069A340F27C62F2A169
:10D1D00078A013F0D9FE6FF00D00BDE8F08164A3D4
:10D1E00040F27D62F4A173A013F0CEFE6FF0050053
:10D1F000F3E74FF0FF30F0E70168491C0160006879
:10D200002060206900254168012061610870616922
:10D210004870616996F8260088706069C57020685A
:10D22000FFF7EEFE6169082F48606069058160695B
:10D2300045816069C56008D0042F06D0032F07D14F
:10D24000207B052801D0042802D161697068C8607C
:10D250006069056160694561606985615FF0000032
:10D2600096F82610814203D9311891F8271000E072
:10D27000002100F11C026369401C80B299541028FF
:10D28000EED3002000F12C016269401C80B255549D
:10D290004028F7D35FF0000000F16C016269401C88
:10D2A00080B255548028F7D36169CB48C1F8EC00AF
:10D2B00025830020626900F1F0015054401C80B2C7
:10D2C0004428F7D3012235212046FFF70DFF3946C8
:10D2D0002046FFF7F4FE00207FE7F8B5046A054614
:10D2E000002060620621204601F084F801222146D8
:10D2F0002846FFF736FF060030D1022239212046AA
:10D30000FFF7F2FEA98C2046FFF70DFF042237211C
:10D310002046FFF7E9FE01212046FFF7D0FE03215A
:10D320002046FFF7CCFE1C212046FFF7C8FE062151
:10D330002046FFF7C4FE2046FFF78DFE208BF0301D
:10D3400081B2206901F083FF00954323A34A21693C
:10D35000606806F0A7F82046FFF756FE607B401C89
:10D36000C0B26073062801D2012139E13AE1000020
:10D370002E2E5C4C5749505C6C7769702D312E34E1
:10D380002E315C7372635C636F72655C646863709A
:10D390002E630000646863705F64656C6574655F2C
:10D3A0006D73673A206468637020213D204E554CB0
:10D3B0004C000000417373657274696F6E20222502
:10D3C0007322206661696C6564206174206C696EEB
:10D3D0006520256420696E2025730D0A0000000079
:10D3E000646863705F64656C6574655F6D73673AEC
:10D3F00020646863702D3E705F6F757420213D203E
:10D400004E554C4C00000000646863705F64656CAE
:10D410006574655F6D73673A20646863702D3E6D57
:10D4200073675F6F757420213D204E554C4C000092
:10D43000646863705F6F7074696F6E5F7472616946
:10D440006C65723A206468637020213D204E554C13
:10D450004C000000646863705F6F7074696F6E5F8A
:10D46000747261696C65723A20646863702D3E6DF8
:10D4700073675F6F757420213D204E554C4C0A0038
:10D48000646863705F6F7074696F6E5F74726169F6
:10D490006C65723A20646863702D3E6F7074696FBA
:10D4A0006E735F6F75745F6C656E203C20444843FB
:10D4B000505F4F5054494F4E535F4C454E0A000049
:10D4C000646863705F6F7074696F6E5F62797465B2
:10D4D0003A20646863702D3E6F7074696F6E735F7D
:10D4E0006F75745F6C656E203C20444843505F4FFD
:10D4F0005054494F4E535F4C454E000008D102082E
:10D50000C4D00208646863705F6372656174655FAC
:10D510006D73673A20646863702D3E705F6F757439
:10D52000203D3D204E554C4C000000006468637067
:10D530005F6372656174655F6D73673A20646863E9
:10D54000702D3E6D73675F6F7574203D3D204E55A5
:10D550004C4C0000646863705F6372656174655F62
:10D560006D73673A20636865636B2074686174202B
:10D57000666972737420706275662063616E2068DC
:10D580006F6C642073747275637420646863705F79
:10D590006D73670090000020646863705F6372655C
:10D5A0006174655F6D73673A206E657469662021EA
:10D5B0003D204E554C4C0000646863705F6372659B
:10D5C0006174655F6D73673A206468637020213D04
:10D5D000204E554C4C0000006382536304C902087E
:10D5E000814000E03C2101EB4100C0EBC1104FF64F
:10D5F000FF7101EAC0004FF4FA7100F2F310B0FBC2
:10D60000F1F060833046F8BD70B5046A0546082124
:10D61000204600F0EFFE002204F124012846FEF728
:10D6200067F8607B4FF4FA71401C607340F2E7309A
:10D63000B0FBF1F0608370BD70B50446008B0D4601
:10D64000001D442808D9AFF2D8234FF4A262FEA1EE
:10D65000AFF2A02013F098FC208B6269290E0244DF
:10D66000401C208382F8F010208B6269290C024450
:10D67000401C208382F8F010208B6269290A024442
:10D68000401C208382F8F010208B61690144401C0B
:10D69000208381F8F05070BDF8B5046A0546012179
:10D6A000204600F0A7FE032221462846FFF759FD39
:10D6B000060048D1022239212046FFF715FDA98C2A
:10D6C0002046FFF730FD042232212046FFF70CFDF3
:10D6D000606AFFF797FC01462046FFF7ADFF042282
:10D6E00036212046FFF700FD206AFFF78BFC01463C
:10D6F0002046FFF7A1FF042237212046FFF7F4FC64
:10D7000001212046FFF7DBFC03212046FFF7D7FC71
:10D710001C212046FFF7D3FC06212046FFF7CFFC53
:10D720002046FFF798FC208BF03081B2206901F091
:10D730008EFD00954323D44A2169606805F0B2FE4E
:10D740002046FFF761FC607B401CC0B26073062876
:10D7500002D20121814000E03C2101EB4100C0EBFD
:10D76000C1104FF6FF7101EAC0004FF4FA7100F2E8
:10D77000F310B0FBF1F060833046F8BDF8B5046AF1
:10D7800005460521204600F035FE032221462846A5
:10D79000FFF7E7FC06001CD1022239212046FFF7E3
:10D7A000A3FCA98C2046FFF7BEFC2046FFF753FCE4
:10D7B000208BF03081B2206901F049FD00954323B0
:10D7C00004F120022169606805F06CFE2046FFF735
:10D7D0001BFC607B401CC0B260730A2804D24FF46B
:10D7E000FA6110FB01F001E044F6206080B24FF4D2
:10D7F000FA7100F2F310B0FBF1F060833046F8BD2F
:10D80000F8B5046A05460421204600F0F3FD032222
:10D8100021462846FFF7A5FC06001BD1022239212C
:10D820002046FFF761FCA98C2046FFF77CFC2046D0
:10D83000FFF711FC208BF03081B2206901F007FD69
:10D8400000954323904A2169606805F02BFE20462D
:10D85000FFF7DAFB607B401CC0B260730A2804D279
:10D860004FF47A7110FB01F001E042F2107080B2C7
:10D870004FF4FA7100F2F310B0FBF1F06083304620
:10D88000F8BD824810B5046825E0216A11B3C88B41
:10D89000421ECA83012806D0226A918B481E9083BB
:10D8A00001290CD016E0216A2046097B012903D00A
:10D8B0000A2901D005290DD1FFF7A2FF0AE0216A4C
:10D8C0002046097B012903D00A2901D0052901D16D
:10D8D000FFF754FF2468002CD7D110BDF8B5046AB7
:10D8E00006460321204600F085FD032221463046EE
:10D8F000FFF737FC050028D1022239212046FFF727
:10D90000F3FB4FF410712046FFF70DFC0422322187
:10D910002046FFF7E9FB606AFFF774FB01462046EB
:10D92000FFF78AFE2046FFF796FB208BF03081B28E
:10D93000206901F08CFC00964323534A21696068FA
:10D9400005F0B0FD2046FFF75FFB607B401CC0B2D6
:10D9500060730A2804D24FF47A7110FB01F001E0E1
:10D9600042F2107080B24FF4FA7100F2F310B0FB83
:10D97000F1F060832846F8BDF8B5046A0546002139
:10D98000204600F037FD002020626062A062E06265
:10D99000A06360632063072221462846FFF7E1FB6E
:10D9A000060013D12046FFF756FB208BF03081B2E2
:10D9B000206901F04CFC0095432304F12002216909
:10D9C000606805F06FFD2046FFF71EFB607B401C82
:10D9D000C0B260730A2804D24FF47A7110FB01F0D0
:10D9E00001E042F2107080B24FF4FA7100F2F310CD
:10D9F000B0FBF1F06083284601F0F9F9244928468C
:10DA000001F083F92249284601F077F92049284698
:10DA100001F077F93046F8BD2DE9FC4105003FD013
:10DA20002C6ABCB3616B4FF03C034F1C4FF4803643
:10DA30004FF001024FF6FF7044D01E31B1FBF3F1FD
:10DA4000B14200D3014626E0646863705F6F707472
:10DA5000696F6E5F6C6F6E673A20646863702D3E0D
:10DA60006F7074696F6E735F6F75745F6C656E2035
:10DA70002B2034203C3D20444843505F4F505449B4
:10DA80004F4E535F4C454E0004C90208B0000020C1
:10DA900000C902080AE00904090CA18311D011E0B1
:10DAA000AFF234734FF46972FAA104E0AFF240733D
:10DAB00040F2A632FEA1AFF2047013F065FABDE8A1
:10DAC000FC81A283A16B4F1C0AD01E31B1FBF3F184
:10DAD000B14200D301460904090CE18300D1E2837D
:10DAE000A28BE18B8A4202D309B10021A183A17BE1
:10DAF00009B1A06A09E094F824107F2901D8FF2019
:10DB000003E0C02901D36FF07F400090E06A0190EC
:10DB100028B9606A0099084040F08070019004F1D3
:10DB20002401284601F0F1F86946284601F0E9F899
:10DB300001A9284601F0E1F8284601F0A5F90A21DB
:10DB4000204600F057FCBAE770B5DF4800250468AE
:10DB50000EE0206A58B1418B012903D9A1F10101DE
:10DB6000418304E003D14583204600F04BFC246848
:10DB7000002CEED170BDF8B5046A0020D34DA06230
:10DB8000E062E978A5F1280609B1F16821632979F5
:10DB900009B1316901E0216B49086163697909B113
:10DBA000716900E0216BA163A16809696162A979CB
:10DBB00021B1B069FFF724FAA0620120A073E879CF
:10DBC00018B1F069FFF71CFAE06200240CE000BF16
:10DBD00006EB8400006AFFF713FA009069462046BE
:10DBE00000F090FC641CE4B22819007A002801D0EF
:10DBF000022CEDD3F8BD70B50C46050008D1AFF688
:10DC0000900340F24D22B2A1AFF6580013F0BCF9D8
:10DC100044B9AFF6A40340F24E22B1A1AFF66C00B6
:10DC200013F0B2F9286A40B1AFF6BC0340F24F22BC
:10DC3000AFA1AFF6800013F0A7F93C21204613F006
:10DC4000C2FC2C6270BD10B5040008D1AFF6E00331
:10DC50004FF418729EA1AFF6A40013F095F9206A54
:10DC6000002803D005F0BDFD0020206210BD10B5D6
:10DC700000281ED050F8204F417B002C21F00801D5
:10DC8000417321D0606818B105F0B6FC00206060D7
:10DC9000A06840B1AFF6281340F2DA429DA1AFF67A
:10DCA000EC0013F071F92046BDE81040002100F0AF
:10DCB000A1BBAFF6441340F2C7429BA1AFF60C10D4
:10DCC000BDE8104013F060B910BD2DE9FE4F0446C9
:10DCD0000020894602900A217C4813F074FCB9F8B0
:10DCE0000A002C2814D3D9F80400A060B9F8080061
:10DCF000DFF8D881F0254F4604E06A1A401A3F68E1
:10DD000095B280B227B17989A942F6D983468AE1D2
:10DD10006FF00100BDE8FE8FA81C80B201907A89E7
:10DD2000681C4FF0FF36824203D90AEB05004078A9
:10DD300003E0386808B1406800783429044663D0AD
:10DD40000BDC032937D003DC39B301290DD129E0DD
:10DD500006293AD0332908D14CE035295DD036293F
:10DD600065D03A296CD03B2974D000242844801C0B
:10DD700085B2002C10D0002000900A2E08D3AFF6F8
:10DD8000102340F2AD526FA1AFF6D81013F0FCF89B
:10DD900018F80600002866D035E100206D1E044604
:10DDA000ADB2E3E7042804D0AFF63C2340F27B5247
:10DDB00026E00626DAE70424042804D2AFF650232E
:10DDC0004FF4B06212E00726D0E7810705D0AFF626
:10DDD000602340F2855260A100E1082800D30824A6
:10DDE000A04205D2AFF678234FF4B1625EA1F5E010
:10DDF0000826BBE7042805D0AFF68C2340F28C52EE
:10DE00005EA1EBE00326B1E7012804D0AFF6A02322
:10DE10004FF4B26207E00026A8E7012805D0AFF66C
:10DE2000B02340F2945258A1D8E001269EE704287E
:10DE300004D0AFF6C4234FF4B362E1E7022695E7BE
:10DE4000042805D0AFF6D82340F29C52D8E701E071
:10DE500004268BE7042804D0AFF6EC234FF4B46219
:10DE6000CEE7052682E7042C01D2224600E00422F8
:10DE700069463846019B01F0E2FC042C07D9A00753
:10DE800006D0AFF6143340F2B35242A1A6E09CE0B4
:10DE90008AE00000646863705F62696E643A206EB5
:10DEA0006574696620213D204E554C4C00000000F1
:10DEB000646863705F62696E643A206468637020AE
:10DEC000213D204E554C4C00B00000206C2F00200E
:10DED0006E6574696620213D204E554C4C00000053
:10DEE0006468637020213D204E554C4C00000000BA
:10DEF0006E6574696620616C726561647920686121
:10DF00007320612073747275637420646863702079
:10DF1000736574007265706C79207761736E277415
:10DF20002066726565640000646863705F73746F77
:10DF3000703A206E6574696620213D204E554C4C28
:10DF400000000000636865636B206465636F64654F
:10DF50005F696478000000006C656E202520342025
:10DF60003D3D2030000000006C656E203E3D206489
:10DF700065636F64655F6C656E0000006C656E20A4
:10DF80003D3D2034000000006C656E203D3D203199
:10DF9000000000006465636F64655F6C656E20253A
:10DFA0002034203D3D203000012108F80610009863
:10DFB000FFF726F8FA49241FE4B241F82600019839
:10DFC000001D80B2761C0190D7E6042C0DD0012CE8
:10DFD0000FD0AFF6644340F2BD52F2A1AFF62C4031
:10DFE00012F0D2FF6FF0050094E60098FFF70AF8F0
:10DFF00001E09DF800000090012008F80600E848C4
:10E00000009940F826107889A84219D8291AABEB54
:10E0100000008DB21FFA80FB5D4519D2BBF1000FE5
:10E0200016D03F6817B1D7F804A00AE0AFF6C04396
:10E0300040F2C952E0A1AFF6844012F0A5FF07E01C
:10E0400037B11AF80510FF2902D05D45FFF464AE20
:10E0500098F8000050B1D2480022006888F80020EB
:10E0600001280DD0022804D0032807D002980028E8
:10E07000BAD000202C2502906C203CE601200290B2
:10E080006C25EC2037E62DE9F041056A0446576817
:10E09000A868164648B1AFF6285340F21162AFF2B5
:10E0A0008C11AFF6F04012F06FFF70894FF000084E
:10E0B0002C2872D3387802286FD1002094F82610CB
:10E0C00008E022183B1892F827201B7F9A4264D15F
:10E0D000401CC0B28142F4D87868FEF793FF2968EB
:10E0E00088425AD131462846FFF7EFFD00BBAC49C4
:10E0F00028314878E0B1AA4A1079052804D00628CA
:10E1000017D0022836D048E0287B012806D0032803
:10E110000BD0042809D0052807D03EE02046FFF7A1
:10E120002AFD2046FFF770FA37E02046FFF774FC1F
:10E1300033E0287B032805D0012803D0042801D030
:10E1400005282AD12046276A00F051FE9F49204623
:10E1500000F0DBFD9D49204600F0CFFD9B492046A5
:10E1600000F0CFFD0C21384600F044F92046FFF7BF
:10E17000B4F812E0287B06280FD1A5F81A802746AC
:10E18000246A887848B19068FEF73AFF2062A06858
:10E19000006960623846FFF77FFA3046C5F80880AC
:10E1A000BDE8F04100F0E0BE70B505006FF00D066F
:10E1B0004ED095F82D002C6A20F0080085F82D002F
:10E1C000800657D5A88C3611B0F5107F52D3002C9D
:10E1D00049D0606808B105F00FFA206940B1AFF688
:10E1E000706340F29E227AA1AFF6386012F0CCFE46
:10E1F000A06848B1AFF6886340F29F22AFF2EC21ED
:10E20000AFF6506012F0C0FE3C21204613F0DBF95F
:10E2100005F006FA606000282CD0017A442241F013
:10E22000200101726949606805F0DFF843226749FF
:10E23000606805F0B3F92A466B49606805F0D9F9C2
:10E240002846FFF74AF8B8B12846FFF710FD11E05D
:10E25000AFF6E46340F27A22AFF28C31AFF6AC60F5
:10E2600012F092FE06E03C2005F089FB040001D08C
:10E270002C62C9E7304670BD15F82D1F41F008012A
:10E28000297070BD30B591B005000CD03C2101A8BB
:10E2900013F099F9082101A800F0ACF8286A70B1D0
:10E2A0004468D4B90BE0AFF6387340F2CE22AFF237
:10E2B000E031AFF6007012F067FE11B030BD05F02E
:10E2C000AFF90400F9D00294207A442240F02000F3
:10E2D00020723E49029805F088F8082201A92846D4
:10E2E000FEF73FFFE0B90222392101A8FEF7FCFE4C
:10E2F000A98C01A8FEF717FF01A8FEF7ACFEBDF838
:10E300001C00F03081B2059800F0A1FF0095432376
:10E31000364A2046059905F0C5F801A8FEF774FEB7
:10E3200002980028C9D005F067F9C6E770B5046AFD
:10E330000546002C1CD0207B002604280FD004DCCE
:10E34000002815D0032804D109E0052807D00A28A1
:10E3500005D066732846BDE87040FEF7BEBF28466C
:10E3600000F045FD66732846BDE87040FFF7B6BA79
:10E3700070BD58B1026A002A11D0137B082B0ED150
:10E380000968526A91420AD100F080B8184B40F2F5
:10E390002532AFF2C441AFF6E47012F0F5BD70471C
:10E3A000442F0020696E76616C6964206465636F38
:10E3B00064655F6C656E00006E65787420706275D0
:10E3C0006620776173206E756C6C000000C90208CE
:10E3D0007062756620705F6F7574207761736E2749
:10E3E000742066726565640087E0000804C902084D
:10E3F00070D30008027B8A42D1D00173002141739F
:10E400004183CCE710B5026A0446117B0C2913D076
:10E41000062911D0012913D008291ED0052928D09A
:10E4200004292AD0032930D1507B022813D2204658
:10E43000BDE81040FFF752BABDE81040FEF74DBFEF
:10E44000507B052804D82046BDE81040FFF724B9CA
:10E450002046FFF791FA2046EEE7507B0128204640
:10E4600003D8BDE81040FFF7CFB8BDE81040FFF774
:10E47000D3BABDE81040FFF781B9507B0828E7D830
:10E480002046BDE81040FFF7BBB910BDF8B5046ADF
:10E4900006460C212046FFF7ADFF042221463046F8
:10E4A000FEF75FFE05001ED1042232212046FEF752
:10E4B0001BFE606AFEF7A6FD01462046FFF7BCF88A
:10E4C0002046FEF7C8FD208BF03081B2206900F0B5
:10E4D000BEFE009643230A4A2169606804F0E2FF09
:10E4E0002046FEF791FD607B4FF4FA71401C60738B
:10E4F00042F60310B0FBF1F060832846F8BD00003F
:10E5000004C9020802280CD2F84A5268002A08D02E
:10E51000002906D00968002903D0F44A0C3242F8D9
:10E52000201070472DE9FE4F16461289B2F5007F84
:10E5300071D81A2A6FD3ED4C00233046A16801F040
:10E540007EF93189884266D1A768A0463888FEF7EF
:10E5500053FD04285FD2C0EBC00000EB8001E4480B
:10E5600000EBC1042078022855D14FF0030984F84C
:10E570000090F87800F00F006071B888FEF73CFD5D
:10E580008346F888FEF738FD0546B8784FF0000A54
:10E59000000666D56079E8BBBBF1010F61D1D8F800
:10E5A000080004F10C010C308B4603464FEA0907C2
:10E5B00010F8012BB7EB921F10D009E091F800C0C2
:10E5C00090F80080C4454CD1521E401CD2B2491C68
:10E5D000002AF3D10278491C002AE9D1184600F03C
:10E5E0003BFA4FF480784FF48069001D37E000BF9C
:10E5F00000F032FA07460068009078680190BDF894
:10E6000000103889ADF80800414520D1BDF802104E
:10E61000414501E025E031E019D1BDF80800484549
:10E6200015D10198FEF7EEFCB249A060884200D9EE
:10E63000A160D7F80A00C4F80C01D4F81031EBB18E
:10E6400004F586715846D4F81421984716E0BDF8B1
:10E650000800FEF7D1FC6D1E3844ADB20A30002D23
:10E66000C6D1D4F810312BB1002104F10C00D4F83C
:10E670001421984784F800A0C4F810A13046BDE8E2
:10E68000FE4F00F071BC38B59B48984C20F0030059
:10E69000A0609AA0FEF72DF800906068002811D1C4
:10E6A00004F0BEFF606000280CD00022974904F0FF
:10E6B0009CFE00229649606804F09BFF694600209A
:10E6C000FFF720FF38BD022804D288490C3101EB46
:10E6D000800000E08D48006870472DE9F0479046C3
:10E6E0000E460446022806D38AA34FF40F7292A165
:10E6F00097A012F049FC7D480C3010EB840702D043
:10E7000050F8240030B983A340F23D229BA190A091
:10E7100012F03AFC00224FF48871104600F081FCA0
:10E7200005004FD0286830B17AA340F243229CA163
:10E7300087A012F029FC6C684FF000094046C4F82D
:10E740000090C4F80490C4F80890FEF755FC24F833
:10E75000020B012004F8020B010224F8081B761EAC
:10E760002346641C002003E0401C04F8012BC0B2C7
:10E7700016F8012F2E2A01D0002AF5D11870307812
:10E780000028EDD104F8019B61F30F0861F31F48E5
:10E79000C4F80080A888201A001D81B2284600F025
:10E7A00056FD524C39463522606804F0F7FE3A4671
:10E7B00035232946606804F0DAFE0446284600F056
:10E7C000D3FB01E04FF0FF342046BDE8F08770B581
:10E7D0000646C0EBC600464900EB800001EBC004D2
:10E7E000042E06D34BA340F2812274A158A012F04C
:10E7F000CBFB2078002842D0C6EBC6013C4B01EB96
:10E80000810103EBC103002501220C3301280CD048
:10E81000022811D003283FD0BDE870403DA340F24C
:10E82000C5226DA14AA012F0AFBB02202070657016
:10E83000A2702846E5700DE0A078401E10F0FF00A1
:10E84000A0701CD1E078401CC0B2E070042806D053
:10E85000A07060783246BDE8704019463DE76078A8
:10E860000146401C02280BD2204E0C3606EB8101DB
:10E870000E1D05D0496819B16070A270E57070BDB9
:10E88000D4F8106126B100211846D4F81421B047FD
:10E890002570C4F8105170BDA068401EA060F7D06C
:10E8A00070BD124810B54068002807D000242046EB
:10E8B000FFF78DFF641CE4B2042CF8D310BD2DE9E2
:10E8C000F047054609489846914640680E4640B1D3
:10E8D0003EB135B1287820B1284612F065FDFF28F9
:10E8E00002D96FF00D0070E786E000009400002070
:10E8F000782F0020803A0900DB3300203230382E98
:10E9000036372E3232322E323232000000C902083F
:10E9100025E500082E2E5C4C5749505C6C776970D9
:10E920002D312E342E315C7372635C636F72655CC3
:10E93000646E732E63000000646E732073657276DC
:10E940006572206F7574206F662061727261790044
:10E95000417373657274696F6E202225732220667D
:10E9600061696C6564206174206C696E6520256442
:10E9700020696E2025730D0A00000000646E73206C
:10E9800073657276657220686173206E6F204950DE
:10E990002061646472657373207365740000000005
:10E9A00070627566206D75737420626520696E20D3
:10E9B0006F6E652070696563650000006172726149
:10E9C0007920696E646578206F7574206F662062A7
:10E9D0006F756E6473000000756E6B6E6F776E20DE
:10E9E000646E735F7461626C6520656E7472792009
:10E9F00073746174653A00002846FDF77AFE411C85
:10EA000020D14A4F002400BFC4EBC40000EB8000BB
:10EA100017F83010032906D107EBC00128460C3146
:10EA200012F0F8FD20B1641CE4B2042CECD30CE02D
:10EA3000C4EBC40000EB800007EBC000D0F80C0171
:10EA4000411C02D030600020BFE6424649462846BD
:10EA5000BDE8F04700F012B85FF0030210F8011BA8
:10EA6000B2EB911F08D002E0491EC9B2401C002938
:10EA7000FAD101780029F1D1401C70472DE9F04707
:10EA80002B4F8246914600203A78284B0646054691
:10EA9000C5EBC50404EB840403EBC40494F800C084
:10EAA000BCF1000F0FD0BCF1030F08D194F804C0E3
:10EAB000A2EB0C0CB44502DD0CF0FF0628466D1CE1
:10EAC000EDB2042DE4D3042D0FD1042807D2C0EBFE
:10EAD000C00404EB840413F83450032D02D04FF02B
:10EAE000FF3072E6054603EBC4040120207022715A
:10EAF000521C3A70C4E94419504612F055FCFF28E4
:10EB000003D2504612F050FC00E0FF2006460246B9
:10EB1000514604F10C0012F0BDFCA119002008734D
:10EB20002846FFF754FE6FF004004EE6782F0020D1
:10EB30009400002010B505F0E7F904F02CFE00F079
:10EB400012F800F0D9F807F09DFC04F085FB01F005
:10EB5000A3F9FFF798FDBDE8104004F0B1BA00003A
:10EB600043F62B107047F0B50020401C80B20F28F0
:10EB7000FBD33148324D314B006805F11E04C01CF7
:10EB800020F003020020074643F82070002109E02E
:10EB900053F82060166043F8202035F81060491CB7
:10EBA000324489B234F810608E42F1D8401C80B2F1
:10EBB0000F28E9D3F0BD70B505460F2808D321A36F
:10EBC00040F29D1228A130A012F0DEF9002070BDA5
:10EBD0000BF084FA0646194850F82540002C0BD05B
:10EBE000216840F82510A00706D016A34FF4D7726D
:10EBF00030A125A012F0C8F930460BF073FA204678
:10EC000070BD70B50C00054614D0A00706D00DA34A
:10EC10004FF4E57230A11CA012F0B6F90BF05EFAC9
:10EC2000064951F82520226041F82540BDE8704092
:10EC30000BF058BA70BD0000A8000020DC350020A1
:10EC400008C902082E2E5C4C5749505C6C776970DD
:10EC50002D312E342E315C7372635C636F72655C90
:10EC60006D656D702E6300006D656D705F6D616C1C
:10EC70006C6F633A2074797065203C204D454D508F
:10EC80005F4D415800000000417373657274696FF5
:10EC90006E2022257322206661696C656420617490
:10ECA000206C696E6520256420696E2025730D0A2D
:10ECB000000000006D656D705F6D616C6C6F633A94
:10ECC000206D656D702070726F7065726C79206157
:10ECD0006C69676E656400006D656D705F66726576
:10ECE000653A206D656D2070726F7065726C792069
:10ECF000616C69676E656400704701B10968C16045
:10ED0000704701B109688160704770B50C00054615
:10ED100028D02068696888421ED07648006809E0DB
:10ED200001686A68914204D1C66801F095FD3046D9
:10ED300000E0C0680028F3D16F48006809E007D000
:10ED4000016829B16A68914202D144B12168016029
:10ED5000C0680028F3D12CB12068686070BD4FF006
:10ED60000001F4E74FF00000F7E770B51D461646C6
:10ED70000446FFF7CAFF31462046FFF7C2FF294687
:10ED80002046BDE87040B8E72DE9F047044608A8E2
:10ED9000984690E8E00091468A462EB957A38F2204
:10EDA0005FA165A012F0F0F800206060A060E06054
:10EDB00084F82D00C4E907506A4D43464A46287836
:10EDC00084F83000401C2870514620462761FFF728
:10EDD000CCFF2046B04710B10020BDE8F08768683E
:10EDE000206020466C60F8E75E498860704790F8C4
:10EDF0002D10CA0707D021F0010180F82D108906D7
:10EE000001D5FCF762BA704710B5040019D094F828
:10EE10002D00C00702D02046FFF7E9FF51484168A6
:10EE2000A14210D12168416006E00A68A24209D1DE
:10EE300022680A60002904D08168A14201D1002122
:10EE4000816010BD11460029EFD110BD10B5010041
:10EE500005D088783038C2B24248406811E00020BE
:10EE600010BD00BF90F83030934209D10B7890F874
:10EE70002E40A34204D14B7890F82F40A342EFD00C
:10EE800000680028EED110BD90F82D10CA070AD1F5
:10EE900041F0010180F82D10CA0604D5890602D57B
:10EEA000011DFCF7EBBB704710B5044690F82D0030
:10EEB000C10614D440F0100084F82D00206A10B16F
:10EEC0002046FFF733FA94F82D00C10707D08006DB
:10EED00005D5211D2046BDE81040FCF7CFBB10BD75
:10EEE00090F82D10CA0603D521F0100180F82D10DE
:10EEF00070470000D4000020D00000202E2E5C4C73
:10EF00005749505C6C7769702D312E342E315C730B
:10EF100072635C636F72655C6E657469662E630014
:10EF20004E6F20696E69742066756E6374696F6ECA
:10EF300020676976656E0000417373657274696F4E
:10EF40006E2022257322206661696C6564206174DD
:10EF5000206C696E6520256420696E2025730D0A7A
:10EF600000000000AC0000202DE9F041040015D0A5
:10EF7000207B60B101280AD0022808D0032806D0DF
:10EF8000ECA340F27B22F4A1F9A011F0FDFF0025D3
:10EF90000BF0A4F80746E08950B110E0E5A340F279
:10EFA0007122FEA1F2A011F0EFFF0020BDE8F08178
:10EFB000E0A340F28A22FCA1EDA011F0E5FFE08978
:10EFC000401E86B2E68138460BF08CF8002E1ED12A
:10EFD000617B207B266889070CD5206930B9D5A3D1
:10EFE0004FF42672F6A1E2A011F0CEFF216920466F
:10EFF000884708E003280CD001280DD002280BD048
:10F00000204604F0EEFB6D1CEDB23400C0D1284662
:10F01000CCE721460E2001E021460D20FFF7F1FD4F
:10F02000F1E72DE9F05F16460F4648B1012809D0F7
:10F03000022809D0032809D0BEA3E822E9A116E0DE
:10F04000362504E0222502E00E2500E000254FF0E1
:10F05000010A4FF00008002E71D0012E70D0022E50
:10F06000FCD0032E07D0B3A34FF4AA72E4A1C0A032
:10F0700011F08AFFA4E00E20FFF79DFD041E78D05A
:10F0800060191330267320F00300C4E90080800764
:10F0900005D0A8A3FA22E1A1B5A011F075FFED1CDF
:10F0A00025F00300C0F500752781BD4201DD38461B
:10F0B00000E028466081616804F5047B01445945FD
:10F0C00006D99CA34FF48072E0A1A9A011F05CFFC7
:10F0D000002D06DC97A340F20312E9A1A4A011F0D1
:10F0E00053FFA4F80EA06089A1463F1A3EE00E200F
:10F0F000FFF761FD05003DD02E7385F80D80C5F842
:10F1000000804FF6FF70C9F80050874206DB89A3E4
:10F110004FF48F72E7A196A011F036FFB8B24FF40A
:10F1200000712881884200D30846688105F11000EB
:10F130006860800709D07FA340F2231201E01DE040
:10F1400041E0E1A18AA011F01FFF618960680144DC
:10F15000594506D977A340F22512BCA184A011F02D
:10F1600013FFA5F80EA06889A9463F1A002FBEDC40
:10F1700035E026E02046FFF7F7FE21E005F1130019
:10F1800020F00301F81C20F00300084480B204F0D2
:10F19000F6FB040014D06019133020F00301616005
:10F1A00027816781C4F8008084F80C80880716D016
:10F1B00060A34FF49F72D0A16DA011F0E5FE0EE0A8
:10F1C0000020BDE8F09F0D20FFF7F5FC041EF8D0ED
:10F1D000C4F8048027816781C4F800802673A4F8EE
:10F1E0000EA084F80D802046EBE770B50028DDE91D
:10F1F00004450DD001280DD002280DD003280DD0D4
:10F200004CA340F28712C7A159A011F0BDFE0CE03B
:10F21000362004E0222002E00E2000E00020C01C86
:10F2200020F003004618AE4201D9002070BD002531
:10F230001D6014B12044586000E05D6002205873E6
:10F24000198159811A730120D881184670BD2DE9A2
:10F25000F0470D46040006D136A34FF4DA72BAA186
:10F2600043A011F091FE207B03280BD0012809D088
:10F2700040B1022806D02FA340F2B512B8A13CA09D
:10F2800011F082FE2089A8423CD92E1A4FF6FF7752
:10F290004FF4E6784FF4E87914E0281A85B2BE42BC
:10F2A00005DB24A34246B5A131A011F06DFE2089F3
:10F2B0003044208124682CB91EA34A46B4A12CA056
:10F2C00011F062FE6089A842E7D3207B90B9608983
:10F2D000A8420FD0A088001B284481B2204604F029
:10F2E000C6FA040006D113A34FF4ED72AEA120A01C
:10F2F00011F04AFE65812581206808B1FFF734FED0
:10F3000000202060BDE8F08770B50D46040006D1EE
:10F3100008A340F2052221A115A011F035FE3DB150
:10F3200034B1002D05DA684281B26089884249E132
:10F330004FE150E12E2E5C4C5749505C6C77697060
:10F340002D312E342E315C7372635C636F72655C99
:10F35000706275662E630000706275665F66726526
:10F36000653A2073616E6520747970650000000055
:10F37000417373657274696F6E2022257322206653
:10F3800061696C6564206174206C696E6520256418
:10F3900020696E2025730D0A000000007020213DB9
:10F3A000204E554C4C000000706275665F667265B9
:10F3B000653A20702D3E726566203E2030000000C8
:10F3C00070632D3E637573746F6D5F667265655F04
:10F3D00066756E6374696F6E20213D204E554C4CEE
:10F3E00000000000706275665F616C6C6F633A20AC
:10F3F0006261642070627566206C617965720000DC
:10F40000706275665F616C6C6F633A206572726FD3
:10F410006E656F7573207479706500007062756633
:10F420005F616C6C6F633A207062756620702D3E70
:10F430007061796C6F61642070726F7065726C7945
:10F4400020616C69676E6564000000006368656335
:10F450006B20702D3E7061796C6F6164202B207081
:10F460002D3E6C656E20646F6573206E6F74206F27
:10F47000766572666C6F77207062756600000000BA
:10F48000504255465F504F4F4C5F42554653495A84
:10F4900045206D75737420626520626967676572C7
:10F4A000207468616E204D454D5F414C49474E4D7B
:10F4B000454E540072656D5F6C656E203C206D6139
:10F4C000785F7531365F7400706275665F616C6C71
:10F4D0006F633A207062756620712D3E7061796CA1
:10F4E0006F61642070726F7065726C7920616C69F5
:10F4F000676E656400000000706275665F616C6C29
:10F500006F633A20706275662D3E7061796C6F6131
:10F51000642070726F7065726C7920616C69676EBF
:10F5200065640000706275665F616C6C6F63656432
:10F530005F637573746F6D3A2062616420706275E9
:10F5400066206C6179657200706275665F726561D4
:10F550006C6C6F633A207020213D204E554C4C005E
:10F56000706275665F7265616C6C6F633A2073617F
:10F570006E6520702D3E74797065000067726F773C
:10F58000203C206D61785F7531365F7400000000AB
:10F59000706275665F7265616C6C6F633A20712092
:10F5A000213D204E554C4C006D656D5F7472696D48
:10F5B0002072657475726E65642071203D3D204E29
:10F5C000554C4C0008D2AFF2942340F20D22F7A123
:10F5D00010E0002070BDA9B2207B626878B10328DA
:10F5E0000DD0022813D0012811D0AFF2B82340F279
:10F5F0003B22F6A1AFF2882011F0C6FC15E0501BAB
:10F6000004F110016060884208D262600DE0002DB4
:10F610000BDA6089884208D3501B606060892844F7
:10F620006081208928442081D3E7012070BD00211A
:10F6300002E0491C0068C9B20028FAD108467047A8
:10F6400010B5040008D00AF049FDE189491CE181A8
:10F65000BDE810400AF046BD10BD70B50D4608B1BA
:10F66000002D0AD1AFF2343340F2ED22DBA1AFF22C
:10F670000030BDE8704011F087BC0446006820B13E
:10F6800021892A8911442181F7E7208961898842EB
:10F6900013D0AFF2603340F2F622DEA1AFF2303089
:10F6A00011F072FC206840B1AFF2783340F2F722DB
:10F6B000E4A1AFF2443011F067FC208929890844A5
:10F6C0002081256070BD10B50C46FFF7C6FF2046AF
:10F6D000BDE81040B4E770B5056801260446002D6A
:10F6E0001AD020896189401A2989884208D0AFF24E
:10F6F000BC334FF44B72D7A1AFF28C3011F044FC05
:10F7000020896189401A2881002020606089208139
:10F710002846FFF729FC064620896189884208D0DF
:10F72000AFF2F03340F23D32D3A1AFF2BC3011F072
:10F730002BFC0EB1002070BD284670BD2DE9F047AE
:10F740004FF000070C4605003E466FF00D0904D04F
:10F750001CB128892189884205D2AFF228434FF491
:10F760005772CBA14FE06FF0050A6889C11B608911
:10F77000801B814201DB80B200E088B28046606875
:10F78000424681196868384411F084FE07EB08008E
:10F7900087B206EB080086B26889B84208D2AFF299
:10F7A0006C4340F26D32C6A1AFF23C4011F0ECFB6D
:10F7B0006089B04208D2AFF2844340F26E32C6A1F3
:10F7C000AFF2544011F0E0FB6089B04201D82468E8
:10F7D00000266889B84202D12D68002765B1002C47
:10F7E00017D060892189884213D1206888B1AFF28F
:10F7F000BC4340F27D3217E0002C1ED0AFF2CC4368
:10F800004FF45E72BBA1AFF2984011F0BDFB4846C9
:10F8100078E585B16889298988420CD1286850B17A
:10F82000AFF2F04340F28232B6A1AFF2BC4011F029
:10F83000ABFB504666E5002C97D1002062E52DE930
:10F84000F047164689464FF0000828B1B9F1000F7D
:10F8500008D0002704462EE0AFF2285340F29D3234
:10F86000B3A104E0AFF2345340F29E32B8A1AFF23C
:10F87000005011F089FB002044E52BB160899842CB
:10F8800002D8181A83B215E06089C01A85B2B54251
:10F8900000D9354660682A46C11809EB070011F007
:10F8A000F9FD08EB05001FFA80F8781987B2701B84
:10F8B00086B2002324680EB1002CDED1404621E53B
:10F8C0002DE9F047904689461646002740B1B9F128
:10F8D000000F0BD00289B24212D26FF00D0011E579
:10F8E000AFF2B05340F2CD32A2A104E0AFF2BC536C
:10F8F00040F2CE32A5A1AFF2885011F045FB26E0D0
:10F90000044640F2D63A18E03CB9AFF2D85352461A
:10F91000A5A1AFF2A45011F037FB60893546A8428B
:10F9200000D2054609EB07012A46606811F0B2FDD6
:10F93000701B86B27819246887B2002EE4D147453F
:10F9400005D0AFF2106340F2E1329DA1D3E7002071
:10F95000D8E470B5044600680B46002818D0218909
:10F9600000221846FFF75DFB050011D02146FFF786
:10F97000E5FE40B1AFF2446340F2FF3296A1AFF230
:10F98000106011F001FB2046FFF7EEFA284670BD2B
:10F99000204670BD02E0891A006889B2002804D0B0
:10F9A00042898A42F7D94068405C7047696E637249
:10F9B000656D656E745F6D61676E697475646520F1
:10F9C0003C3D20702D3E6C656E000000626164203D
:10F9D00070627566207479706500000028682021C7
:10F9E0003D204E554C4C2920262620287420213DB0
:10F9F000204E554C4C29202870726F6772616D6DD6
:10FA000065722076696F6C61746573204150492975
:10FA100000000000702D3E746F745F6C656E203DB9
:10FA20003D20702D3E6C656E20286F66206C6173E2
:10FA300074207062756620696E20636861696E2942
:10FA400000000000702D3E6E657874203D3D204E14
:10FA5000554C4C00702D3E746F745F6C656E203D8C
:10FA60003D20702D3E6C656E202B20712D3E746FF5
:10FA7000745F6C656E000000702D3E746F745F6C77
:10FA8000656E203D3D20702D3E6C656E00000000CF
:10FA9000706275665F636F70793A20746172676532
:10FAA00074206E6F742062696720656E6F75676879
:10FAB00020746F20686F6C6420736F7572636500CB
:10FAC0006F66667365745F746F203C3D20705F7471
:10FAD0006F2D3E6C656E00006F66667365745F66C1
:10FAE000726F6D203C3D20705F66726F6D2D3E6CB5
:10FAF000656E0000705F746F20213D204E554C4CA8
:10FB000000000000706275665F636F7079282920BD
:10FB1000646F6573206E6F7420616C6C6F772070FA
:10FB200061636B657420717565756573210A0000EA
:10FB3000706275665F636F70795F7061727469611E
:10FB40006C3A20696E76616C6964206275660000AB
:10FB5000706275665F636F70795F706172746961FE
:10FB60006C3A20696E76616C6964206461746170BE
:10FB700074720000706275665F74616B653A20692B
:10FB80006E76616C696420627566000070627566ED
:10FB90005F74616B653A20696E76616C696420649C
:10FBA0006174617074720000706275665F74616B7D
:10FBB000653A20696E76616C6964207062756600D2
:10FBC000646964206E6F7420636F707920616C6C5F
:10FBD0002064617461000000706275665F636F701D
:10FBE00079206661696C656400000000F0B5174615
:10FBF0000E46054602E0301A2D6886B225B16889A6
:10FC0000B042F8D900240FE04FF6FF70F0BD301974
:10FC100081B22846FFF7BEFE395D04F10104884237
:10FC200001D0A0B2F0BDA4B29C42F0D30020F0BD40
:10FC3000F0B50746008915468C46411B8EB2D11897
:10FC400088420CD31C4608E02B46624621463846C3
:10FC5000FFF7CCFF30B1204484B2B442F4D94FF660
:10FC6000FF70F0BD2046F0BD70B506460D004FF6A2
:10FC7000FF700CD02978002909D031890446A142AF
:10FC800005D0284611F090FBA04201D3204670BD5C
:10FC900082B229463046BDE870400023C8E7000024
:10FCA0002DE9F04781464068DFF868810026477AF1
:10FCB0003546D8F8004022E0207CB8421CD12CB157
:10FCC000206818B154490968884215D1D4F814C085
:10FCD000BCF1000F10D0514B4A462146A069E047C5
:10FCE00050B14FF00009012635B1E068E860D8F85E
:10FCF0000010E160C8F800402546E4680EB9002C09
:10FD0000DAD13046BDE8F08701B109680160002012
:10FD1000704701B10968416000207047C0E90512D1
:10FD200070472DE9FE430E460446904614213046A6
:10FD3000FFF7EAFA4FF0FF3788B1002211460120A1
:10FD4000FFF76FF9050007D03089002815D031463C
:10FD50002846FFF7B8FC10E03846BDE8FE8335467C
:10FD60006FF013013046FFF7CFFA30B12CA3E72232
:10FD700034A13EA011F008F9EEE74046FCF760FA26
:10FD8000A8B1E4B12168D1B12146227C637ACDE9E2
:10FD900000320290A37A42462846FCF725FB04462F
:10FDA000B54202D02846FFF7DFF82046D5E7B54236
:10FDB00002D02846FFF7D8F86FF00300CDE7011D09
:10FDC000E3E7021DADE713490A68824209D1D26810
:10FDD0000A6008E0D16819B1814201D1C168D160DF
:10FDE0000A46002AF6D101460020FEF70ABF70B588
:10FDF00005460020FEF7DFFE040009D01C2111F0AB
:10FE0000E2FB2574FF20A07202480168E1600460F3
:10FE1000204670BDB8000020840000208000002033
:10FE20002E2E5C4C5749505C6C7769702D312E3406
:10FE30002E315C7372635C636F72655C7261772EE6
:10FE40006300000043616E277420726573746F72E3
:10FE50006520686561646572207765206A757374D2
:10FE60002072656D6F7665642100000041737365D3
:10FE70007274696F6E2022257322206661696C6539
:10FE800064206174206C696E6520256420696E2091
:10FE900025730D0A00000000704710B5040009D05A
:10FEA000606808B1FFF760F82146BDE81040042003
:10FEB000FEF7A7BE10BD10B503E00468FFF7EDFF25
:10FEC00020460028F9D110BD70B50446007E0028F8
:10FED00016D00A2814D0012812D0606F002510B166
:10FEE000FFF742F865674FF0FF30A086E06EFFF73E
:10FEF000E2FF206FFFF7DFFFE5662567A4F86A5091
:10FF000070BD2DE9FC47E74D4FF4FA7A4FF0000839
:10FF1000E868401CE860A878401CA8700027AC691D
:10FF200029E1207E002806D1DFA340F22A32E7A192
:10FF3000F1A011F029F8207E012806D1DAA340F2C1
:10FF40002B32F8A1ECA011F01FF8207E0A2806D170
:10FF5000D5A34FF44B72FEA1E7A011F015F894F869
:10FF60002110A878814201D1E46804E184F82100DD
:10FF70000026227EB146022A03D194F846000628C4
:10FF80001BD094F846100C2919D094F89100C0B1F8
:10FF900094F89010FA4A491CC9B284F89010825C17
:10FFA000914244D384F89080072802D2401C84F800
:10FFB0009100204602F08FFF39E0012643E0012640
:10FFC00035E0B4F93400002801DB401CA086206F26
:10FFD00068B3B4F93400B4F94430984227DB022AFC
:10FFE0000AD0B4F84200B4F9402000EBE200E54A40
:10FFF000515C8840A4F84400A4F83480B4F84C1054
:020000040801F1
:10000000B4F86000814200D208464008A4F84E00CF
:10001000E18EB0EB410F05D24FF6FF7000EA4100D0
:10002000A4F84E00A4F84C10204602F0CBFE207E2F
:10003000062808D1A07FC00605D5606AE968081ABD
:10004000282800D9761C207A000727D5207E04288E
:1000500001D0072822D1CC48D4F88C10EB68084492
:10006000B0FBFAF2606A181A824203D24FF001091B
:10007000761C13E094F8922042F29F4312FB03F2A5
:1000800001EBC201B1FBFAF1814207D2204602F036
:1000900004FF94F89200401C84F89200207E03280C
:1000A00002D0092807D00BE0606AE968081A2828FE
:1000B00006D9761C04E0606AE968081AF028F8D8C6
:1000C000002E3DD02046FFF7FFFEA8695FB18442B5
:1000D00006D175A340F2BA32ACA187A010F054FF4C
:1000E000E068F8600AE0A04206D06FA340F2BE329A
:1000F000B1A181A010F048FFE068A861B9F1000F3C
:1001000009D0A18B608BCDE90001231D2246A16A95
:10011000206D02F00FFE2146D4F81090D4F88860CC
:10012000E4680220FEF76DFD85F800801EB36FF0D5
:1001300009014846B047287800287FF4EFAE1AE05E
:100140002746E468F87F401CC0B2F87797F8201083
:10015000884210D387F81F8085F80080D7F8842064
:1001600032B139463869904729780029E5D110B96C
:10017000384602F005FD002C7FF4D3AE0026EC6972
:1001800032E0207E0A2806D047A340F2EE3295A145
:1001900059A010F0F9FE616AE868401AF02810D9F9
:1001A0002046FFF791FEE86976B1844206D13EA36E
:1001B00040F2FE3297A150A010F0E6FEE068F06039
:1001C0000DE02646E4680FE0A04206D036A340F2D8
:1001D00002429AA148A010F0D7FEE068E8612146EB
:1001E000E4680220FEF70DFD002CCAD1BDE8FC87B3
:1001F00070B50C460168A14202D1C96801600BE0EC
:10020000284806E0C968A14203D1006AE168C160DC
:1002100002E001620029F5D100252046E560FFF7E4
:1002200053FE207E0A280DD001281DD0A07FC107D3
:1002300008D040F00200A077204602F0A1FC207E0A
:10024000012811D0E06E30B117A340F2116285A1F0
:1002500029A010F099FE206F30B113A340F2126272
:1002600086A125A010F090FE257670BD2DE9FC47F3
:1002700004460127007E0B4D4FF0000900290FD0E6
:10028000042801D007280BD1616F21B9A18DA1F5F8
:100290003062683A04D0A07FC00602D402A3FBE01B
:1002A0002FE1FFE0BC0000202E2E5C4C5749505C33
:1002B0006C7769702D312E342E315C7372635C6300
:1002C0006F72655C7463702E630000007463705F0E
:1002D000736C6F77746D723A206163746976652010
:1002E0007063622D3E737461746520213D20434C20
:1002F0004F5345440A000000417373657274696F7F
:100300006E2022257322206661696C656420617409
:10031000206C696E6520256420696E2025730D0AA6
:10032000000000007463705F736C6F77746D723AD5
:1003300020616374697665207063622D3E73746119
:10034000746520213D204C495354454E0A0000005D
:100350007463705F736C6F77746D723A206163744D
:10036000697665207063622D3E7374617465202127
:100370003D2054494D452D574149540A0000000085
:1003800043C9020878C90208B84C0A007463705F58
:10039000736C6F77746D723A206D6964646C65205C
:1003A00074637020213D207463705F6163746976AB
:1003B000655F7063627300007463705F736C6F7766
:1003C000746D723A20666972737420706362203DA6
:1003D0003D207463705F6163746976655F7063620A
:1003E000730000007463705F736C6F77746D723AA2
:1003F0002054494D452D57414954207063622D3E8C
:100400007374617465203D3D2054494D452D57411D
:10041000495400007463705F736C6F77746D723A47
:10042000206D6964646C652074637020213D2074C4
:1004300063705F74775F7063627300007463705FF2
:10044000736C6F77746D723A206669727374207082
:100450006362203D3D207463705F74775F706362F8
:1004600073000000756E73656E74207365676D654B
:100470006E7473206C65616B696E6700756E616385
:100480006B6564207365676D656E7473206C656160
:100490006B696E6700000000B222FCA1AFF2A810E9
:1004A00010F072FDA18B608BCDE90001231D224667
:1004B000A16A206D02F03EFC2046FFF705FDA86909
:1004C000A04202D1C068A86107E0286228B1C068D4
:1004D000A042FAD1296AE068C860C4F80C902F7075
:1004E000207E042805D021460220FEF78AFB00204A
:1004F0007CE60A202076E869E060EC6102F09DFD70
:10050000F5E74FF0050808283FD2DFE800F0041AAD
:10051000242C2C3E3E34608B002678B12869A04202
:1005200002D1C068286107E0286228B1C068A042F3
:10053000FAD1296AE068C860C4F80C90214602200C
:1005400006E000262146D848FFF752FE2146032048
:10055000FEF757FB1EE0D44800262146001DFFF79A
:1005600047FE2F70EAE7204601F035FE060009D16C
:1005700084F8188006E0204601F02DFE060001D127
:100580000920207634B116B104E0002602E02046AE
:1005900002F0F6FA304629E6017E012903D0817F78
:1005A00041F010018177012160E670B50446858D28
:1005B000816AE28E4B19006B40F2B456B24200D908
:1005C000324602449A1A02D4E585181A70BD0A1AF6
:1005D000002A02DD0020E0850DE0451AB5F5803FD8
:1005E00008D3AFF23C3340F25322B0A1AFF2F8206F
:1005F00010F0CAFCE585002070BD70B50446007E91
:100600000D46012808D1AFF260334FF41A72AEA143
:10061000AFF21C3010F0B8FCA08D4FF6FF71081A35
:10062000A84208D2AFF2803340F26A22B0A1AFF202
:10063000383010F0A9FCA08D40F66831284480B213
:10064000A085884200D9A1852046FFF7AEFF40F281
:10065000DA21884208DBA07F40F00200A077204624
:10066000BDE8704002F08CBA70BD10B514000846A9
:1006700006D02189FFF7C1FF2046FEF775FC00E098
:100680000BB1002010BDBDE8104085E72DE9F04119
:10069000456F044600206E7B6067E76F2FB1002333
:1006A0002A4621462069B84705E000232A4621460C
:1006B0001846FFF7DAFF6FF0090728B10A3016D0A5
:1006C00065670020BDE8F081B006FAD5A08DA0F5E1
:1006D0003061683901D0401CA085E56F002DF0D055
:1006E00000231A4621462069A8470A30E9D1384636
:1006F000E8E72DE9F0416C4D143DA878401CA87046
:100700000027AC691FE000BF94F82110A87881424F
:1007100019D084F82100A07FC10709D040F0020061
:10072000A077204602F02CFAA07F20F00300A077EB
:10073000E668606F30B12F702046FFF7A7FF28787A
:100740000028DDD13446002CDED1BBE710B5FFF721
:10075000D0FF554814384178491C4170C80703D070
:10076000BDE81040FFF7CDBB10BD10B50446007EBC
:100770006FF00C03012815D069B1A07F40F0100084
:10078000A0770AB1012110E0606F90B1FEF7ECFB99
:10079000002060670DE062B1032805D0042803D073
:1007A000072801D0184610BD00212046BDE81040A2
:1007B0005CE5002010BD2DE9FC470446007E88461C
:1007C000012808D1AFF220534FF4B77251A1AFF214
:1007D000D84010F0D9FB207E0A2831D0324821467B
:1007E000001DD4F85090A76A2669D4F88850FFF706
:1007F000FFFC2D49012014390870206F08B1FFF764
:100800005AFBE06E08B1FFF756FBB8F1000F09D0B4
:10081000A18B608BCDE90001231D22463946484655
:1008200002F088FA21460220FEF7EBF9002D12D0E3
:1008300002B03046AC46BDE8F0476FF009016047B2
:10084000194821460830FFF7D3FC2146BDE8FC4794
:100850000220FEF7D6B9C9E40121ACE7F0B5124A8F
:100860000023394D4FF6FF764FF44047143A4FF4CA
:10087000804E9088411C9180B04200D19780B2F8A0
:100880000440002055F8201009686AE07063622D6A
:100890003E666C61677320262054465F5258434C75
:1008A0004F53454400000000D00000206E65775F84
:1008B0007263765F616E6E5F776E64203C3D2030C0
:1008C0007866666666000000646F6E277420636158
:1008D0006C6C207463705F72656376656420666F0C
:1008E00072206C697374656E2D7063627300000012
:1008F0007463705F7265637665643A206C656E2020
:10090000776F756C642077726170207263765F77A1
:100910006E640A00646F6E27742063616C6C2074CF
:1009200063705F61626F72742F7463705F61626184
:100930006E646F6E20666F72206C697374656E2DC5
:10094000706362730000000088C90208B1F81AC021
:10095000A44505D15B1C9BB273458AD30020F0BD32
:10096000C9680029F2D1401CC0B204288AD3A0B2C1
:10097000F0BD2DE9F0410446007E04260D46002816
:100980000BD0AFF2DC6340F2B712F4A1AFF2986083
:1009900010F0FAFA6FF0050094E61AB9FFF75EFF5F
:1009A000020005D0F74F002157F82100006814E03D
:1009B0006FF0010086E6438B93420DD148B1036886
:1009C0003BB135B1D5F800C0BCF1000F01D0634593
:1009D00002D16FF0070075E6C0680028EBD1491C12
:1009E000B142E1DB15B1286800B12060E6486283BE
:1009F0000169E160046102F020FB002062E66FF013
:100A00000900704770B50446007E00280AD0AFF296
:100A100068734FF40372DDA1AFF2247010F0B4FAE2
:100A2000002070BD0320FEF7C6F8051EF9D020692E
:100A30002861608B688301202876607E6876207A42
:100A400040F002002872A07AA872607A687220686A
:100A50002860608B80B1CC480169A14202D1C9688D
:100A6000016107E0016229B1C968A142FAD1006AB7
:100A7000E168C1600020E06021460220FEF7C1F875
:100A8000CB486861C04814300168E960056002F035
:100A9000D4FA284670BD10B504460846FBF7D0FBD3
:100AA00038B1808C28B1283880B2844200D22046E8
:100AB0000446204610BDB449D1E9020210448860C2
:100AC00070472DE9F0470446007E1E460D4600287B
:100AD0000CD0AFF62C0340F2B322B6A1AFF2E8700F
:100AE00010F052FA6FF00800BDE8F08735B12868C1
:100AF0006060A2832CB1206818B108E06FF0050097
:100B0000F2E7201DFBF79CFB38B140682060B4F889
:100B10001A80B8F1000F03D006E06FF00300E3E79E
:100B2000FFF79CFE608348B3FFF7C5FF4FF0000955
:100B300044F8289F2946A062401E2062606340F668
:100B40006830A080E080C4F8089020874FF40670D9
:100B5000E081FFF7A0FFE08100EB80004FF6FF711E
:100B6000012701EA4000A784E084A665283C022111
:100B7000204601F0A1FA060003D021E06FF0010049
:100B8000B2E70220804D2076B8F1000F0FD028691F
:100B9000A04202D1C068286107E0286228B1C0687D
:100BA000A042FAD1296AE068C860C4F80C90A8692C
:100BB000E060AC6102F041FA2F70204601F0E0FFE6
:100BC000304691E7417670472DE9F0410546022015
:100BD000FDF7F1FF6C4C060036D100221146E368A8
:100BE000E06906E0466A9E1B964201D33246014602
:100BF000C0680028F6D111B10846FFF72DFE02208B
:100C0000FDF7D9FF06001FD17F2300221146D4F83B
:100C10000CC0A0690DE0467EAE4209D89E4207D8BE
:100C2000476AACEB0707974202D33A460146334680
:100C3000C0680028EFD111B10846FFF70DFE022071
:100C4000FDF7B9FF060033D0942110F0BCFC757697
:100C500041F2D060A6F866000023A6F86830401084
:100C6000B085F0857372FF20B0724FF40670F08685
:100C70000620A6F84400A6F84030A6F84200C01F9F
:100C8000B0860120A6F84C001036FFF714FFB064C0
:100C90003064B063F064E0687061A0787074F373DE
:100CA000AFF23960F0664F48F06786F88230103E48
:100CB000304607E5402087E70161704770B504467C
:100CC000007E0D46012808D1AFF6242340F272526F
:100CD00045A1AFF6DC1010F057F9E56770BD70B5AF
:100CE0000446007E0D46012808D1AFF644234FF498
:100CF000B06247A1AFF6002010F046F9A56770BDBD
:100D000070B50446007E0D46012808D1AFF6682371
:100D100040F28F5248A1AFF6202010F035F9C4F808
:100D2000885070BD4161704770B50446007E15461D
:100D30000E46012808D1AFF6902340F2AE5248A1EA
:100D4000AFF64C2010F020F9C4F8846084F82050ED
:100D500070BD0C493C3951F8200070477463705FD6
:100D600062696E643A2063616E206F6E6C792062F6
:100D7000696E6420696E20737461746520434C4F02
:100D80005345440088C90208BC0000207463705FAA
:100D90006C697374656E3A2070636220616C726571
:100DA00061647920636F6E6E656374656400000032
:100DB000FF0901087463705F636F6E6E6563743A58
:100DC0002063616E206F6E6C7920636F6E6E656359
:100DD000742066726F6D20737461746520434C4F8C
:100DE0005345440000DD6D00696E76616C696420D6
:100DF000736F636B657420737461746520666F72C2
:100E000020726563762063616C6C6261636B0000C5
:100E1000696E76616C696420736F636B65742073AF
:100E20007461746520666F722073656E74206361EF
:100E30006C6C6261636B0000696E76616C69642042
:100E4000736F636B657420737461746520666F7271
:100E5000206572722063616C6C6261636B000000DC
:100E6000696E76616C696420736F636B657420735F
:100E70007461746520666F7220706F6C6C00000086
:100E80002DE9F0470446007E042806D2DFA34FF484
:100E90005872E8A1EEA010F077F8F84D4FF0000678
:100EA0002878C0067DD5B4F86030A06D676DE9681C
:100EB0001A18B7EB010C0BD48F4202D12F69C71B54
:100EC00006D42F69B84217D16868C089984213D9EF
:100ED0006868C389A4F86030B4F86270C08987423A
:100EE00001D2A4F8620061652869A06594F89100B8
:100EF00063B108B184F89160A36C2969C81A00280D
:100F000036DCA4F86460688840B12EE00028F3D194
:100F100084F89060012084F89100EDE7B4F86070E7
:100F2000A06D3844904220D1B4F9340000281CDB75
:100F30008B421AD194F84700411CC9B2814201D9B1
:100F400084F8471094F84700032809D9B4F84C10E6
:100F5000E08E084480B2884201D9A4F84C00D9E060
:100F6000FDD1204601F06DFFD4E084F84760D1E068
:100F700001287DD4226D8A1A002A79DCA27F5307CA
:100F800006D522F00402A277B4F84E20A4F84C2033
:100F900084F84660B4F84220B4F9403002EBE30232
:100FA00000E0F3E0A4F84420A4F86400B4F866205C
:100FB0001044A4F8660084F84760A164207E0428E9
:100FC0004BD3B4F84C00B4F84E108842E18E04D2F2
:100FD000014489B2814207D83FE0494391FBF0F1D7
:100FE000014489B2884238D2A4F84C1035E0386800
:100FF00020677868FEF71BFBB4F86810884206D9B2
:1010000082A34FF47F729EA191A00FF0BDFFB4F8B0
:10101000640050B138698089FBF7F0FFC00704D045
:10102000B4F86400401EA4F864007868FEF7FFFA84
:1010300034F8681F081A20803846FEF72EFF34F86F
:10104000680950B1206F50B9E06E18BB6FA340F231
:10105000074295A17EA00FF097FF206FD0B10069E5
:101060004068FBF7CFFF0746206F0069808900E0EA
:1010700014E0FBF7C3FF800700D001203844276F3E
:10108000398901442869081A0028B0DD17B1A686FD
:10109000E6773FE04FF0FF30A086F9E7A4F8646000
:1010A00038E03868E06608B9A4F86A607868FEF746
:1010B000BEFAB4F86810884206D954A340F22E4212
:1010C0006FA163A00FF060FFB4F8640050B13869FD
:1010D0008089FBF793FFC00704D0B4F86400401E7A
:1010E000A4F864007868FEF7A2FA34F8681F081ABA
:1010F00020803846FEF7D1FE34F8680950B1206FE1
:1011000040B9E06E40B941A340F2374266A150A019
:101110000FF03AFFE06EB8B100694068FBF772FF6C
:101120000746E06E00698089FBF768FF800700D002
:1011300001203844E76E398901442869411A03D4F3
:10114000216D401A0028ACDDA06BF8B1E16B2A6973
:10115000891A1BD55C490988081AB4F94010A0EB1C
:10116000E10000B2014409B2A4F84010002801DAFD
:10117000404200B2B4F94220A0EBA2001044A4F80F
:10118000420000EBE100A4F84400A6636A88002A4C
:1011900039D0207E072836D2A06AE968A946451AC8
:1011A000DFF82881012D2FD40A44821A521C002A0C
:1011B0002ADCD8F8047037B914A340F2964244A14F
:1011C00023A00FF0E1FE47F6FF70854206DB0FA378
:1011D00040F2974242A11EA00FF0D6FED8F80400BC
:1011E0004189A94211DA0089A84206DA07A340F230
:1011F00099423FA116A00FF0C7FED8F8040000895D
:10120000401B80B280E044E1ACE08BE02E2E5C4CD1
:101210005749505C6C7769702D312E342E315C73D8
:1012200072635C636F72655C7463705F696E2E637A
:10123000000000007463705F726563656976653AEB
:101240002077726F6E672073746174650000000010
:10125000417373657274696F6E2022257322206654
:1012600061696C6564206174206C696E6520256419
:1012700020696E2025730D0A00000000E0000020A8
:101280007063622D3E736E645F71756575656C6524
:101290006E203E3D20706275665F636C656E286EE1
:1012A0006578742D3E7029007463705F72656365A4
:1012B0006976653A2076616C69642071756575653B
:1012C000206C656E67746800C80000201836002026
:1012D000696E7365672E7020213D204E554C4C0081
:1012E000696E73616E65206F6666736574210000B8
:1012F0007062756620746F6F2073686F727421005E
:1013000038817E813F686D1A7989A942F8DB68428D
:1013100001B23846FDF7F8FF90B1AFF2101340F27A
:10132000A64208E0694209B2FDF7EEFF40B1AFF214
:10133000241340F2AB42FDA1AFF2EC000FF024FE0B
:10134000B9F80C50A06AB8F80830451B5B1BA8F828
:101350000830C9F80C00D8F810104860A16A401A8B
:1013600007D591E0081A04D5A07F40F00200A077CD
:101370008AE0A08DA16A4F460A18D9F80C00821A9B
:10138000521C002AEDDC81427ED1D8F8100045467F
:101390008089FBF733FE800700D0012029890844AB
:1013A00080B27880A18D81423DD228698089FBF787
:1013B00025FEC0070DD028698089FBF71FFE00F0CD
:1013C0003E00FBF719FE29698A8922F47C521043FA
:1013D0008881A08D288128698089FBF70FFE80070E
:1013E00002D52889401E288129896868FDF72FFFCA
:1013F00028698089FBF702FE800700D00120298937
:10140000084480B27880A28DA16A1144FA68104421
:10141000884208D0AFF20C2340F2D742C8A1AFF205
:10142000D0100FF0B1FD7888F9680144A162A18D58
:10143000814208D2AFF22C2340F21252CEA1AFF279
:10144000F0100FF0A1FDA08D7988401AA0852046EC
:10145000FFF7ABF86868018909B178616E602869A7
:101460008089FBF7CBFDC00703D0787840F02000DF
:101470007870A07FC10702D020F0010014E040F096
:101480000100A077BDE8F0872046BDE8F04701F0F5
:101490001DBAA06AE9680A1A05D4A28D1044081A78
:1014A000401C0028EEDDA07F40F00200E9E770B5A7
:1014B000B94E0546706800F114048089FBF79EFD63
:1014C0000521B1EB103F1ED270688089FBF796FDB5
:1014D0006FF0040101EB1030090C01EA80000021DB
:1014E00040F2B4520DE0635C002B0CD0012B0BD00A
:1014F000022B04EB010309D05B78002B03D01944C5
:1015000089B28142EFD370BD491CF9E75E78042EA1
:10151000F9D1091D8142F6D85B885BBA934200D8A5
:1015200003B91346EB86EBE72DE9FC5F9A4D0446C1
:101530002878410727D5207E02280AD0A26AE968C8
:101540008B1A0AD4A38D1A44891A002905DC28B104
:101550000DE0206D2969884209D005E2AFF25433CD
:1015600040F257228DA1AFF218300FF00DFD6878D0
:1015700040F008006870A07F20F00100A0776FF0B5
:101580000A00BDE8FC9F800709D5207E022806D00E
:10159000032804D0A07F40F00200A077E4E1A07F00
:1015A000C00602D4854800686062002084F892007A
:1015B0002046FFF77CFF207EDFF804B2DFF80482CC
:1015C000814F824E801E4FF001094FF00A0A082811
:1015D000C3D2DFE800F0047AA9A8A7A9A6A52878B5
:1015E000C106BAD5800764D5206F00694068FBF753
:1015F00009FD2A69401C904258D134F8660F401CFE
:1016000024F83E09E9680846491C21602262A1606D
:101610006968401ECA892287C9896187E0620420FF
:1016200004F8100C34F80E0FA4F13201363CFFF729
:1016300032FA00EB80014FF6FF72E08602EA4101C8
:10164000A4F84E10B4F84C10012900D14000A4F8C1
:101650004C00B4F8680040B9AFF250434FF4237225
:101660005BA1AFF214400FF08FFCB4F86800401E8D
:10167000A4F86800206F01682167FEF70EFC206F58
:1016800080B10020A08684F8460000BFD4F88030E6
:10169000002B3FF47FAF00222146206998470A3093
:1016A00039D077E74FF0FF30A086EFE72878C00603
:1016B00097D568684C4B4D4A01884088CDE90001B8
:1016C0006988E86801442869C0E02878C10626D501
:1016D000A16C2869411A012927D4216D411A0029DA
:1016E00023DC04202076606950B9AFF2E04340F279
:1016F000B3223FA1AFF2A8400FF046FC606938B1B9
:10170000D4E9040300222146984738B10A3002D0B8
:101710002046FFF7A1F86FF0090032E772E098E089
:1017200014E1EFE0D8E0A3E09EE085E0706275662A
:101730005F686561646572206661696C656400005C
:101740007463705F726563656976653A2073656777
:101750006D656E74206E6F74207472696D6D656452
:1017600020636F72726563746C7920746F2072638A
:10177000765F776E640A00007463705F72656365FC
:101780006976653A207463706C656E203E207263E2
:10179000765F776E640A0000E00000207463705F7B
:1017A000696E7075743A207063622D3E7374617453
:1017B0006520213D20434C4F53454400C800002084
:1017C000BC000020D8000020D4000020DC00002055
:1017D0007063622D3E736E645F71756575656C65CF
:1017E0006E203E2030000000800000208400002099
:1017F0007063622D3E61636365707420213D204EED
:10180000554C4C00B4F84C602046FFF739FBB4F857
:10181000640010B1401EA4F86400E08E012E00D1D7
:101820004000A4F84C006878800611D5A07F40F0F5
:101830000200A07707204DE06968F74B0A884988C5
:10184000CDE900126A88E9681144F44A01F072FA9D
:101850008AE0800707D5A06AE968401E884202D165
:10186000204601F0C5FA7FE02046FFF709FBDAE7E2
:101870002046FFF705FB6878800628784FEAC060AD
:1018800021D5002819DA206D2969884215D1A07F59
:1018900040F00200A0772046FEF716FB3868A04211
:1018A00002D1C068386045E03060E8B3C068A0424B
:1018B000FAD13168E068C8603CE0A07F40F00200E7
:1018C000A077082006E000284EDA206D29698842BA
:1018D0004AD10620207647E02046FFF7D1FA687803
:1018E000800641D5A07F40F00200A0772046FEF799
:1018F000EBFA3868A042D4D03060A8B1C068A042EA
:10190000FAD1D6E72046FFF7BBFA2878C0062BD5D8
:10191000206D2969884227D12046FEF7D5FA38681C
:10192000A042BED0306000E004E018B1C068A04220
:10193000F8D1BEE78BF8009084F818A0D8F8001012
:10194000E160C8F8004001F078FB0DE02046FFF7A9
:1019500097FA2878C00607D5206D2969884203D1F7
:10196000687840F01000687000200AE67CB5AC4D45
:101970000646287841075FD4C1060DD56868A64B96
:10198000A64A01884088CDE900016988E8680144D9
:10199000286901F0CFF94FE080074DD5707EFFF741
:1019A00013F9040040D09D4800682060708B60836C
:1019B00099480068606069680888A08303202076E1
:1019C000E8680246401CA0622063C889A4F8600051
:1019D000C989A4F86210A4F84E00521E62653069ED
:1019E000206170696061307A00F08C0020728D484F
:1019F0000168E160046001F020FB8B490120087060
:101A00002046FFF754FDE08E211DFFF744F8E086E5
:101A10001221204600F050FB050008D0002120468E
:101A2000FEF7C9FE28467CBD4FF0FF307CBD204646
:101A3000BDE87C4001F0A4B800207CBD2DE9FC4746
:101A40000E46774C41680546A160087800F00F000B
:101A500001EB80018000616041422846FDF754FCA3
:101A600000287DD1288914287AD36C4F31463868F4
:101A7000FAF796FD0028F4D13878B846C0F3031081
:101A80000E286DD060688089FBF7B8FA000B8000E3
:101A900041422846FDF738FC0028E2D16068008802
:101AA000FBF7ACFA0146606801804088FBF7A6FAB4
:101AB0000146606841804068FBF7A4FA014660680F
:101AC0004160E1608068FBF79DFA014660688160D3
:101AD0002161C089FBF792FA01466068C181808963
:101AE000FBF78CFA00F03F0020702989800700D0B6
:101AF0000120DFF83091084460800027DFF818A14A
:101B0000D9F800607AE0307E38B9AFF60013AB2226
:101B100046A1AFF6C4000FF037FA307E0A2807D18D
:101B2000AFF61813AC224BA1AFF6DC000FF02CFA85
:101B3000307E012807D1AFF62C13AD2250A1AFF6AD
:101B4000F0000FF021FA6068B18B0288914253D106
:101B5000718B408881424FD17168DAF8000000E053
:101B6000B6E1814248D13168D8F80000814243D1C2
:101B7000F068B04207D1AFF66C13B6224AA1AFF6B7
:101B800030100FF001FA37B1F068F860D9F80010A2
:101B9000F160C9F80060F068B04207D1AFF6941365
:101BA000BC224CA1AFF658100FF0EEF946B3DFF8A7
:101BB00050810027C8F800702989A8F80810C8F8D3
:101BC00004506168C8F810106761677020780007DA
:101BD00003D5687B40F001006873706F00280AD05D
:101BE0003046FEF753FD0A3015D0706F002802D042
:101BF000608800280FD1CDE03746F668002E82D1EC
